S0120000486F6C747A6D616E5372632E7333376D
S21400000000100020790D0000750D0000750D000031
S214000010750D0000750D0000750D0000750D0000D3
S214000020750D0000750D0000750D0000750D0000C3
S214000030750D0000750D00005F740000750D000062
S214000040750D0000750D0000750D0000750D0000A3
S214000050750D0000750D0000750D0000750D000093
S214000060750D0000750D000071040000750D000090
S214000070750D0000750D0000750D0000750D000073
S214000080750D0000750D000005050000750D0000DB
S214000090750D0000750D0000750D0000750D000053
S2140000A0750D0000750D0000750D0000750D000043
S2140000B0750D0000750D0000918E0000750D000096
S2140000C0750D0000750D0000750D0000750D000023
S2140000D0750D0000750D0000750D0000750D000013
S2140000E0750D0000750D0000750D0000750D000003
S2140000F0750D0000750D0000750D0000750D0000F3
S214000100750D0000750D0000750D000010B5054C4E
S214000110237833B9044B13B10448AFF300800123AE
S214000120237010BDA81C0020000000005C00010029
S21400013008B5034B1BB103490348AFF3008008BD65
S21400014000000000AC1C00205C000100A3F5803A13
S214000150704700BF174B002B08BF134B9D46FFF799
S214000160F5FF00218B460F461348144A121A0CF06E
S214000170B5FD0E4B002B00D098470D4B002B00D042
S21400018098470020002104000D000D48002802D0EA
S2140001900C48AFF300800CF05FFD2000290000F053
S2140001A01BFA0CF045FD00BF000008000000000030
S2140001B00000000000100020701100206C9200204B
S2140001C0000000000000000000B5064C85B0236962
S2140001D023F00403236130BF00216A46322006F074
S2140001E011FCF4E700ED00E010B58EB000F0F6F874
S2140001F000F0B4F80AF074F90BF0F8F80BF054FDC0
S2140002000BF0A4FE0AF0E0FD0AF016FA0AA8012296
S214000210CDE9072013490A244FF48072CDE9032460
S214000220002319201624CDE90110CDE905330E4A26
S2140002300E490F48009405F0B3FF9DF8283033B9F7
S21400024000F0EEFB0EB0BDE810400BF0ADBB094869
S214000250472101F0D3F800F0E3FB0EB0BDE81040F4
S2140002600BF0A2BBC41C0020C901000070E5000012
S214000270C42000207CE50000074A084952F82030D8
S21400028052F8202051F82000A3EB920398422CBF8E
S21400029000200120704700BFB4210020C4210020A8
S2140002A02DE9F04F274C85B04FF08040002701F035
S2140002B08FF827702378032B3DD8DFF890B0DFF84F
S2140002C09080DFF890A0DFF890901F4D0CE0237828
S2140002D0DBB249F8232088F8006023783344DBB289
S2140002E023702378032B26D823784FF080401BF802
S2140002F00310012601F03AF86F626A4688F800702B
S21400030000216E600A2006F07DFB02236B606A6A9D
S2140003102378DBB24AF823202378DBB259F823305F
S2140003209A42D4D888F8006023780133DBB2237071
S2140003302378032BD8D94FF0804005B0BDE8F04FA6
S21400034001F030B8D421002000840140A0E5000070
S214000350D5210020C4210020B421002030B5164C41
S214000360164D0FCC87B0EC46ACE80F0094E80300BF
S2140003708CE803001248134C012101F08BF9124857
S214000380012101F087F91148012101F083F90121CB
S2140003904FF48A4001F07EF90D4B0E4A0E481D6060
S2140003A04FF6FF71D961186769464FF080401465B3
S2140003B000F092FF07B030BD88E500000000010A9B
S2140003C040410500000310000012040000A20400D3
S2140003D00084014000600E400100002A10B54FF076
S2140003E0011182B0052002F0C5FA0422114600234E
S2140003F0052002F0BFFB4FF00111052002F0BAFA0B
S214000400052100230422084602F0B4FB4FF0011138
S214000410052002F0AFFA002301220621052002F093
S214000420A9FB4FF00111052002F0A4FA00230122D7
S2140004300721052002F09EFB0124062211462346D2
S214000440CDE90044052002F0BFFA072223461146F4
S214000450CDE90044052002F0B7FA044B4FF4806162
S2140004604FF4802219601A6002B010BD00E100E06F
S21400047010B586B001F036FE1C4BD3F81C24C3F82A
S2140004802424044601200CF00BFC194B1B78002298
S214000490022B184B0270D3F8983115D023B12046A2
S2140004A001F026FE06B010BD02AA014600921248D0
S2140004B0012205F0EBF99DF80830002BEFD00F482D
S2140004C06A2100F09BFFEAE7002BE8D10C4802AA5D
S2140004D04FF4004105F0E8FB9DF80830002BDED015
S2140004E00648662100F08AFFD9E700BF00A000405A
S2140004F00310002000201442D8210020A4E50000AC
S2140005007C76002030B587B001F0ECFD224BD3F8A6
S2140005101C24C3F82424044601200CF0C1FB1F4B06
S2140005201B780125022B057018D01D4BD3F89C3183
S21400053023B1204601F0DCFD07B030BD02AA01461B
S214000540009218482A4605F0A1F99DF80830002BBD
S214000550EFD01548842100F051FFEAE728460CF05A
S2140005609FFB0F4BD3F89C31B3FA83FC02AA4FEAE9
S2140005705C1C00920146002380F800C02A460B4807
S21400058005F084F99DF80830002BD2D0064881216A
S21400059000F034FFCDE700BF00A0004003100020AD
S2140005A000201442D8210020A4E50000F891002085
S2140005B0064BD3F8943F23B1054B2022C3F8FC200A
S2140005C07047044B2022C3F8FC20704700101442EA
S2140005D000A0004400A0004608B508F079FCFFF72C
S2140005E003FE08F083FC002008BD00BF704700BF74
S2140005F008B50421112001F0A5FB0948012101F0EE
S21400060049F80848022101F09DFB0748022101F045
S21400061099FB0648022101F095FB002008BD00BFAB
S21400062030253E0002001E000300200005002400C6
S214000630234A08B50121234B5164D3F8FC301B0E26
S2140006403AD102F540524AF6E851C2F89011D2F873
S214000650981141F00401C2F89811C2F890311A4A74
S214000660D2F8643143F40053C2F864311749164A8D
S2140006700B6A23F4441343F488130B62D2F8A431B4
S21400068043F4F843C2F8A43107F058FF00F026FA06
S21400069007F0FCFE07F01AFF07F03CFFFFF7A8FF85
S2140006A007F004FF00F00EFA09F0E0FC02F04CFD43
S2140006B0BDE8084002F05ABD012BD7D1CFE700BFF6
S2140006C000000E400081E00F00300E4000400E405B
S2140006D002F074BD00F006B807F0E6BF704700BF32
S2140006E0704700BF014800F059BC00BFB0E50000ED
S2140006F03549364B364A70B504240C7035491268B5
S214000700354E00240C601C680146A2423348344C27
S214000710C8BF1A6088B00CF037FC04F1900504A935
S214000720204606F037FC022829D03034AC42F6D1F9
S214000730002204AB2B48114606F094FC9DF81030BE
S214000740002B3BD1002204AB2748114606F08AFC5A
S2140007509DF810306BBB6B4624480022042104F041
S214000760A3F99DF80030FBB96B4620480122022110
S21400077004F09AF99DF8003083B908B070BD0022E5
S21400078004AB1146204606F06DFC9DF81030002B99
S214000790CBD03421304600F031FEC6E70E483E216D
S2140007A000F02CFE08B070BD0B483C2100F026FE81
S2140007B0DAE709483A2100F021FECCE7064838215E
S2140007C000F01CFEBEE700BF0310002048270020F4
S2140007D04C27002008220020C8E500000C2200203C
S2140007E010810020E0860020788C00202027002042
S2140007F0044A1368013B136003B170470248FFF7D1
S21400080077BF00BF04100020F0E5000000000000E5
S21400081000B59FED297B2A4B2A4A00200021C3E918
S2140008200401C3E9020183ED007B2748274B03211F
S21400083089B04FF0050C1160002280F800C01A60E5
S21400084009F052FD224B2348022269461A7006F030
S214000850FFFA9DF8003053BB69461F4806F0F8FAC9
S21400086004AB00221D48022104F01EF99DF800206A
S2140008709DF81030134303D01948592100F0BEFDEF
S2140008806946184806F0E4FA04AB0122134805212D
S21400089004F00AF99DF810209DF80030134303D0A9
S2140008A00F485C2100F0AAFD09B05DF804FB0C4877
S2140008B0562100F0A3FDCFE70000000000005040E6
S2140008C0088C002004100020D91000204C2700209F
S2140008D00310002010810020E08600202027002042
S2140008E0C8E50000788C00202DE9F04F424EDFF876
S2140008F020B1DFF820A1414DDFF81C81DFF81C9104
S2140009008DB004AC00270194009708233A460521D1
S214000910284603F023FF0228F4D008ABCDE9007385
S2140009203A4603AB3946404604F092FE9DF8203026
S2140009300746002B51D13B78012B336843D0032B5D
S21400094050D8DFE803F0170F0802FFF761FF3846BC
S2140009500CF0AEF9D6E79AF8003083F001038AF877
S2140009600030F4E7DBF80030B3FA83F35B09CBF82A
S2140009700030ECE7224B1B78032B38D8DFE803F077
S2140009801C160F021E4A002313701E4A0123137002
S2140009901D4A642313601D4A19231360D7E7184ABB
S2140009A003231370194A23231360D0E7144A022343
S2140009B01370144A1370CAE7114A01231370124ABF
S2140009C032231360C3E701335A4202F0030203F0F6
S2140009D0030358BF53423360B9E7A421484600F0EA
S2140009E00DFDA8E7B621484600F008FDAFE79621C2
S2140009F0484600F003FDAAE7082200202027002032
S214000A002C220020D710002000110020FC1000200F
S214000A1010870020D8100020D8210020C8E500004C
S214000A2010B596B0002301240AA87821CDE9051355
S214000A30CDE90740154A4FF480710A20CDE903102E
S214000A4019211420CDE901210090114A11491248BC
S214000A5005F0A6FB114912480EAB224603F01EFE17
S214000A601049114812AB042204F078FD9DF8383086
S214000A709DF828109DF848200B43134303D00B48DD
S214000A807E2100F0BBFC16B010BD00BF3022002057
S214000A90E9080000F8E500003026002004E6000023
S214000AA02027002018E60000D8210020C8E5000016
S214000AB008B50320012304220F2102F05BF8002072
S214000AC008BD00BF08B50448012100F0E3FDBDE8FD
S214000AD00840FFF78BBD00BF00350A000148012122
S214000AE000F0D8BD00350A002DE9F0411A4D066821
S214000AF00446884617460FCD86B0EC46ACE80F0095
S214000B0095E803008CE803001448012100F0C2FDBC
S214000B106068012100F0BEFD617B207B002304227B
S214000B2002F028F8617A207A0023042202F022F8E4
S214000B3030466946CDF80880ADF8107002F0F0F93E
S214000B40237CA27B1B0643EA022300200A22B3670B
S214000B50726706B0BDE8F08134E6000000350A0092
S214000B6070B506684AB1013A4C1E8D1814F8011F7C
S214000B70304602F091FAAC42F8D1002070BD00BFBA
S214000B80026813699B06FCD5704700BF024B4FF402
S214000B900052C3F8A820704700A000402DE9F0439B
S214000BA00446274F2748284D85B0012100F072FDE6
S214000BB0A16800223846FFF797FF002304220E2183
S214000BC0032001F0D7FF002304220D21032001F0AB
S214000BD0D1FF1E4B4FF0010983F8009094E80F00F8
S214000BE0002685E80F0007F04FFFCDE90069237B5C
S214000BF0174A03FA09F3B0FBF3F13346154807F03A
S214000C003BFE154B4FF48048C3F89C80607B08F091
S214000C106FF9042302220DF10E013846ADF80E30AE
S214000C20FFF79EFF3846FFF7ABFFA07B08F060F9A2
S214000C300A4B3046C3F89C8005B0BDE8F08300BF81
S214000C400810002000350A00702700206C270020BE
S214000C508D0B00005027002000A0004600A0004496
S214000C602DE9F04F0788144602799846304B02FB70
S214000C7007F74FF48042C3F89C20013483B08246C5
S214000C80A4B2407B0E4608F033F9230243F001037A
S214000C902848ADF8063002220DF10601FFF760FF86
S214000CA0B8F1000F22D001342402DFF888B0FF101C
S214000CB0A4B208F1FF39002531463A465846FFF7F8
S214000CC04FFFA94544F0FF0C4FF002020DF106015C
S214000CD058463E4405F1010518D0ADF806C004F5A7
S214000CE08074FFF73DFFA845A4B2E5D11148FFF791
S214000CF047FF9AF80E0008F0FBF80F4B4FF48042BF
S214000D000020C3F89C2003B0BDE8F08F4FF0FF33FF
S214000D1002220DF1060109F10105ADF8063004F5D1
S214000D208074FFF71DFFA845A4B2C5D1DEE700BF5B
S214000D3000A000460810002000A00044034B044812
S214000D401B78002B08BF0020704700BF6C270020D0
S214000D507027002000B5064B0FCB85B0EC468CE81C
S214000D600F006046FFF71AFF05B05DF804FB00BFF2
S214000D704CE60000FEE700BF10B500F0E1F81749AA
S214000D80174A914220D2174C44EA010C501E1CF020
S214000D90070F0B46A0EB010018D12B2816D98008A8
S214000DA001304FEA500C224604EBCC0CB2EC027B2E
S214000DB09445A3EC027BF9D1C20720F0010303D5CA
S214000DC054F8232041F82320FFF7C4F9054951F8C9
S214000DD0040B43F8040B9A42F9D8F5E700100020FC
S214000DE07011002064000100164BD3F8943003F015
S214000DF00703023B032B21D8DFE803F016021D1978
S214000E004FF400400F4B1049D3F80021D3F80831B7
S214000E10C2F30422C3F3082301320133B0FBF2F01D
S214000E20B0FBF3F008607047084B1868EAE7084B19
S214000E3018684008E6E7074B1868E3E7044B1868AD
S214000E40E0E700BF00400E401C10002020100020ED
S214000E50241000202810002000487047005A620224
S214000E60114BD3F8943003F00703023B032B18D83A
S214000E70DFE803F00D0214104FF400400A4BD3F8DD
S214000E800031C3F304230133B0FBF3F07047074B84
S214000E901868F3E7064B18684008EFE7054B186834
S214000EA0ECE7034B1868E9E700400E4020100020EE
S214000EB02410002028100020014B1868704700BF3F
S214000EC020100020194B1A4A1860D2F8943003F00C
S214000ED00703022B00D07047D2F8943003F00703C4
S214000EE0023B032B1ED8DFE803F004021A164FF469
S214000EF000400F4B0F49D3F80021D3F80831C2F356
S214000F000422C3F3082301320133B0FBF2F0B0FB36
S214000F10F3F008607047084B18684008E9E7074B8D
S214000F201868E6E7044B1868E3E700BF20100020C7
S214000F3000400E401C100020241000202810002026
S214000F40044B054A9A60D3F8882042F47002C3F82E
S214000F508820704700ED00E0000000004FF40040DD
S214000F60704700BF4FF47A70704700BF014B186897
S214000F70704700BF2810002006490A6810B4064CC7
S214000F801044A0428CBF4FF0FF3208605DF8044B5F
S214000F90104670472C10002000000420D0E9000303
S214000FA0184700BF10B501210446094800F072FB3F
S214000FB00848012100F06EFBA37820786178B3FA28
S214000FC083F35B09042201F0D5FD002010BD00BFAD
S214000FD04041050000350A0038B583780478457826
S214000FE03BB954BB40F2FF33EB40DA0740D5344BF5
S214000FF006E06CB940F2FF33EB40DB073ED5314BE1
S21400100004EB4404240101222344AA401A6038BD9C
S214001010012C2AD0022C3AD0032C3BD0042C2DD005
S214001020052C40D0A31F012B28D9082C40D0092C12
S21400103043D00A2C22D10723DEE7012C12D0022C43
S21400104022D0032C29D0042C12D0052C28D0A31F84
S214001050012B0DD9082C29D0092C2BD00A2C07D10E
S2140010600723C1E74FF6C073BEE74FF6C073C3E76A
S21400107015484FF4797100F0C1F9B8E7124840F20C
S214001080134100F0BBF9BAE740F6FF73ACE740F651
S214001090FF73B1E74FF47F43AEE74FF47F43A3E718
S2140010A04FF6FF73A0E74FF6FF73A5E70F239BE706
S2140010B00F23A1E74FF4404396E74FF440439BE7E6
S2140010C00CA000440CA000465CE6000038B583780F
S2140010D0047845783BB954BB40F2FF33EB40DA075F
S2140010E040D5344B06E06CB940F2FF33EB40DB07EB
S2140010F03ED5314B04EB4404240101222344AA408C
S2140011001A6038BD012C2AD0022C3AD0032C3BD0D2
S214001110042C2DD0052C40D0A31F012B28D9082C39
S21400112040D0092C43D00A2C22D10723DEE7012C1D
S21400113012D0022C22D0032C29D0042C12D0052C3D
S21400114028D0A31F012B0DD9082C29D0092C2BD071
S2140011500A2C07D10723C1E74FF6C073BEE74FF648
S214001160C073C3E7154840F2134100F047F9B8E7EB
S21400117012484FF4797100F041F9BAE740F6FF7370
S214001180ACE740F6FF73B1E74FF47F43AEE74FF4AA
S2140011907F43A3E74FF6FF73A0E74FF6FF73A5E77D
S2140011A00F239BE70F23A1E74FF4404396E74FF446
S2140011B040439BE70CA000460CA000445CE6000001
S2140011C038B504784578A4B1012C28D0022C2CD050
S2140011D0032C27D0042C1CD0052C29D0A31F012BB0
S2140011E017D9082C27D0092C27D00A2C11D1072272
S2140011F001E040F2FF32EA40D3070AD504EB44048C
S214001200240104F18044012304F52044AB40A3618B
S21400121038BD0B4840F22E4100F0F0F8EEE74FF6EE
S214001220C072E8E74FF47F42E5E740F6FF72E2E778
S2140012304FF6FF72DFE70F22DDE74FF44042DAE7B2
S2140012405CE6000070B5047846780546A4B1012C2B
S2140012502CD0022C30D0032C2BD0042C20D0052CE4
S2140012602DD0A31F012B1BD9082C2BD0092C2BD03B
S2140012700A2C15D1072301E040F2FF33F340DB07C9
S2140012800ED5134BAA7804EB440406EBC41423448F
S2140012909B001868C0B212B9B0FA80F0400970BD61
S2140012A00C4840F2FE3100F0A9F8EAE74FF6C073AA
S2140012B0E4E74FF47F43E1E740F6FF73DEE74FF6DF
S2140012C0FF73DBE70F23D9E74FF44043D6E700BFB1
S2140012D0600085105CE60000B0F1804F38B505462A
S2140012E00C4606D01E4B984203D01E48A22100F0A2
S2140012F085F823693F2B2ED8E3683F2B26D86368F2
S2140013003F2B1DD8227821691B0643EAC27343F49B
S21400131000432B60E268237A43EA0243AB62627AB8
S21400132042EA0142EA6205F14243A07A0E4A217D72
S21400133003F580135B0142EA00726A60196038BDEB
S2140013400848B82100F05AF86368DBE70548B7217B
S21400135000F054F8D3E70348B62100F04FF8CBE787
S21400136000040040D4E6000000FD0004B0F1804F09
S21400137038B504460D4606D0084B984203D00848B8
S214001380F52100F03BF800F0A5FE636823F0FF03AC
S2140013902B436360BDE8384000F0A0BE0004004068
S2140013A0D4E60000B0F1804F10B5044607D0064BD7
S2140013B0984204D0054840F21B1100F01FF823683D
S2140013C023F00103236010BD00040040D4E60000B3
S2140013D0B0F1804F10B5044607D0064B984204D0B3
S2140013E005484FF49C7100F009F8236843F00103A8
S2140013F0236010BD00040040D4E60000FEE700BFF6
S21400140038B5144D41F671332C6C2B64FFF724FD70
S214001410114B6A68984213D9104B984217D9104856
S21400142041F23A41FFF7EAFF4FF0407209494B6834
S21400143023F0407313434B600CB100230B6438BD9C
S2140014400022084B03EBC2035B791A06EEE7012283
S214001450F7E700BF00000E4040787D01005A6202A8
S2140014604CE7000024E8000038B55D4B984204467F
S21400147000F097805B4B98427ED05B4B984270D0D2
S2140014805A4841F23A5104F00F05FFF7B7FF6B1EBA
S214001490072B3DD8DFE803F04C657B3C70573C04D7
S2140014A0534BD3F85C3103F03003202B00F08F80D1
S2140014B0302B03D0102B14BF01250725494B9C4227
S2140014C030D0494B9C4246D0484841F26951FFF71C
S2140014D095FF042D7DD8DFE805F00D1713030F00E8
S2140014E0FFF7BEFC424BD3F80051C5F3006501354B
S2140014F020FA05F5284638BDBDE83840FFF732BD6E
S214001500BDE83840FFF732BDBDE83840FFF726BDDE
S214001510364841F62771FFF771FF324B9C424FF079
S2140015200005CED1324BD3F8885005F00705D0E73A
S2140015302F4BD3F8943003F00703023B052B44D817
S2140015402C4AD55CBAE72A4B1B6F13F0010F14BF69
S21400155009250725B2E7264BD3F8805005F0070586
S214001560B7E7234BD3F8803003F00703013B032B88
S21400157015D8214AD55CA1E71D4BD3F8883003F077
S2140015800703013B032B0AD81C4AD55C96E7184B89
S214001590D3F8843003F00703013B032B0FD9012552
S2140015A08CE7134BD3F8843003F00703013B032B7F
S2140015B005D90F4BD3F8845005F0070589E7084A8C
S2140015C00F499442CD5CF4D078E7052576E70425EC
S2140015D074E7064841F2BB51FFF710FF002589E784
S2140015E0030020000500240002001E004CE7000057
S2140015F000400E40C4E70000CCE70000CCE7000047
S214001600D0E700001C4B41F6713210B511F0FF0117
S2140016101C6C1A645B6812D002291DD0174841F270
S2140016203A41FFF7EBFE4FF0407213494B6823F048
S214001630407313434B600CB100230B6410BD104B7A
S214001640984203D90F4B9842E8D801210E4B03EB82
S214001650C1014B791A06E8E70C4B9842F6D90C4BB9
S214001660984207D903F5B70303F558639842D5D8CF
S2140016700421EBE70321E9E700000E404CE70000F9
S21400168040787D01005A620224E80000C0CF6A005C
S214001690809FD500C0F30323013B10B4092B06D866
S2140016A0DFE803F00C150505191D2D0533391C4818
S2140016B05DF8044B41F6D711FFF7A0BE194CC0F3F6
S2140016C00430204480005DF8044B01607047164CDF
S2140016D0C0F30430F5E7154CC0F30430F1E7144CC2
S2140016E0C0F304304FF0010C124AD2F84431DB0745
S2140016F0E7D4D2F8403113EA0C0FFAD1E1E70E4CEA
S214001700C0F304304FF0100CEEE70C4CC0F304307E
S2140017104FF4803CE8E70A4CC0F30430D1E700BF42
S2140017204CE700000000F2100006F2108005F210F0
S2140017300007F21000400E404007F2108007F2103B
S214001740800AF21008B5C0F30313013B092B0FD82B
S214001750DFE803F015272D1B0E0E213744053D4B01
S21400176098424BD13C4BD3F8300100F0030008BD43
S2140017703A4841F6D331FFF741FE002008BD364B0C
S214001780D3F80001C0F3042008BD334BD3F80C0196
S214001790C0F3082008BD304BD3F80801C0F308207A
S2140017A008BD2D4BD3F81401C0F3042008BD2A4B06
S2140017B0D3F800310120C3F3006303449840013896
S2140017C008BD274B984220D0264B984230D023485D
S2140017D041F67B31FFF712FE002008BD224B9842EF
S2140017E02FD003F5B01303F58053984216D01B484C
S2140017F041F69F31FFF702FE002008BD174841F66C
S214001800AE31FFF7FBFD002008BD134BD3F82031A7
S214001810012003F00F039840013808BD0E4BD3F8A3
S2140018202831C3F30123043301209840013808BD52
S214001830094BD3F820310120C3F301139840013837
S21400184008BD054BD3F828310120C3F30113984097
S214001850013808BDA009140000400E404CE7000007
S2140018608006160080162E0090171A0000F47813D3
S214001870B3F5B01F10B500F0A9802BD8B3F5402FF4
S21400188000F0AE801AD9B3F5801F14D0B3F5A01FB0
S21400189009D16248FFF7E8FD614BD3F8303103F019
S2140018A00303D84010BDB3F5602F40F0A4805C4B16
S2140018B01B6FDB070AD45B4B186810BDB3F5802F8F
S2140018C079D01DD9B3F5202F40F09580BDE81040A3
S2140018D0FFF7C6BAB3F5381F47D02FD9B3F5481F60
S2140018E04DD0B3F5781F1BD10446FFF7B9FA03466F
S2140018F020461C46FFF726FF0130B4FBF0F010BD73
S214001900002BE3D0B3F5003F75D1FFF7A9FA444B9F
S214001910D3F80831C3F308230133B0FBF3F010BD4E
S214001920B3F5401F67D14048FFF79EFD3C4BD3F808
S2140019302831C3F301230433D84010BDB3F5001F8C
S2140019402AD007D9B3F5101F55D1BDE8104033484B
S214001950FFF78ABDB3F5D01F23D0B3F5F01F4AD1E9
S214001960BDE810403148FFF77FBD3048FFF77CFDEB
S2140019702B4BD3F82031C3F30113D84010BD284CAD
S214001980D4F85C3103F03003202B43D0302B38D012
S214001990102B90D0002010BDBDE810402248FFF765
S2140019A063BD2148FFF760FD1D4BD3F82831C3F314
S2140019B00113D84010BDFFF753FA194BD3F80C317A
S2140019C0C3F308230133B0FBF3F010BD1748FFF74D
S2140019D04BFD134BD3F8203103F00F03D84010BD56
S2140019E0FFF73EFA0E4BD3F81431C3F3042301334A
S2140019F0B0FBF3F010BD0E4841F60731FFF7FEFCD2
S214001A00C8E7FFF72DFAD4F80031C3F3042303FB2D
S214001A10000010BDBDE81040FFF74EBA05002400D8
S214001A2000400E40301000200300200002001E0080
S214001A304CE70000354BD3F8943003F00703023B25
S214001A40052B10B5044603D8314AD35C042B56D078
S214001A502E4A08231366D2F890305907FBD42B4A37
S214001A60D2F890301B07FBD4637813B9A378002B09
S214001A7038D042F24B512748FFF7C0FC217C0129A1
S214001A8036D0224A2448536A23F00103022908BFAD
S214001A9043F0010321785362C0F8A014637AA1884A
S214001AA043EAC123D362136BA17A207A03F07F63E3
S214001AB00B43E18843EAC123C11C0F2943EAC01344
S214001AC028BF0F2143EA01731363A37B94F80DC06C
S214001AD0E07B217B1B0143EA0C33034343EA0143CB
S214001AE0536310BDE378002BC3D1217C0129C8D1F4
S214001AF042F252510748FFF781FC217CC1E70548B6
S214001B0042F20F51FFF77AFCA2E700BF00400E40FA
S214001B10C4E700004CE700000000C8431A4BD3F8A7
S214001B20943003F00703023B052B10B5044603D898
S214001B30164AD35C022B21D01349154B886B2278AA
S214001B4094F801C003401343A278E07843EACC231C
S214001B5043EA02638A6B43EA00239A4200D110BD2F
S214001B604FF400720A66D1F89020D005FBD40649DF
S214001B70D1F890209205FBD48B6310BD054842F245
S214001B80CD51FFF73BFCD7E700400E40C4E700000E
S214001B9080E4FFF84CE70000014B1880704700BF58
S214001BA034100020042800F287802DE9F0415C4BB9
S214001BB00D465C4953F8207051F8206082B0044608
S214001BC0002D61D0584B022853F8208079D000258C
S214001BD05648574B38448000C3F860800368002B93
S214001BE0FCD0002A4DD0514B33449E003368002B66
S214001BF0FCD0022C45D1002D43D04D4A536AD9075C
S214001C007CD54FF480612023C2F8A8105366536A2F
S214001C10C3F30113002B0BBF4FF4800000204FF4DA
S214001C2040014FF40001D2F8903031EA0303FAD1B4
S214001C3000286BD13E4D012200210220D5F89C40A1
S214001C40FFF7B0FFD5F890305B07C4F30A0460D402
S214001C50374A506AE309D91C20F0300343F01003DA
S214001C605362106B334B0F2903EA000328BF0F2182
S214001C70234343EA01730421136311663368002B80
S214001C80FCD002B0BDE8F0812B4B53F8203028483A
S214001C9001210366B940D0F890300B42FBD1002AF0
S214001CA0EFD00123224A03FA06F6D2F890303342E8
S214001CB0FBD102B0BDE8F081204842F27461FFF724
S214001CC09DBB1B4B5B6A13F0300F80D11C4BDB6B4C
S214001CD05B050BD5164B596AC8077FF579AF596A6D
S214001CE021F0300141F01001596271E7134801926A
S214001CF042F28361FFF782FB019AEBE7536AD2F860
S214001D00903003F44003B3F5400FF8D1D2F8A0307A
S214001D1090E70A4842F25D71FFF770FB98E700BF54
S214001D20E8E70000D4E70000FCE700008004F210BB
S214001D3000400E4000F8FF0F10E800004CE70000DF
S214001D4000300E40112870B50C460AD000F00F0087
S214001D50013807281CD8DFE800F00922721B375C20
S214001D601B69042900F0978005296AD00025023CEB
S214001D700A2C00F2A580DFE814F04B01D3003201F4
S214001D803F01A300A300A300A300CC0050014E0116
S214001D90BDE87040A84842F22621FFF72FBB06296F
S214001DA000F08181A54D013C092C06D8DFE804F03F
S214001DB07A63530505140505057CBDE870409E480A
S214001DC042F26701FFF71ABB06299D4DEBD19A48F0
S214001DD042F23C01FFF712FBFFF742F8994B98429C
S214001DE06BD9994B0121984294BF4FF080704FF009
S214001DF00070964B964A1964D2F80031954923F044
S214001E00807318430123C2F80001C1F80836032383
S214001E102FE0072900F00B81092900F00481BDE8B6
S214001E207040854842F2F101FFF7E8BA4C1E072CD5
S214001E303CD8DFE804F06A3B3B633B3B4C6C864D8A
S214001E40B1E7864A864B15689D428FD90021284601
S214001E5000F03AFA8BE77E4B7E4A40211966D2F8AC
S214001E601832002BFBD07B4AD2F81C32002BFBD05A
S214001E7001232B6070BD764B764A4FF4807119664D
S214001E80D2F82032002BFBD0724AD2F82432002B34
S214001E90FBD00223EDE7FFF70FF8054600283FF4D6
S214001EA065AFD3E70023E4E70423E2E7BDE870402C
S214001EB0614842F24F11FFF7A1BA0020014698E7A9
S214001EC0BDE870405C4841F6ED71FFF797BA604B8D
S214001ED0604A10211966D2F81032002BFBD05D4AFA
S214001EE0D2F81432002BFBD01021594AD2F85C31BC
S214001EF023F030030B43C2F85C3170BD012211465B
S214001F000220FFF74FFE2021EFE70021EDE730210A
S214001F10EBE7BDE87040484841F6E871FFF76EBA57
S214001F200120032401221146FFF73CFEFFF768FA62
S214001F3045B14C4BDB6B5A0604D44B4AD2F8C8303A
S214001F40002BFBD1424B5C67FEF74EFF0446FEF7C4
S214001F5087FF3C4B984263D93B4B0121984294BF84
S214001F604FF080734FF00073384A11643849D1F847
S214001F70002122F0807213433A4AC1F80031D36B35
S214001F805B0604D4384AD2F8C830002BFBD1354B58
S214001F90364A5B68166C41F67131116413F4403FA3
S214001FA05268C3F3014063D002286ED0224841F243
S214001FB03A41FFF723FA4FF040722C494B6823F062
S214001FC0407313434B600EB100230B64002D7FF467
S214001FD051AF28460121BDE8704000F075B91B4B93
S214001FE01B4A01211964D2F80031022043F08073A5
S214001FF0C2F80031044695E7144B154A01241C64C8
S214002000D2F8003143F080730320C2F8003189E72C
S2140020100020042486E7072488E70320052481E7B8
S21400202000231946A0E70A4B01221A6770BD084B29
S21400203000221A6770BD00BF4CE7000080400E40CB
S21400204088400E400048E8010090D0030000C843D6
S21400205000400E400010C84384400E40241000206C
S214002060002D310100300E400000C64300000E4037
S214002070114B9C4203D9114B9C4297D80120104B20
S21400208003EBC0035B791A0697E70E4B9C42F6D922
S2140020900D4B9C420ED903F5B70303F558639C42DB
S2140020A084D80420EBE70948094D42F22C01FFF7DB
S2140020B0A5F98CE60320E2E740787D01005A62022B
S2140020C024E80000C0CF6A00809FD5004CE70000DF
S2140020D080400E40EFF3108072B6704700B962B6CB
S2140020E0704700BFEFF31180602383F311887047B9
S2140020F080F31188704700BF034B5868C0F3080090
S214002100003818BF0120704700ED00E0EFF31083A1
S214002110DB0706D4EFF311805F2894BF0020012070
S21400212070470120704700BF38B542EA0323B3F575
S214002130007F05460C463BD01DD8B3F5807F40D0C7
S2140021400CD940F20112934244D1304BD3F82432DA
S2140021501A0EC3F307432B60226038BD002B43D012
S214002160012B37D1294BD3F82432C3F30722DBB235
S2140021702B60226038BDB3F5407F3ED040F201327E
S214002180934208D1214BD3F828321A0EC3F30743E3
S2140021902B60226038BD40F2012293421AD11B4BBD
S2140021A0D3F82832C3F30722DBB22B60226038BD97
S2140021B0164BD3F82032C3F30722DBB22B60226023
S2140021C038BD124BD3F81C321A0EC3F307432B60EC
S2140021D0226038BD0E4840F68E11FFF70FF9002238
S2140021E013462B60226038BD084BD3F81C32C3F36D
S2140021F00722DBB22B60226038BD044BD3F82032B6
S2140022001A0EC3F307432B60226038BD0081E00F2F
S2140022104CE80000274BDA6B520600D57047DB6BA4
S2140022202DE9F0410D465906044604D4224AD2F858
S214002230C830002BFBD11F4F7B68C3F301439C4281
S21400224016D01E4BD3F80081FEF70AFE022C064677
S21400225016D0C4F10202102393403B613DB1FB6BE4
S2140022605A0604D4144AD2F8C830002BFBD10CB15D
S214002270BDE8F08121463046BDE8F041FFF7C2B91F
S2140022800F4BC8F3042808FB000898450CD8022119
S2140022903046FFF7B7F9074B10221A61002DE7D03A
S2140022A0DB6B5B06DED5E3E7064840F23161FFF7FD
S2140022B0A5F8ECE700300E400000C64300400E4094
S2140022C0002D31014CE8000038B5224BDB6B5C0674
S2140022D02ED40C4600282CD01F4B1B7813B11F4B56
S2140022E0984230D91B4BDA6B510621D4DB6B5A0669
S2140022F004D41B4AD2F8C830002BFBD1154D6B68AE
S21400230013F4403F14D0174BD3F80031FEF7A8FD66
S21400231040232B613CB1EB6B5B0604D4104AD2F829
S214002320C830002BFBD1BDE838400021FFF76AB962
S21400233038BD0C4BD3F80051FEF792FDC5F30425CB
S21400234005FB0000C8E721460220BDE83840FFF73D
S21400235061BF00BF00300E4088270020002D3101ED
S2140023600000C64300400E40164A0178936910B537
S2140023704478002923F03F01837814BF4FF0040E01
S2140023804FF0000E002C14BF4FF0020C4FF0000C64
S214002390002B0379C47843EA010314BF0821002107
S2140023A0012C08BF43F0010343EA0E0343EA0C0383
S2140023B00B4393611368417923F4403343EA0143A6
S2140023C0136010BD00300E40254A4AF6E85310B49C
S2140023D0546B5363936FDB07FCD4136C13F0030347
S2140023E024D0204A01218342C2F8B41A1BD0032B02
S2140023F002D1431E012B21D9194A936FDB07FCD467
S214002400136C174923F00303034313648B6F13F015
S2140024100103FBD10038134A18BF0120012CC2F873
S214002420B40A00D14B635DF8044B70470028E0D136
S2140024300C4B5DF8044BC3F8B40A7047084A4FF4D7
S2140024400023D362936FD907FCD4136C044923F09E
S214002450030343F0010313644B6A1A03FCD5CBE76E
S21400246000300E400000C6432DE9F04FA0F5E166AF
S21400247089B00024B6F5966FCDE90244CDE9044450
S214002480CDE906446FD8B0F5E16F9146054688461B
S2140024908CBF012200225CD0744BD3F818324FF464
S2140024A0966A190EC3F30743714C04930791E76CC1
S2140024B00192C7F3017705A902A83B46FFF734FE51
S2140024C0D4F8EC30019AC3F3012B06A95B4603A8A7
S2140024D0FFF72AFE049B079AA2EB030C06FB0CFCF4
S2140024E0BCFBFAFC13EB0C032CBF012100219A4223
S2140024F026D329BB03990698421A06FB02F2B2FBC2
S214002500FAF28A182CBF01210021904218D3B9B9DB
S21400251002980599A1EB000C06FB0CF6B6FBFAFA3E
S21400252010EB0A0A2CBF01200020514508D338B909
S214002530B9F1000F20D1B8F1000F2CD1012005E031
S2140025404C4840F63C31FEF759FF002009B0BDE884
S214002550F08F464BD3F818324FF41676C3F30721A4
S214002560B246DBB2A0E7434840F6EE21FEF746FF50
S214002570204609B0BDE8F08FE16D21F4FE4121F060
S214002580020141EA0323B5F5E16F394918BF43F06C
S2140025900203CB65CFE7354B022FD3F8303250D04D
S2140025A0032F4CD0012F14BFDBB2C3F307231B034A
S2140025B013F4702F37D12E482C4CC16E21F4704185
S2140025C00B43C366BBF1020FD4F830324AD0BBF1DE
S2140025D0030F45D0BBF1010F14BFDBB2C3F30723D3
S2140025E01B0313F4702F2FD12149924538BF924612
S2140025F0D1F8EC2022F470421343C1F8EC304B6E55
S21400260023F4FF73BAF1E70F23F0010328BF4FF05E
S214002610E70AB5F5E16F18BF43F0010343EA4A0342
S21400262040464B6692E7134840F61D11FEF7E6FE5D
S214002630104840F64B31FEF7E1FE002086E71B0E01
S214002640B5E7C3F30743B2E70A4840F62911FEF799
S214002650D5FE084840F65331FEF7D0FE002075E759
S2140026601B0EBDE7C3F30743BAE700BF0081E00FC8
S21400267000300E404CE800003C4B196FDA6C10B589
S214002680D4073ED511F0060F57D0132862D84FF462
S2140026904C5236483649C36C364C23F47F431343BA
S2140026A0C364C26C0B88C16CC2F3032228330132A8
S2140026B003EB530302EB820CB3FBFCF3013B072B4B
S2140026C028BF072321F0EE6141EA036343F4801339
S2140026D0C364B4F90030002B12DB03F12801C1F308
S2140026E04E030B445408016D04EB4202B3FBF2F2B6
S2140026F0072A21F0700328BF072243EA0212026568
S21400270010BDDA6CD4070BD411F0060F18D0DB6CB2
S214002710194840F69131FEF771FE6FF0FF02B8E7F8
S214002720DB6CDC07F4D511F0060FF1D127288CBF3F
S2140027304FF47F424FF4EE42ABE7DA6CD10711D488
S2140027400928A4D90A3809288CBF4FF47F424FF4D1
S214002750EE429EE7143813288CBF4FF47F424FF4A6
S214002760EE4296E7DB6CDB07E0D4D1E700300E40A4
S21400277082270020842700204CE8000038B5754BDF
S21400278002229A639B6B03F00F03934240F0A980EA
S2140027900389C82B044637D8A2889A422AD8B4F9A7
S2140027A00C30C82B1DDC6378012B11D0022B00F0F7
S2140027B0BF80E38842F21072934200F2A9804A2B4F
S2140027C02CD9B3F5FA7F80F0AA804FF0805126E02E
S2140027D0A388C82BEDD9604840F65B21FEF70EFEB5
S2140027E0E7E75D4840F65721FEF708FE6378012BC1
S2140027F0DCD1EDE7584840F65621FEF7FFFDB4F968
S2140028000C30C82BCFDDECE7534840F65521FEF7D9
S214002810F5FD2389A2889A42C1D9EBE700214D4AEB
S214002820B4F90C00D36C4D4D23F0405323F0010354
S2140028300028A8BF43F001030B43D364D2F8EC3062
S214002840A08843F44073C2F8EC30D36E288043F07F
S2140028508073D366424BD3F88019D3F880390029A9
S21400286038D0002B6ED03B4A136F23F0070343F09B
S21400287004031367FFF700FF3A493B4B2089B4F97E
S2140028800C200880A0881A80FFF7F6FEA37B002B9A
S2140028903AD0012B34D0304840F6CE01FEF7AEFDDC
S2140028A0012260881146FFF7DFFD054608B3294A76
S2140028B0D36B43F48063D3636078FFF785FDA37A18
S2140028C0274AA3F12003B3FA83F35B09C2F89437CF
S2140028D0284638BD136F23F007031367FFF7CCFEB7
S2140028E0CAE71D4840F64B210025FEF787FD28461F
S2140028F038BD194840F69F21FEF780FD284638BDB2
S214002900144B1A4A9A65CBE7124B194A9A65C7E7E1
S214002910114840F66821FEF771FDE3884FE740F660
S214002920C3118B4294BF4FF000514FF0405176E7F1
S214002930A3880A2B7FF63DAF07484FF42661FEF7C3
S2140029405DFD36E7044840F6AF31FEF757FD2888B0
S21400295089E700BF00300E404CE8000080270020CA
S2140029600000C6438227002084270020372110B7A6
S21400297077402057032838B504460D461ED904284C
S21400298005D005281AD0A0F10803022B16D90D4849
S2140029907D21FEF733FD04EB4404240104F180445A
S2140029A004F52044FFF796FB23685D4005F001150B
S2140029B05D402560BDE83840FFF790BB35F0011359
S2140029C0E9D0E4E7C4E800002DE9F84F8A469DF810
S2140029D028909DF82C8093461D460446E8B10128B1
S2140029E000F0AD80022800F0B080032800F0AA8036
S2140029F0042800F09F80052800F0AA80831F012B82
S214002A0040F29880082800F0A680092800F0A580EB
S214002A100A2840F08F80072301E040F2FF3323FAB4
S214002A200AF3DB0740F186808AEA0B0333F00303E0
S214002A307BD1BBF1070F36D8494EFFF74BFB4FEA69
S214002A408B07D6F80024BC400F235440BB401C40E4
S214002A505440C6F80044FFF741FB0AF0030AFFF7AC
S214002A6039FBD6F808240AFA07FA03238AEA020A88
S214002A70BB4003EA0A035340C6F80834FFF72EFBB0
S214002A80384B37495B449B00012202FA0BF21D606B
S214002A90C3F88090C1F82424334B5B449B00C3F8F2
S214002AA00080BDE8F88F2E4FABF10806FFF712FB4B
S214002AB0B600D7F80424B4400F23B34054401C405B
S214002AC05440C7F80444FFF709FB0AF0030AFFF76F
S214002AD001FBD7F80C240AFA06FA03238AEA020A4C
S214002AE003FA06F606EA0A0A8AEA0202C7F80C247D
S214002AF0FFF7F4FABBF11F0FC2D91A4C1B485C440F
S214002B00A4009121FEF77AFC184825609121FEF773
S214002B1075FC012303FA0BF3C4F880901348C7F83A
S214002B2024349121FEF76AFCB6E71148C121FEF76E
S214002B3065FC7EE70E48BF21FEF760FC74E74FF6A3
S214002B40C0736CE74FF47F4369E740F6FF7366E7B0
S214002B504FF6FF7363E70F2361E74FF440435EE7EA
S214002B6000A0004080208510402185103CE9000030
S214002B70C4E800002DE9F0410D4616469846044686
S214002B80E8B1012800F0AE80022800F0EB800328B0
S214002B9000F0E580042800F09F80052800F01581ED
S214002BA0831F012B40F29880082800F01D81092819
S214002BB000F028810A2840F08F80072301E040F2C9
S214002BC0FF33EB40DF0740F187809EB3B8F1000F7C
S214002BD020D0002C00F08980012C00F0ED80022C23
S214002BE000F0FC80032C00F0E180042C00F0C9808B
S214002BF0052C00F00181A31F012B40F2C280082C97
S214002C0000F00981092C00F00E810A2C40F0B980F2
S214002C1007236CE0002C71D140F2FF33EB40D9075C
S214002C2040F1A9800122834BAA4004EB440109012C
S214002C300B441A6067003A19120102F18042072D10
S214002C4002F520423BD85368A9000F20884023EAAB
S214002C50000306FA01F10B43536076BBB8F1000F90
S214002C601CD0002C74D0012C00F0AC80022C00F09C
S214002C70AF80032C00F09180042C76D0052C00F059
S214002C80B580A31F012B70D9082C00F0C080092C3A
S214002C9000F0C6800A2C68D107235BE0002C42D1E6
S214002CA040F2FF33EB40DB0771D5624B3C44240116
S214002CB00121234401FA05F51D60BDE8F081A5F168
S214002CC0080391689B000F20984021EA000106FA4D
S214002CD003F30B439360C0E7574840F21D11FEF71D
S214002CE08DFB72E74FF6C0736BE740F2FF33EB40A5
S214002CF0D80746D50122514BAA4096E7012C5ED054
S214002D00022C6ED0032C4ED0042C34D0052C70D060
S214002D10A31F012B2FD9082C7BD0092C7DD00A2C81
S214002D2029D107237AE7012C43D0022C53D0032C59
S214002D3036D0042C2BD0052C61D0A31F012B26D90E
S214002D40082C62D0092C71D00A2C20D10723A9E7C1
S214002D5040F2FF33EB40DA0707D5384BA6E74FF4CF
S214002D607F432EE740F6FF732BE7354840F21341CA
S214002D70FEF744FBF1E732484FF47971FEF73EFB6D
S214002D8050E72F4840F21341FEF738FBB2E72C48D5
S214002D904FF47971FEF732FB87E74FF47F43D9E7AC
S214002DA04FF47F437EE74FF47F4337E74FF47F438C
S214002DB09DE74FF6C07375E74FF6C07397E74FF67B
S214002DC0C0732BE74FF6C073C4E74FF6FF73F8E601
S214002DD040F6FF73BEE740F6FF7363E740F6FF7307
S214002DE085E740F6FF7319E70F23EAE64FF6FF7311
S214002DF0B0E74FF6FF7311E74FF6FF7377E74FF62E
S214002E00FF734FE74FF44043DBE60F234AE70F23F9
S214002E10A0E70F2302E70F2369E74FF44043FDE6E0
S214002E204FF4404396E74FF4404360E74FF4404387
S214002E3038E700BF0CA00044C4E800000CA0004621
S214002E405CE60000022838B505460C4619D86279BB
S214002E501F2A1DD8A3786178A0799B0143EA8103D5
S214002E6021780B43E17843EA01132179043543EADC
S214002E70C1232D01094943EA404343EA02334B513B
S214002E8038BD07484C21FEF7B9FA62791F2AE1D906
S214002E9003484F21FEF7B2FA6279DBE700200440D0
S214002EA0B4E90000014B1860704700BF0000844280
S214002EB000B54278837890F804C0017890F803E073
S214002EC0002A14BF04220022002B43794FEA033362
S214002ED043EA0C2390F807C043EA010343EA0C4395
S214002EE0817943EA020314BF4FF0100C4FF0000C38
S214002EF0BEF1000F027A43EA0C0314BF2020002024
S214002F00002914BF4FF40041002103430B430AB1CC
S214002F1043F40033014A13605DF804FB00200440CC
S214002F20F8B5584B984204460D4600F08F8003F5DE
S214002F308063984225D003F58063984200F086802F
S214002F4003F5806398421CD04F484FF45671FEF745
S214002F5055FA40F22E414C48FEF750FA40F6AA6168
S214002F60E1600023494A236041F205016160A360E5
S214002F706361E364A26423666367A367E367A3658C
S214002F8014E040F6AA61E1600023404A236041F263
S214002F9005016160A3606361E364A26423666367FE
S214002FA0A367E3672365A3650023E365A97B2A8AF5
S214002FB0236842F00102002943EA020314BF4FF4DB
S214002FC0806100210B432A7D236023680AB143F009
S214002FD00053AA7C23601AB1EB7C43F08003A36500
S214002FE02B7BAF686E6843F48053636017B346B3B9
S214002FF0274B7F00013EB6FBF7F613EA06234FEA9F
S214003000062738D16B7B67610BB11023E3606B7DBD
S2140030101BB1236843F480332360AB7DEA7D1B0736
S214003020120503F0E04302F4E002134323662B7814
S214003030E360F8BD14484FF42271FEF7DFF9002E66
S214003040D6D11448FEF712FC0646D1E740F6AA6130
S214003050E16000230D4A236041F205016160A36030
S2140030606361E364A26423666367A367E367002380
S2140030702365A3659AE7044840F2A521FEF7BEF94A
S214003080C0E700BF000001402CEA0000F9FF010085
S214003090070080FF4041050003695B06FCD54163DD
S2140030A0704700BF70B50E4615461C4663B3224BEC
S2140030B0002E08BF1E46EDB1FFF714F8B3689A0756
S2140030C023F00301726818BF04310D440132D21A8E
S2140030D0EB1A9A421BD3194A194BB5606260002559
S2140030E04FF4E562C4E9022325700C46FFF700F8AA
S2140030F0204670BD1149134BE3604FF4D962C4E912
S214003100011208202070FEE700F026F8CFE70B4DEE
S21400311040F22273C4E901531626094BE360267079
S214003120FEF7E6FF074B267040F2D762C4E901526D
S214003130E3600024DCE700BF38100020A4EA0000AB
S21400314030EB000048EB0000024B00221A6004F04F
S214003150FFB800BF8C4B0020FEE700BF04F010B99C
S214003160014B1860704700BF8C4B002000B5124B17
S2140031701B78012B85B012D0684600F0ADF99DF89B
S2140031800010A1B96A46012000F070FC9DF800000E
S214003190003818BF0120404205B05DF804FBFEF77A
S2140031A0ABFF20B16FF0050005B05DF804FB4FF0F3
S2140031B0FF3005B05DF804FB3C50002000B585B03C
S2140031C0FEF79AFF80B90B4B1B78012B07D0684699
S2140031D000F0EAFC4FF0FF3005B05DF804FB4FF05E
S2140031E0FF3005B05DF804FB6FF0050005B05DF834
S2140031F004FB00BF3C500020704700BF2DE9F0479D
S21400320084B0FEF76FFF854E0546377802F066F904
S214003210402830707CD0DFF82C92DFF8148200EB68
S2140032204003402F59F82340C8F8004000F08C8037
S2140032307B4F3B68A34200F08E807A4B1B78ABBB7B
S2140032403178D4F8C030784A0133C4F8C0301368F7
S214003250402903F10103136062D03B68A34217D0F4
S214003260B3B104F08DF83B68D3F8C830984264D206
S21400327004F086F83A68D2F8C830DB431844D2F82F
S214003280CC30D8F80040C2F8C4000344C2F8CC30B2
S21400329004F076F8C4F8C80004F0D7F82846FEF71D
S2140032A027FFBFF36F8F04B0BDE8F087DFF888A173
S2140032B0DAF800305B6F002BC2D05C4803A905F03B
S2140032C075FB00286ED0DAF80030596F002961D1FE
S2140032D093F8333003EB43039C0009EB830359F860
S2140032E00420586882420BD0D2F810C0604561D0E6
S2140032F0CCF81410C2E90410026149F804C05A6000
S214003300317801EB410359F82340C8F8004098E7AC
S214003310454A47491368424F00200133086013604E
S21400332002F016FF3C681CB104F02AF8C4F8C80086
S21400333006F09AFDAFF30080AEE704F021F83A6895
S214003340D2F8C830C01A9AE702F00AFFAFF300803E
S214003350D8F800406CE7002003F08EF901281DD154
S214003360304C227882B1D8F80060776F57B3012AC4
S2140033700AD10023716F2F4A2C48CDE9003333461B
S21400338005F0CCF92C4B1E60284604B0BDE8F0478B
S214003390FEF7AEBE3178D8F8004052E7386804F041
S2140033A0E7F8DDE7DAF80030039A5A671F4805F0B9
S2140033B0E5F988E7C2E90410C0E9042149F80400E9
S2140033C05A609DE7012ADFD1D6F87090B9F1000F58
S2140033D015D11A4B1F6805F057FB194B1A68511E7A
S2140033E08C464946E7FB00C14B46604609F09EFA0C
S2140033F07067D8F80060002EC6D02278B7E705F0D0
S21400340043FB0F4B1A683B46511E0F461946E9FB15
S2140034100071384609F08AFA7067EAE7334D0020F3
S2140034204C5100204450002054510020FC4B0020FA
S2140034305051002049340000F84B00204050002036
S214003440D04B00203C4D00201D4B1B78012B00D09C
S214003450704770B50C46FEF745FE1A4B00251B68F4
S214003460656793F83330184C03EB43034FEA830C3D
S21400347004EB830354F80C2059688A4209D0166975
S214003480B14214D07561C2E904510A6144F80C6077
S2140034905A60FEF72DFE0D4B1B78012B00D0FEE781
S2140034A00B4B1B785BB9BDE87040FFF7A7BEC2E9BF
S2140034B00451C1E9042544F80C105A60E9E770BDD0
S2140034C044500020F84B00203C4D00203C5000208B
S2140034D03D50002000000000F8B50546002800F02A
S2140034E0B3805B4C626882B12068002800F09F8041
S2140034F0584B1860584B1860584B91001A60584A41
S214003500584B196013680B4413602289002A69D14E
S21400351062690AB32069002800F09381524B186054
S214003520E3684F4F5149DFF89CC102FB03F3A1FB50
S214003530031339689600314439604D4F4D49386061
S2140035404D485B0903604D4B1A604D4B1E60237E51
S2140035508CF80030E3690B60626A0AB3206A0028C0
S21400356058D0484B1860E3683D4F4049DFF858C1D3
S21400357002FB03F3A1FB031339689600314439605C
S2140035804149086041495B090B60414B1A60414B59
S214003590E26A1E60404B1A6094F828308CF80030BF
S2140035A03E4E636B336003F0C5FF05F07DF80446BE
S2140035B048B13B493B4BEB604FF4D772C5E901126B
S2140035C001202870F8BD05F05FFA336898427DD276
S2140035D03349344BEB604FF4D972C5E90112092028
S2140035E02870FEE72B46216B2F481201FFF75AFD85
S2140035F02E4B18602B78002BE4D12D4A23891060BF
S2140036002C4A19011380164A2B4B196013680B4479
S21400361013607DE72B46216B28489200FFF742FD9A
S214003620184B18602B78002BCCD1626A9BE72B4690
S214003630216B23489200FFF735FD064B18602B7868
S214003640002BBFD1626855E7FFF786FD49E700BF4C
S2140036504C100020944B0020984B00209C4B0020E0
S214003660904B0020A04B0020BC4B00201F85EB5148
S214003670C04B0020B84B0020C44B0020C84B002095
S214003680CC4B0020DC4B0020E04B0020E44B00201D
S214003690E84B0020EC4B0020D84B0020D04B0020FD
S2140036A0C4EB0000A0EC000078EB0000A44B002068
S2140036B0A84B0020AC4B0020B04B0020A8EB00002D
S2140036C064EB0000B44B0020D44B002005F0DCF97E
S2140036D03768B84240F0C5806D4B1C60B7F57A7FFE
S2140036E040F2BD8000233A460020012109F01EF971
S2140036F04FF47A7303FB00F0664B674A18600023AA
S2140037001370664A66491360664A0B601370664912
S214003710664A674E0B7028461370337003F05EF9E6
S214003720644B654AA3FB0013DB0813602978002965
S2140037307FF448AF614F3A68002A3CD0604B186867
S214003740002838D002F1FF3CBCF1050FC0F380031F
S214003750664640F29780002B00F09180064646F8B9
S214003760041BA2EB030EAEF102019FED477B490856
S21400377000EB830301310134A142A3EC027BFAD8AB
S214003780BEEB410F06EBC103ACEB410210D0561E58
S2140037900021196066B1022A596009D0032A99608F
S2140037A006D0042AD96003D0052A196118BF5961CA
S2140037B0396802F0AFFF434B00241C7001F086FE10
S2140037C0414B03F540721C81C3E900440C3393421D
S2140037D0F9D13E4B3E493F4A1B880C60148033B1FA
S2140037E0284601F073FA2B78002B7FF4EBAE3A49AB
S2140037F03A4A3B483B4C00230B8013803A493B4AED
S2140038000360284623600B60138002F065FF2B7868
S214003810002B7FF4D7AE284602F060FC2B78002BF6
S2140038207FF4D0AE284603F02BFD2B78002B7FF4D8
S214003830C9AE00F0E7FDFFF7DFFC2D4B01221A7042
S214003840F8BD2B46216B2B489200FFF72BFC2A4B2A
S21400385018602B78002B7FF4B5AE626960E6002016
S2140038604AE705F011F9234602460121002009F037
S2140038705DF83768064E07FB00F030602EE794468A
S21400388006466EE7034683E70000000000000000DF
S214003890F44B0020F04B00203D50002050510020FB
S2140038A04C510020334D0020324D00204450002063
S2140038B03C500020CDCCCCCC405000209C4B00206F
S2140038C0984B00205E5100203C4D0020AC4B002061
S2140038D0184D00201C4D0020304D0020384D002093
S2140038E0344D00202C4D0020485000204C50002025
S2140038F01E4D00208CEB0000BC4B0020054B1B78B7
S214003900012B00D0FEE7044B1B7803B17047FFF78E
S21400391075BC00BF3C5000203D50002070B50446EA
S214003920002839D0FEF7E8FB054648B11C491D4B78
S214003930E36040F21932C4E9011220202070FEE74D
S214003940194B1B78012B09D01549164BE360022052
S21400395040F21D322070C4E9011270BD134E337858
S214003960F92B09D90E490F4BE3601E2040F2223294
S2140039702070C4E9011270BDFEF7B4FB3378013342
S2140039803370FEF7B5FB0649064B257040F22D3224
S214003990C4E90112E36070BDFFF7DEFBC2E700BFBB
S2140039A0C4EB000094EC00003C5000203D5000208A
S2140039B070B50446002834D0FEF79EFB48B1274970
S2140039C0274BE36040F24532C4E901122020207004
S2140039D0FEE7244D2B78012B09D02049204BE360CD
S2140039E0022040F249322070C4E9011270BD1E4E1A
S2140039F033784BB919491A4BE3601F2040F24E3218
S214003A002070C4E9011270BDFEF76CFB3378013BF1
S214003A10DBB23370B3B9FEF76BFB2B78012B03D008
S214003A20FEE7FFF799FBC7E733780BB9FFF7E6FB2E
S214003A300A490B4BE36000204FF458722070C4E92B
S214003A40011270BDFEF754FB0449054BE3602D20C0
S214003A5040F256322070C4E9011270BDC4EB00007B
S214003A6084EC00003C5000203D5000202DE9F0433F
S214003A70064685B00D461446002A57D0404A414BAC
S214003A806260002140F27D32C4E902232170FEF715
S214003A9029FB07466DB13C4B012E1D6014D03B4BF5
S214003AA01A78012A45D0384605B0BDE8F043FEF73F
S214003AB01FBB204602F092FF354D334BA5FB002579
S214003AC0ED08012E1D60EAD1304C2378002BEAD198
S214003AD02670304ED6F80080B8F1000FE3D0D8F844
S214003AE07090B9F1000F3AD0039304F0CDFF2A4A44
S214003AF0039B1268511E0D461946E9FB00512846E5
S214003B0008F014FFC8F874003568002DCBD0237871
S214003B10012BC8D10023696F204A2148CDE9003324
S214003B202B4604F0FBFD1F4B1D60BCE7FFF714FBA4
S214003B30A4E71C4C1A482168002574311D7004F057
S214003B4035FF08B123685D67154804F017FE0023AB
S214003B503846236005B0BDE8F043FEF7C9BA04F066
S214003B6093FF0D4B1A68511E8C464946E5FB00C173
S214003B704B46604608F0DAFEC8F87400C4E700BF9B
S214003B80C4EB00006CEC00004050002044500020C5
S214003B90CDCCCCCC4C510020D04B0020493400007A
S214003BA0FC4B0020F84B002070B5044640B3284B71
S214003BB01D78012D09D02749274BE36040F2F632E5
S214003BC0C4E9011213202070FEE7244B1B88022B49
S214003BD00CD9234E3378B3B11E491F4BE36040F235
S214003BE00442C4E901121F202070FEE719491A4B4F
S214003BF0E36040F20142C4E9011209202070FEE7AA
S214003C00FFF7AAFAD3E7FEF781FA48B11149124B3B
S214003C10E36040F20742C4E901121F202070FEE76D
S214003C2001F05CFC0F4A104B107000EB40010F4A8D
S214003C3053F821300E4C0F49207035700B6013601E
S214003C4002F07EFA03F0C2FBBDE87040FFF784BACC
S214003C501E4D0020C4EB000064EC00005C51002008
S214003C603C500020334D00203C4D00204C5100209D
S214003C70324D00205051002008B501F02FFCA0F175
S214003C804000B0FA80F0400908BD00BF2DE9F041C1
S214003C90674F1646674A3C68127884F8301000234F
S214003CA082B0054684F83130002A3DD1002E44D13A
S214003CB0616994F83300022384F8323023690029BE
S214003CC05ED05D4A00EB400002EB80000289013ABC
S214003CD002810B61002B78D059610023C4E90433BC
S214003CE0204606F023FA002D61D03968AC68CD6214
S214003CF0002C79D02B8A91F8330001332B8223468F
S214003D0093F83320824262D85B6A002BF8D1EA68C7
S214003D10C1E909325162E960E3686A68C1F8EC20DB
S214003D20EB6102B0BDE8F081444A4548126853672B
S214003D3004F024FD3C68002EBAD004F0A5FE414BEA
S214003D401A684FF00008531E48F1FF31E6FB0031B9
S214003D501846434608F0EAFDCDE9008801463A4A8F
S214003D6004F15400234604F0D9FC002844D16169CC
S214003D7094F83300032384F8323023690029A0D155
S214003D80002B48D02C4E00EB400006EB800CBCF815
S214003D900820013AACF80820596146F82030002384
S214003DA0C4E90433204606F0C1F9002D9DD13B68D6
S214003DB093F83020DD62022A21D0072A25D0234A34
S214003DC0C3F8EC2002B0BDE8F081416085E79A6A4E
S214003DD022B1C1E90932516299629DE7C1E909320F
S214003DE00C469962A96097E701232B82C1E9094432
S214003DF0C5E902110C468FE7FFF7AEF9B7E7144A9C
S214003E00C3F8EC2002B0BDE8F081124AC3F8EC20FB
S214003E1002B0BDE8F08100EB4001074A42F82130CD
S214003E2002EB81021381536001F080FB55E700BF6F
S214003E304C510020445000203C4D0020F84B002000
S214003E40FC4B0020D04B0020F940000060EC000046
S214003E504CEC000054EC000010B4C46AA3685A6A24
S214003E60DAB1826AE2B1416A516259B38A62B4F841
S214003E7010C090F83310C4620022C0E90922A4F8EA
S214003E8010C093F833208A420ED85B6A002BF8D114
S214003E90E268C0E909325062E0605DF8044B7047A2
S214003EA0436A9A62A360E2E79A6A32B1C0E90932CD
S214003EB05DF8044B506298627047C0E90932986218
S214003EC0A060EAE7E260D2E70023C0E9003303819E
S214003ED0704700BFC36A7BB19A68526A6AB1D0E97C
S214003EE009126AB1516271B18A62198A00220139D7
S214003EF01982C0E90922C2627047C3E90222F4E7C8
S214003F008A629960F1E7DA60EFE700BF10B5044611
S214003F1090F8330001F0F2FA264A94F8333012781B
S214003F209A4217D003EB4303234A980002EB83031D
S214003F30115829B3B3F808C00CF1010CA3F808C057
S214003F400023C4E904134C6114502046BDE8104019
S214003F5006F0D4B802EB4202174B900003EB820245
S214003F601958D1B113895168002001331381C4E96F
S214003F7004010C6120465460BDE8104006F0BEB84F
S214003F804FF0010CA3F808C0C4E9041114505C609B
S214003F902046BDE8104006F0B1B84FF0010CA2F87C
S214003FA008C0C4E904111C5054602046BDE8104007
S214003FB006F0A4B8324D00203C4D002038B50C4623
S214003FC091F83210049D07291CD8A1F1020CBCF10F
S214003FD0050F16D8DFE80CF0030315151C1CA267A6
S214003FE0A4F87C306564002836D1424BC4F8EC3027
S214003FF0032966D02046FFF789FF002384F8323075
S214004000238638BDFF29FCD0BDE83840FFF7A4B8AA
S214004010A267A4F87C30656400283AD0E36A93B1BE
S2140040209A68526A002A5ED0D4E90952002A54D00F
S2140040305562002D5CD0AA621A8A013A1A820023C1
S214004040C4E90933E36283682A4AC4F8EC20002BEB
S2140040502CD0DB68C3611FE0E36A93B19A68526AAA
S214004060002A3DD0D4E90952002A33D05562002DEB
S2140040703CD0AA621A8A013A1A820023C4E909339C
S214004080E36283681B4AC4F8EC206BB1DB68C3614B
S214004090AEE7184BC4F8EC30072909D004220023F9
S2140040A084F83220238638BDC261A1E7C261F3E7F7
S2140040B004F1540004F062FB0028EFD0FFF74CF840
S2140040C0ECE704F1540004F059FB002892D0FFF707
S2140040D043F88FE7AA629D60CCE7AA629D60ABE7D3
S2140040E0C3E90222C6E7C3E90222A5E7DA60C1E710
S2140040F0DA60A1E760EC000070B50C46FDF7F2FF51
S21400410094F83230013B0546062B08D8DFE803F06A
S2140041106A070F0704070F00042384F83230284686
S214004120FDF7E6FF3C4B1B78012B57D0FEE794F8D3
S2140041303030042B04BFE36A5E6A4FF00003A367C7
S214004140A4F87C3018BF002603F01AF9E36A60640E
S21400415093B19A68526A002A56D0D4E90912002A06
S21400416055D05162002955D08A621A8A013A1A82BD
S2140041700023C4E90933E36294F83230032B3CD0C1
S214004180072B04BF042384F832304FF44073238691
S214004190002EC4D096F8333096F834209A42BED01B
S2140041A094F833209A42BAD1304601F04BF996F88B
S2140041B0343096F83320984228BF1846C1B28A4257
S2140041C0ADD0304602F0B2FA304605F0A9F896F8BF
S2140041D0332001462E2005F093FAA0E70F4B1B78FC
S2140041E03BB170BD002384F832302046FFF78EFEC8
S2140041F095E7BDE87040FFF701B82046FFF786FE5A
S214004200002384F83230C0E7C3E90222ADE78A62B1
S2140042109960AAE7DA60A8E73C5000203D500020ED
S21400422090F83330114A03EB43034FEA830C00B592
S21400423052F80C1002EB830369B1B3F808E00EF1F4
S214004240010EA3F808E00023C0E90413486142F811
S2140042500C005DF804FB4FF0010EA3F808E0C0E97F
S214004260041142F80C0058605DF804FB3C4D002039
S21400427090F83330104A03EB43034FEA830C10B434
S21400428052F80C1002EB830359B11A8959680024BE
S21400429001321A81C0E9044108615DF8044B586098
S2140042A0704701241C81C0E904115DF8044B42F8F4
S2140042B00C005860704700BF3C4D0020D0E900322B
S2140042C0934215D019698A420AD010B400244C6172
S2140042D0C3E9044213615DF8044BC0E9001370475C
S2140042E00021C3E90412C2E90431C0E90023704783
S2140042F0704700BF38B54169044690F8330023691B
S214004300A1B1184A00EB400002EB80000289013A96
S21400431002810B6143B159610023C4E9043320468E
S214004320BDE8384005F002BF4160F5E76BB10D4DC2
S21400433000EB400005EB800CBCF80820013AACF816
S2140043400820596145F82030E6E700EB4001054AB1
S21400435042F8213002EB81021381536001F0E6F847
S214004360DAE700BF3C4D002018B10A4B1B78012B42
S21400437000D0704710B5002382B00446416F064A4D
S2140043800648CDE90033234604F0C8F9044B1C6008
S21400439002B010BD4450002049340000FC4B002001
S2140043A0F84B0020C0B1144B1B78012B14D170B50C
S2140043B0056F04468DB9114B1E6804F065FB104B63
S2140043C01A682B46511E0D461946E6FB0051284634
S2140043D008F0ACFA606770BD704704F055FB084BF8
S2140043E01A680023511E0E461946E5FB006130464A
S2140043F008F09CFA606770BD4450002040500020D2
S214004400D04B0020774B784A1B78784982B0DBB2D5
S2140044108DF805301368764ADBB28DF807300B78D6
S2140044207449DBB28DF805301378734ADBB28DF829
S21400443005300B687149DBB28DF80730136A704A95
S214004440DBB28DF807300B786E49DBB28DF805309D
S21400445013786D4ADBB28DF805300B886B49DBB2FA
S2140044608DF8063013886A4ADBB28DF806300B7872
S2140044706849DBB28DF805301388674ADBB28DF8E1
S21400448006300B886549DBB28DF806301388644A1F
S214004490DBB28DF8063091F828306249DBB28DF831
S2140044A007301378604ADBB28DF805300B885F4919
S2140044B0DBB28DF8063013885D4ADBB28DF8063025
S2140044C00B885C49DBB28DF8063013885A4ADBB29B
S2140044D08DF806300B885949DBB28DF80630138804
S2140044E0574ADBB28DF806304B8D5649DBB28DF855
S2140044F007301378544ADBB28DF805300B885349E1
S214004500DBB28DF806301378514ADBB28DF80630F0
S2140045100B6A5049DBB28DF8073013784E4ADBB28F
S2140045208DF805300B884D49DBB28DF806301388C0
S2140045304B4ADBB28DF806300B684A49DBB28DF881
S21400454007301378484ADBB28DF806300B784749B7
S214004550DBB28DF805301378454ADBB28DF80530AE
S2140045600B784449DBB28DF805301378424ADBB24B
S2140045708DF805300B784149DBB28DF8053013789D
S2140045803F4ADBB28DF805300B883E49DBB28DF82A
S214004590063013783C4ADBB28DF805300B883B4971
S2140045A0DBB28DF806301388394ADBB28DF8063058
S2140045B00B783849DBB28DF805301388364ADBB203
S2140045C08DF806308B8CDBB28DF807301388DBB2A3
S2140045D08DF806309DF805309DF806309DF80730BA
S2140045E002B070478C100020881000208410002035
S2140045F0184C0020901000201C4C00209410002026
S214004600444C002096100020981000209A1000209D
S214004610A01000209C1000209E100020484C002077
S214004620A2100020A4100020A6100020A810002031
S214004630AA100020AC100020AE100020784C0020FD
S214004640B0100020B2100020BC100020A84C0020A3
S214004650BD100020BE100020B4100020B8100020AE
S214004660C2100020C0100020C1100020C61000207C
S214004670C7100020C9100020C8100020CA10002053
S214004680CC100020C4100020CE100020D010002037
S214004690D2100020D04C0020D41000202DE9F84382
S2140046A00646884617461C46002B47D0FDF724FDD5
S2140046B0054640B12349244BE3605522C4E9011264
S2140046C020202070FEE7002E2FD0FDF70BFD294698
S2140046D028228146304608F001FB1C4B33603762C7
S2140046E0C6F8048006F10800FFF7EEFB1849194BE0
S2140046F0F3610B687561B36103B15E6116480E60C5
S21400470003880133038042463146372005F056FDC4
S2140047104846FDF7EDFC0B490B4BE360002070228A
S2140047202070C4E90112BDE8F8830649064BE36031
S2140047305822C4E901120A202070FEE7FEF70CFD9D
S214004740B4E700BFA8EC000048ED0000464C414727
S214004750184D002060EC00001C4D00202DE9F04FA5
S21400476083B007460D9C894690461D46002C00F0F7
S21400477098802EB2002E37DA9D4B1B78012B0ED078
S2140047809C499D4B02204FF49F72C4E90112207091
S214004790E3604FF0000B584603B0BDE8F08F002FE3
S2140047A000F0828047F6FF632B405A1E012A0DD97F
S2140047B0042B0BD0082B09D08E498F4BE3604FF4A7
S2140047C0A372C4E9011208202070FEE78B4B3A68FA
S2140047D09A4224D08749884BE3604FF4AC72C4E910
S2140047E001120C202070FEE7FDF786FC48B18149D7
S2140047F0814BE36040F23512C4E90112202020709C
S214004800FEE7FDF783FC0028B6D07A497A4BE360D2
S21400481040F23912C4E901121F202070FEE705F4A9
S214004820807300930C9B13B11A4600231360FDF7A8
S21400483059FC05F00F0ABAF1040F034644D0BAF14A
S214004840080F3BD1396A11EA090B40F0B180002EFF
S214004850C0F201816A4991F800C0BCF1000F40F037
S214004860EE80684E019330684246C0F8A490A0F8E7
S214004870AC50C0F8A8C001213846FFF707FA019BE4
S2140048801846FDF735FCFFF739F8FDF72BFC3368C3
S21400489093F83120032A00F2F280DFE802F060503D
S2140048A0402DFEF759FC64E75249534BE36040F253
S2140048B04312C4E901120A202070FEE7FDF718FC37
S2140048C0504EFEF749FCDEE7396A39EA010201EA92
S2140048D0090B00F09980002EC0F2C980484A92F871
S2140048E000C0BCF1000FBCD0FDF702FC4149424BB2
S2140048F02D204FF4C27248E70C9B13B11A460023D2
S2140049001360FDF7F5FB3B493B4BE36040F2412269
S214004910C4E90112222020704FF0000B3BE70C9AEE
S2140049200AB15B6C1360FDF7E3FB3249324BE36080
S21400493031204FF41372C4E901122070ECE70C9A90
S2140049400AB15B6C1360FDF7D3FB2A492A4BE36080
S21400495021204FF40E72C4E901122070DCE70C9A95
S21400496012B111465A6C0A600022224E224D227065
S21400497040F22D226660E560A260D3F8A8B0009BE6
S2140049804BB9FDF7B5FB0023237040F26F23C4E953
S2140049900163E560FFE6BAF1040F24D0BAF1080F10
S2140049A021D00090FDF7A4FBFEF7D6FB0098E8E7C1
S2140049B0009A12B121EA0B0139621249096809B15D
S2140049C0C1F8A8B00C9A0AB1796A11601846FDF7CA
S2140049D08FFB00210748084B21704FF4D171C4E9C2
S2140049E00101E360D7E63B6A23EA0B033B62C8E7B4
S2140049F03C500020A8EC00003CED0000464C41472F
S214004A003D5000204C510020009A12B121EA0B01C3
S214004A1039622249096809B1C1F8A8B00C9A0AB1EE
S214004A20796A11601846FDF763FB00211C481D4B90
S214004A3021704FF4BB71C4E90101E360ABE6FDF7FA
S214004A4057FB2D211648174B21704FF4D871C4E937
S214004A500101E3609FE6FDF74BFB1D211048114B5B
S214004A60217040F2A911C4E90101E36093E6FDF765
S214004A703FFB0B490B4B1D2040F27D1285E6019053
S214004A80FDF736FBFEF768FB2378002B7FF444AF78
S214004A903368044D024E01986FE700BF4C5100206A
S214004AA0A8EC00003CED00002DE9F84F05468846CE
S214004AB092461C46002B3FD0804B1B78012B0CD017
S214004AC07F49804BE36040F23232C4E90112022093
S214004AD0207000252846BDE8F88FA5B1BAF1010F71
S214004AE02DD9BAF5004F18D048F201039A4500F0C8
S214004AF0B3807349734BE36040F23A32C4E9011263
S214004B0008202070FEE76E496E4BE36040F23732B5
S214004B10C4E901120A202070FEE76B4B2A689A420D
S214004B2000F0A6806649674BE3604FF45072C4E914
S214004B3001120C202070FEE7FEF70EFBBCE7624B6E
S214004B402A689A42EED102F01BFC0746FDF7CAFA25
S214004B500646BAF1000F00F091802B6A23EA08039C
S214004B602B62D5F808B06F62BBF1000F00F08B80A7
S214004B704FF00008D946DBF824B0B9F8AC3003F0A3
S214004B800F03042B45D0082B1ED03046FDF7B0FA95
S214004B90FEF7E2FABBF1000FECD13046FDF7A8FABB
S214004BA01AF4004F01D1FEF7A9FEFDF79BFA2D6A15
S214004BB0FDF79EFA00224249424B227040F2A33291
S214004BC0C4E90112E36085E72B6AD9F8A4100B400C
S214004BD0E0D0C9F8A83099F83230A9F83080C9F882
S214004BE04470072B66D8DFE803F00B0B04040B0BAE
S214004BF00F0F032B55D04846FFF788F989F8328007
S214004C004846FFF767F9C5E74FF0040389F83230E6
S214004C10F6E7D9F8A4102B6A31EA0303BAD199F85B
S214004C203230C9F8A810A9F83080C9F84470072BAC
S214004C3040D801A252F823F0014C0000014C0000BD
S214004C40F34B0000F34B0000014C0000014C000049
S214004C50094C0000094C00001B4B2A689A427FF45E
S214004C6061AF02F08DFB0746FDF73CFA064674E797
S214004C7002F086FB0746FDF735FA06462B6A43EA3E
S214004C8008032B626DE73046FDF732FA0C490D4BF0
S214004C9084F800B040F262322D6AE360C4E9011283
S214004CA018E709F1540003F069FD0028A3D0FEF7C9
S214004CB053FAA0E7FEF750FAA2E700BF3C500020E8
S214004CC0A8EC000030ED0000464C41471A4B1B4A4A
S214004CD0B3F800C0BCF1010F30B414682AD0ACF1B0
S214004CE0020189B2023104F1100304EB0111002223
S214004CF023F8082C43F8042C43E9043210338B4283
S214004D00F6D10CF1FF339BB204EB03130022C3E988
S214004D1000221A81DA600A4B0A4D1A81A3F804C0F1
S214004D20DA801C605D21084B0270C0E90151C36047
S214004D3030BC70472346E9E7AC4B0020A84B002068
S214004D40204D002058ED0000F4ED00004389C3B16B
S214004D500D4A0168B2F806C010B414680C60918859
S214004D6044681460ACEB030C1944A2F806C09180AA
S214004D700022C0E90022C0F80A205DF8044B18465D
S214004D8070471846704700BF204D00200023836000
S214004D90C0E90033C3600181704700BF8446408984
S214004DA010B558B3DCF80440B4F808E06068A1F821
S214004DB000E00AB1E16811602268CCF80420D2B1A4
S214004DC0BCF80A20013A92B2ACF80A20124A1168DE
S214004DD021609188146001319180D1880F4C01398F
S214004DE0D1804FF0000C0E4A83F800C0D421C3E9EE
S214004DF00141DA6010BDCCF80020E5E7088002B17A
S214004E0010600648064ADA600F24B921C3E901019A
S214004E101C70002010BD00BF204D002058ED000083
S214004E20E8ED00002DE9F04347890589089CBD425E
S214004E303DD92B4DAE887EB3B5F806C0B5F80880D0
S214004E4006F1FF3E0CF1010C2E681FFA8CFC994609
S214004E50E04533682B60A5F804E0A5F806C038BF27
S214004E60A5F808C06FBB0123C0E900664381376020
S214004E701F468389BB4238BF878100257160194869
S214004E8007993281F160184B25704FF49872C4E987
S214004E900102E360BDE8F0831249134BE360112082
S214004EA04FF482722070C4E90112BDE8F0830D4908
S214004EB00D4BE3601E20FF222070C4E90112BDE8FE
S214004EC0F08319F0100306D043683360466001375C
S214004ED0BFB24781CDE705682E6006603360F6E70F
S214004EE0204D002058ED0000DCED00002DE9F041DB
S214004EF005460F461446002A44D0FDF7FDF8064640
S214004F0040B12249224BE3605222C4E9011220201C
S214004F102070FEE76DB3FDF7E5F831463022804697
S214004F20284607F0DBFE1B4B2B606F6005F1080080
S214004F30FEF7CAFF1849194BEB610B686E61AB614F
S214004F4003B15D6116480D600388013303803A465D
S214004F502946292005F032F94046FDF7C9F80B49E5
S214004F600B4BE36000206C222070C4E90112BDE800
S214004F70F0810649064BE3605522C4E901120A2077
S214004F802070FEE7FEF7E8F8B7E700BF04EE000083
S214004F90A4EE00004D5554582C4D002060EC000047
S214004FA0304D00202DE9F04F83B005460C9C884616
S214004FB017461E46002C33D0FDF79EF848B1984998
S214004FC0984BE36040F23312C4E9011220202070AF
S214004FD0FEE7DDB16FB9944B2A689A423BD0904900
S214004FE0904BE36040F23D12C4E901120C202070A1
S214004FF0FEE7B7F5004F16D089498A4BE36040F2CA
S2140050003912C4E9011208202070FEE78449854B56
S214005010E3604FF49B72C4E901120A202070FEE799
S214005020FEF79AF8C8E7804B2A689A42D7D1DFF88D
S21400503008B27E4B93F80090B9F1010F10D0784972
S214005040784BE36040F24512C4E90112022020705A
S21400505003B0BDE8F08FFDF759F8B0BBBB46E8E7F4
S214005060FDF740F895F828300746002B4CD0DFF8BF
S214005070C4A1D5F82490DAF8002091452FD0BBF1D2
S214005080000F40F092806A4B1B78002B7ED192F87E
S214005090331099F833308B4200F2B0804246042138
S2140050A02846FEF7F3FD3846FDF722F8FEF726FC05
S2140050B0FDF718F8DAF8003093F83120032A00F2EA
S2140050C0AA80DFE802F08E8156455549554BE360CD
S2140050D04FF4A072C4E901121F202070FEE7FF2BD8
S2140050E02AD0013385F828300EB1EB6A3360384693
S2140050F0FCF7FEFF4A494B4BE360232040F269125F
S214005100C4E901122070A3E74A4B85F828901B6873
S2140051106B620EB1EA6A32609A6B2A6238469D6309
S214005120FCF7E6FF3E493F4BE36000204FF4AA72CF
S214005130C4E9011220708BE7FCF7DAFF3849394BD7
S214005140E3601E2040F25D12C4E9011220707FE782
S2140051500EB1002333602222314922704FF4DA72F6
S214005160C4E901122F4BE36003B0BDE8F04FFCF733
S214005170BFBF0EB15B6C336031222949294B2270C8
S2140051804FF4DF72C4E90112E360EDE7FCF7B0FF0D
S2140051900EB1C6F800B02249224BE3602D204FF432
S2140051A0C172C4E90112207052E7FCF7A1FF0EB1EC
S2140051B0002333601A491B4BE3601D204FF4BB727B
S2140051C0C4E90112207043E70EB15B6C3360212204
S2140051D01349144B22704FF4D572C4E90112E360F0
S2140051E0C2E70EB15B6C336000220D490D4B227096
S2140051F04FF4D072C4E90112E360B5E7484601F007
S21400520095FA484604F08CF899F8332001462D208C
S21400521004F076FA42E70190FDF79EFF0198A3E7B7
S21400522004EE000098EE00004D5554583C50002007
S2140052303D5000204C5100200080FFFF2DE9F04F2C
S214005240054683B00E461446002A42D0FCF754FFAB
S21400525048B17649764BE36040F25722C4E9011222
S21400526020202070FEE7D5B1C6F30E036BB9714B54
S2140052702A689A421DD06D496D4BE36040F2612268
S214005280C4E901120C202070FEE76849684BE36011
S21400529040F25D22C4E9011208202070FEE763494F
S2140052A0634BE36040F25A22C4E901120A202070E0
S2140052B0FEE7614B1B78012B0ED05C495C4BE3602C
S2140052C040F26522C4E901120220207003B0BDE856
S2140052D0F08FFDF741FFB9E7DFF864A1FCF702FFA6
S2140052E06A6ADAF800309A4280460BD0FCF700FF74
S2140052F04E494F4BE3601B204FF41B72C4E901126A
S2140053002070E3E702F03CF895F82830E862013BAD
S214005310DBB2814685F82830002B4ED1DAF8003013
S2140053209A6B954246D01146126A9542FBD12031BF
S214005330D5F808B0126A0A60BBF1000F4AD093F89D
S21400534033C093F83470BC4511D09A6B3F204AB1F5
S214005350916821B191F833E0704528BF7046126A13
S214005360002AF5D1874228BF0746BC4543D3012310
S21400537085F82830DBF838302B620023C5F824B0D7
S2140053801A46CBF8385059462846CDF80090FEF716
S21400539015FE4046FCF7ACFE330401D4FEF7AEFA29
S2140053A02249234BE360002040F2AD22C4E90112FB
S2140053B020708BE703F13801BAE74046FCF798FE09
S2140053C01A491B4BE360232040F27D22C4E90112F8
S2140053D020707BE74046C5F824B085F828B0FCF777
S2140053E087FE1248124B84F800B040F28A22C4E9C5
S2140053F00102E3606AE71846FEF77CFFDAF8000071
S21400540080F8337003F08CFF3A4601462E2004F0F5
S21400541077F9384600F072F8DAF80000FEF728FF51
S214005420064BD5F808B01F70A1E700BF04EE0000D9
S2140054308CEE00004D5554583C500020324D002054
S2140054404C510020836B3F2053B19A6822B192F8EA
S2140054503320904228BF10461B6A002BF5D17047B8
S214005460704700BF2DE9F041856B82B015B3064644
S21400547000F1380801272C462D6A01F081FFB36B36
S214005480E062A3421FD01A461B6AA342FBD1203219
S214005490A168236A136081B184F828708A6B0023A0
S2140054A0C4E908268C631A4600902046FEF786FD5F
S2140054B0002DE0D102B0BDE8F08184F828106162CA
S2140054C0002DD8D1F6E74246E2E700BF024B0020A7
S2140054D00021C3E900017047004D002008B5064BC7
S2140054E0186828B9586801F065FF2030C0B208BDBA
S2140054F001F060FFC0B208BD004D00201F2808D88C
S21400550009494FF000420B6822FA00F003430B6093
S2140055107047054AC0F13F005168012303FA00F0C6
S21400552008435060704700BF004D00201F280A49FE
S21400553008D80B684FF0004222FA00F023EA000376
S2140055400B6070474B68C0F13F00012202FA00F082
S21400555023EA00034B607047004D00202DE9F84316
S2140055600646884617461C466BB3FCF7C5FD05463F
S21400557040B13049304BE3605822C4E90112202084
S2140055802070FEE7B6B167B12C4B1B88BB421DD21C
S2140055902849294BE3606122C4E9011208202070E3
S2140055A0FEE72449244BE3605E22C4E9011208208A
S2140055B02070FEE71F49204BE3605B22C4E901121E
S2140055C00A202070FEE7FDF7C7FDCEE7FCF78AFD50
S2140055D0302229468146304607F080FB184B336060
S2140055E0394606F12000C6F80480FFF7CFFB06F127
S2140055F00800FEF769FC1349134BF3610B687561ED
S214005600B36103B15E6111480E6003880133038005
S21400561042463146332004F0D1FD4846FCF768FD8B
S2140056200449054BE360002078222070C4E901128B
S214005630BDE8F883B4EE000048EF0000AC4B002055
S21400564051554555344D002060EC0000384D002083
S2140056502DE9F04782B005460B9C884617461E4645
S214005660002C35D0FCF748FD48B18149814BE360FA
S21400567040F25D12C4E9011220202070FEE785B1D9
S2140056804EB3C7B97C4B2A689A4200F0B580784979
S214005690784BE3604FF4B572C4E901120C20207019
S2140056A0FEE77349734BE3604FF4B072C4E901122E
S2140056B00A202070FEE7B7F5004F16D06C496D4BF8
S2140056C0E3604FF4B372C4E9011208202070FEE7CD
S2140056D0FDF742FDC6E76649664BE36040F263129B
S2140056E0C4E901120A202070FEE7634B2A689A423A
S2140056F0CDD1DFF894A1614B1B78012B40F081805F
S2140057000A9B13B11A4600231360FCF7EBFC2346F2
S2140057100A9A8146314605F12000FFF73FFB2378C1
S2140057200746002B00F09080BAF1000F40F0908002
S214005730534B1B78002B79D1424605212846FEF7AD
S214005740A5FA4846FCF7D4FCFEF7D8F8FCF7CAFCE6
S2140057504C4B1B6893F83120032A00F28280DFE866
S21400576002F0392817020A9A0023338002B1136028
S21400577022223F4922704FF4DF72C4E901123D4BEA
S214005780E3600027FCF7B4FC384602B0BDE8F087BB
S214005790002232800A9A0AB15B6C136031223449C7
S2140057A0344B22704FF4E572C4E90112E36000271F
S2140057B0E8E7002232800A9A0AB15B6C1360212265
S2140057C02B492C4B22704FF4DA72C4E90112E360C5
S2140057D00027D7E7B3F87C209F6F32800A9A0AB179
S2140057E05B6C1360224A234B626000214FF4D47234
S2140057F0C4E902232170C5E7FCF788FC60B9BA4605
S21400580079E71B491B4B02204FF4B972C4E9011219
S2140058102070E3600027B7E71549164BE36040F2B7
S2140058206D12C4E901121F202070FEE74846FCF7FF
S2140058305FFC2D220E490F4B227040F28F12C4E9F6
S2140058400112E36057469FE74846FCF751FC9BE78A
S2140058504846FCF74DFC0649064B1D204FF4C47223
S214005860D4E7002737800190FDF776FC019889E79A
S214005870B4EE000040EF0000515545553C50002066
S2140058803D5000204C5100200080FFFF2DE9F04FD6
S21400589083B005460C9C884691461F46002C39D09E
S2140058A075B327F4047083B260B1B3F5004F09D026
S2140058B03A493B4BE36040F27522C4E901120820E6
S2140058C02070FEE7374B2A689A4209D03349344B9A
