:1000000000100020150C00005D0C00005D0C0000CD
:100010005D0C00005D0C00005D0C00005D0C00003C
:100020005D0C00005D0C00005D0C00005D0C00002C
:100030005D0C00005D0C00007B9200005D0C000078
:100040005D0C00005D0C00005D0C00005D0C00000C
:100050005D0C00005D0C00005D0C00005D0C0000FC
:100060005D0C00005D0C0000090400005D0C000048
:100070005D0C00005D0C00005D0C00005D0C0000DC
:100080005D0C00005D0C00001B0400005D0C000016
:100090005D0C00005D0C00005D0C00005D0C0000BC
:1000A0005D0C00005D0C00005D0C00005D0C0000AC
:1000B0005D0C00005D0C000031AF00005D0C000025
:1000C0005D0C00005D0C00005D0C00005D0C00008C
:1000D0005D0C00005D0C00005D0C00005D0C00007C
:1000E0005D0C00005D0C00005D0C00005D0C00006C
:1000F0005D0C00005D0C00005D0C00005D0C00005C
:100100005D0C00005D0C00005D0C000010B5054C9E
:10011000237833B9044B13B10448AFF300800123B3
:10012000237010BDA81C002000000000740B01000B
:1001300008B5034B1BB103490348AFF3008008BD6A
:1001400000000000AC1C0020740B0100A3F5803AF5
:10015000704700BF174B002B08BF134B9D46FFF79E
:10016000F5FF00218B460F461348144A121A0DF072
:1001700035FF0E4B002B00D098470D4B002B00D0C5
:1001800098470020002104000D000D48002802D0EF
:100190000C48AFF300800DF0E7FE2000290000F0CE
:1001A00045F90DF0CDFE00BF000008000000000082
:1001B000000000000010002040110020088C0020EA
:1001C0000000000000000000044B1B69034A23F0FC
:1001D0000403136130BF00BF704700BF00ED00E0B3
:1001E00000B58FB00AAB0893012307930023069351
:1001F000002305930A2304934FF480730393192378
:1002000002930B4B0193162300930023094A0A49DA
:100210000A4807F0BBFC9DF82830002B03D046218C
:10022000074801F0EFF800BF0FB05DF804FB00BF16
:10023000B41D002045020000ACF10000C41C0020E9
:10024000B8F1000000B585B0FFF7BEFF6B461A4657
:100250000021322008F074FBF6E708B500F088F8BA
:1002600000F014F80CF0A8FB0CF0DCFB0CF07AFDAD
:100270000DF0D8F80DF05EF90CF004FD0CF042FC26
:10028000FFF7AEFF0DF0A2F800BF08BD30B587B094
:10029000174B6C461D460FCD0FC495E8030084E84C
:1002A00003000121134801F06FFB0121124801F006
:1002B0006BFB0121114801F067FB01214FF48A40DB
:1002C00001F062FB0E4B0F4A1A600D4B4FF6FF72A6
:1002D000DA610B4B0C4A1A670C4B0D4A1A656B46D8
:1002E00019464FF0804001F031F800BF07B030BD33
:1002F000C4F10000404105000012040000A2040007
:10030000008401400000010A0100002A00600E4044
:100310000003100082B003468DF807309DF90730C6
:10032000002B0CDB9DF8073003F01F0205499DF9F7
:1003300007305B09012000FA02F241F8232000BFD8
:1003400002B0704700E100E082B00190034A019BD7
:10035000C2F8243400BF02B0704700BF00A00040C4
:10036000024BD3F81C341846704700BF00A0004071
:1003700000B583B04FF00111052003F05DFC0023B0
:1003800004220421052003F08DFD4FF0011105200A
:1003900003F052FC002304220521052003F082FD16
:1003A0004FF00111052003F047FC00230122062134
:1003B000052003F077FD4FF00111052003F03CFC10
:1003C000002301220721052003F06CFD0123019386
:1003D00001230093012306220621052003F07EFC61
:1003E0000123019301230093012307220721052004
:1003F00003F074FC0A20FFF78DFF1220FFF78AFF3D
:1004000000BF03B05DF804FB08B5FFF7A9FF034682
:100410001846FFF799FF00BF08BD08B5FFF7A0FF1A
:1004200003461846FFF790FF00BF08BD08B50AF065
:10043000CCFDFFF712FF0AF0D5FD0023184608BDDA
:1004400000BF704708B50421112001F03BFE0121D7
:10045000084801F099FA0221074801F033FE022111
:10046000064801F02FFE0221054801F02BFE002373
:10047000184608BD30253E0002001E000300200083
:1004800005002400024BDB6C1B0EDBB218467047E4
:10049000B081E00F00B583B01A4B01225A64FFF718
:1004A000F1FF03468DF807309DF80730002B0CD183
:1004B000154B4AF6E8521A60144B1B68134A43F076
:1004C00004031360104B00221A609DF80730012BC3
:1004D00005D80F4B1B680E4A43F4005313600D4BB5
:1004E0001B6A23F444130B4A43F4881313620A4B28
:1004F0001B68094A43F4F843136000BF03B05DF87A
:1005000004FB00BF00000E4090310E4098310E40B9
:1005100064310E4000400E40A4310E4008B5FFF794
:10052000B9FF09F009FF00F045F809F051FE09F0A4
:1005300083FE09F0BDFEFFF785FF09F05BFE00F0CA
:100540002DF80CF027F804F08BF804F0ADF800BF9C
:1005500008BD08B504F0D8F800BF08BD08B500F024
:100560000BF800BF08BD08B509F002FF00BF08BDC9
:1005700000BF704700BF704708B5024800F02EFC6E
:1005800000BF08BDDCF1000008B5012304220F21E3
:10059000032003F087FC0023184608BD08B501219D
:1005A000034801F0F1F9FFF74BFF00BF08BD00BFA2
:1005B00000350A0008B50121024801F0E5F900BF45
:1005C00008BD00BF00350A0030B58DB00390029120
:1005D0001346ADF80630224B05AC1D460FCD0FC4B7
:1005E00095E8030084E80300039B1B680B9301213B
:1005F0001C4801F0C9F9039B5B680121184601F012
:10060000C3F9039B187B039B5B7B194600230422E1
:1006100003F048FC039B187A039B5B7A194600237E
:10062000042203F03FFC029B0793BDF80630ADF8AF
:10063000243005AB19460B9803F008FE039B9B7B07
:100640001A02039B1B7C1B0613431A460B9B9A67DB
:100650000B9B0A225A67002318460DB030BD00BF1D
:10066000F4F1000000350A0000B589B00390029152
:100670000192029B0693039B1B680593002307933B
:100680000AE0069A079B13441B781946059803F065
:10069000CFFE079B01330793079A019B9A42F0D341
:1006A0000023184609B05DF804FB84B00190019B5B
:1006B0001B68039300BF039B1B6903F02003002BFF
:1006C000F9D000BF00BF04B0704784B00190009122
:1006D000019B03F1C0630393039B009A1A6000BF60
:1006E00004B0704784B001900091019B03F18063D6
:1006F0000393039B009A1A6000BF04B07047000088
:1007000000B583B0034600918DF807309DF807309F
:10071000002B42D09DF80730012B3BD09DF80730CD
:10072000022B34D09DF80730032B2DD09DF80730D5
:10073000042B27D09DF80730052B20D09DF80730DB
:10074000062B1AD09DF80730072B14D09DF80730E0
:10075000082B0ED09DF80730092B07D09DF80730E5
:100760000A2B01D107231AE0002318E04FF440437D
:1007700015E00F2313E0002311E000230FE04FF6F4
:10078000FF730CE000230AE04FF47F4307E040F6DC
:10079000FF7304E04FF6C07301E040F2FF33009AAC
:1007A000D34003F00103002B04D14FF479710D48BD
:1007B00000F028FE9DF8072013465B0013441B0140
:1007C0000C3303F1804303F520430121009A01FA21
:1007D00002F211461846FFF785FF00BF03B05DF82F
:1007E00004FB00BF0CF2000000B583B0034600918B
:1007F0008DF807309DF80730002B42D09DF8073068
:10080000012B3BD09DF80730022B34D09DF80730E8
:10081000032B2DD09DF80730042B27D09DF80730EF
:10082000052B20D09DF80730062B1AD09DF80730F5
:10083000072B14D09DF80730082B0ED09DF80730F9
:10084000092B07D09DF807300A2B01D107231AE0A6
:10085000002318E04FF4404315E00F2313E000237A
:1008600011E000230FE04FF6FF730CE000230AE0D5
:100870004FF47F4307E040F6FF7304E04FF6C07388
:1008800001E040F2FF33009AD34003F00103002B54
:1008900004D140F213410D4800F0B4FD9DF807204B
:1008A00013465B0013441B010C3303F1804303F533
:1008B00020430121009A01FA02F211461846FFF77F
:1008C00004FF00BF03B05DF804FB00BF0CF20000A2
:1008D00000B583B0034600918DF807309DF80730CE
:1008E000002B42D09DF80730012B3BD09DF80730FC
:1008F000022B34D09DF80730032B2DD09DF8073004
:10090000042B27D09DF80730052B20D09DF8073009
:10091000062B1AD09DF80730072B14D09DF807300E
:10092000082B0ED09DF80730092B07D09DF8073013
:100930000A2B01D107231AE0002318E04FF44043AB
:1009400015E00F2313E0002311E000230FE04FF622
:10095000FF730CE000230AE04FF47F4307E040F60A
:10096000FF7304E04FF6C07301E040F2FF33009ADA
:10097000D34003F00103002B04D140F22E410A487A
:1009800000F040FD09489DF807200121009B994097
:1009900013465B0013441B0103441833196000BF66
:1009A00003B05DF804FB00BF0CF2000000A00040A3
:1009B00010B582B001900121144800F0E5FF019BC1
:1009C0009B68002219461248FFF7FEFD002304220F
:1009D0000E21032003F066FA002304220D210320D8
:1009E00003F060FA0B4A019B14460FCB84E80F001A
:1009F000094B01221A700121019800F00FF80198AB
:100A000000F03AF80023184602B010BD00350A0085
:100A100004100020D0210020E021002000B587B084
:100A200003900B468DF80B30002305939DF80B3097
:100A3000002B14D009F018FE0490039B1B7B5B0075
:100A40001A46049BB3FBF2F10123019300230093A8
:100A50000023074A074809F008FD059003E0054810
:100A600009F024FD0590059B184607B05DF804FBCE
:100A7000D90B0000B421002000B585B001900E21F3
:100A80000320FFF7B1FE019B5B7B18460AF0B0FA2A
:100A90000423ADF80E300DF10E03022219460A4868
:100AA000FFF7E2FD0848FFF700FE019B9B7B18461D
:100AB0000AF09EFA0E210320FFF722FE00231846BB
:100AC00005B05DF804FB00BF0410002000B589B03C
:100AD0000390029101920093029B0693039B1B8853
:100AE0001A46039B1B7902FB03F3002B00DA073342
:100AF000DB100593019B013301930E210320FFF7C7
:100B000073FE039B5B7B18460AF072FA019B9BB253
:100B10001B029BB243F001039BB2ADF812300DF102
:100B20001203022219462448FFF79EFD0023079373
:100B30002CE0059B1A4606991F48FFF795FD059B7B
:100B4000069A13440693009B013B079A9A4204D1EC
:100B50004FF6FF73ADF812300EE0019B9AB2079B7F
:100B60009BB213449BB201339BB21B029BB243F076
:100B7000FF039BB2ADF812300DF1120302221946A9
:100B80000D48FFF771FD079B01330793079A009B00
:100B90009A42CED30848FFF788FD039B9B7B1846FB
:100BA0000AF026FA0E210320FFF7AAFD00231846BB
:100BB00009B05DF804FB00BF04100020044B1B7853
:100BC000002B01D0034B00E000231846704700BF04
:100BD000E0210020D021002000B583B001900091D9
:100BE0000D210320FFF774FE00BF03B05DF804FB86
:100BF00010B584B0064B6C460FCB84E80F006B46F3
:100C00001846FFF7D5FE0346184604B010BD00BFD6
:100C100084F2000000B585B000F0A2F80C4B0393FD
:100C20000C4B02930B4B01930B4B00930AE0039A7E
:100C3000131D0393029B191D029112681A60019BF8
:100C400004330193019A009B9A42F0D3FFF782FA92
:100C50007C0B01000010002040110020FEE7000086
:100C600000B583B000F020F801900A4BD3F80831AA
:100C70001B0AC3F308030093009B0133019AB2FBE4
:100C8000F3F30193044A019B1360019B184603B0E0
:100C90005DF804FB00400E4020100020014B184678
:100CA000704700BF005A620282B01A4BD3F89430EA
:100CB00003F00703023B032B1BD801A252F823F0D9
:100CC000E10C0000D90C0000D10C0000E90C000080
:100CD000114B1B68019310E04FF4004301930CE0AB
:100CE0000E4B1B68019308E00D4B1B685B080193DA
:100CF00003E00B4B1B68019300BF064BD3F8003198
:100D00001B0A03F01F030133019AB2FBF3F31846E9
:100D100002B0704700400E401C1000201810002048
:100D200024100020014B1B68184670471810002043
:100D300000B583B00190084A019B1360074BD3F8BC
:100D4000943003F00703022B01D1FFF789FF00BFA6
:100D500003B05DF804FB00BF1810002000400E40F7
:100D6000064B074A9A60054BD3F88830034A43F490
:100D70007003C2F8883000BF704700BF00ED00E08C
:100D8000000000004FF40043184670474FF47A7398
:100D900018467047014B1B68184670471C1000200E
:100DA00084B001900B4B1A68019B13440A4A93428A
:100DB00002D94FF0FF3309E0064B1B680393054B44
:100DC0001A68019B1344034A1360039B184604B03E
:100DD000704700BF281000200000042000B583B039
:100DE0000190019B5B68019A126810469847034680
:100DF000184603B05DF804FB84B001900091019B9C
:100E000003F1424303F58013DA00009B13449B0077
:100E10000393039B1B68184604B0704784B001908D
:100E20000091019B03F1C0630393039B009A1A6036
:100E300000BF04B0704784B001900091019B03F1A2
:100E400080630393039B009A1A6000BF04B070474D
:100E500000B583B0034600918DF807309DF8073048
:100E6000002B42D09DF80730012B3BD09DF8073076
:100E7000022B34D09DF80730032B2DD09DF807307E
:100E8000042B27D09DF80730052B20D09DF8073084
:100E9000062B1AD09DF80730072B14D09DF8073089
:100EA000082B0ED09DF80730092B07D09DF807308E
:100EB0000A2B01D107231AE0002318E04FF4404326
:100EC00015E00F2313E0002311E000230FE04FF69D
:100ED000FF730CE000230AE04FF47F4307E040F685
:100EE000FF7304E04FF6C07301E040F2FF33009A55
:100EF000D34003F00103002B04D14FF479710D4866
:100F000000F080FA9DF8072013465B0013441B0194
:100F10000C3303F1804303F520430121009A01FAC9
:100F200002F211461846FFF786FF00BF03B05DF8D6
:100F300004FB00BF94F2000000B583B003460091AB
:100F40008DF807309DF80730002B42D09DF8073010
:100F5000012B3BD09DF80730022B34D09DF8073091
:100F6000032B2DD09DF80730042B27D09DF8073098
:100F7000052B20D09DF80730062B1AD09DF807309E
:100F8000072B14D09DF80730082B0ED09DF80730A2
:100F9000092B07D09DF807300A2B01D107231AE04F
:100FA000002318E04FF4404315E00F2313E0002323
:100FB00011E000230FE04FF6FF730CE000230AE07E
:100FC0004FF47F4307E040F6FF7304E04FF6C07331
:100FD00001E040F2FF33009AD34003F00103002BFD
:100FE00004D140F2FE310B4800F00CFA9DF80720C6
:100FF00013465B0013441B010C3303F1804303F5DC
:10100000204300991846FFF7F7FE0346184603B041
:101010005DF804FB94F2000000B583B00346009134
:101020008DF807309DF80730002B42D09DF807302F
:10103000012B3BD09DF80730022B34D09DF80730B0
:10104000032B2DD09DF80730042B27D09DF80730B7
:10105000052B20D09DF80730062B1AD09DF80730BD
:10106000072B14D09DF80730082B0ED09DF80730C1
:10107000092B07D09DF807300A2B01D107231AE06E
:10108000002318E04FF4404315E00F2313E0002342
:1010900011E000230FE04FF6FF730CE000230AE09D
:1010A0004FF47F4307E040F6FF7304E04FF6C07350
:1010B00001E040F2FF33009AD34003F00103002B1C
:1010C00004D140F213410D4800F09CF99DF807202F
:1010D00013465B0013441B010C3303F1804303F5FB
:1010E00020430121009A01FA02F211461846FFF747
:1010F00095FE00BF03B05DF804FB00BF94F2000052
:1011000000B583B0034600918DF807309DF8073095
:10111000002B42D09DF80730012B3BD09DF80730C3
:10112000022B34D09DF80730032B2DD09DF80730CB
:10113000042B27D09DF80730052B20D09DF80730D1
:10114000062B1AD09DF80730072B14D09DF80730D6
:10115000082B0ED09DF80730092B07D09DF80730DB
:101160000A2B01D107231AE0002318E04FF4404373
:1011700015E00F2313E0002311E000230FE04FF6EA
:10118000FF730CE000230AE04FF47F4307E040F6D2
:10119000FF7304E04FF6C07301E040F2FF33009AA2
:1011A000D34003F00103002B04D140F22E410A4842
:1011B00000F028F909489DF807200121009B99407B
:1011C00013465B0013441B0103441833196000BF2E
:1011D00003B05DF804FB00BF94F2000000A00040E3
:1011E00000B585B00190019B039301210D4800F0EB
:1011F000CBFB01210C4800F0C7FB039B1878039B35
:101200005B781946039B9B78002B0CBF01230023BE
:10121000DBB2042202F046FE0023184605B05DF85A
:1012200004FB00BF4041050000350A0000B585B051
:101230000190019B0393039B9B78002B08D1039B98
:101240001A78039B5B7819461046FFF701FE07E00A
:10125000039B1A78039B5B7819461046FFF7DCFE68
:1012600000BF05B05DF804FB00B585B00190019B9F
:101270000393039B9B78002B08D1039B1A78039B55
:101280005B7819461046FFF7C7FE07E0039B1A7804
:10129000039B5B7819461046FFF7DAFD00BF05B0E7
:1012A0005DF804FB00B585B00190019B0393039B9F
:1012B0001A78039B5B7819461046FFF721FF00BFA1
:1012C00005B05DF804FB00B585B00190019B039368
:1012D000039B1A78039B5B7819461046FFF72CFE98
:1012E00003468DF80B30039B9B78002B07D19DF8AC
:1012F0000B30002B0CBF01230023DBB201E09DF873
:101300000B30184605B05DF804FB000000B587B04F
:10131000039002910192029B1F2B03D991210A484D
:1013200000F070F8039B03F1424303F58013DA00E9
:10133000029B13449B000593059B019A1A6000BF12
:1013400007B05DF804FB00BF0CF3000000B583B0EC
:1013500001900091019BB3F1804F07D0019B274A78
:10136000934203D0A221264800F04CF8009B1B6951
:101370003F2B03D9B621224800F044F8009BDB68DC
:101380003F2B03D9B7211E4800F03CF8009B5B6857
:101390003F2B03D9B8211A4800F034F8009B1B7882
:1013A000DB071A46009B5B681B06134343F40042AD
:1013B000019B1A60009BDB681B04009A127A1A4397
:1013C000019B9A62009B1B691B04009A527A1A4384
:1013D000019BDA62009B9B7A1B0743F0806343F416
:1013E0007D43019A53600198009B1B7D1A460021A2
:1013F000FFF78CFF00BF03B05DF804FB0004004062
:1014000084F3000082B001900091FEE700B583B044
:101410000190019B1F2B04D940F22F110548FFF7C3
:10142000F1FF0122019B02FA03F3184603B05DF8B5
:1014300004FB00BFFCF3000000B587B003900291ED
:101440000192029B1F2B03D991210A48FFF7DAFF73
:10145000039B03F1424303F58013DA00029B13441C
:101460009B000593059B019A1A6000BF07B05DF8C9
:1014700004FB00BF78F4000084B001900091019B50
:1014800003F1424303F58013DA00009B13449B00F1
:101490000393039B1B68184604B07047054B1B68F9
:1014A00003F04003002B01D1012300E00023184684
:1014B000704700BF3C300E4008B5FFF7EFFF034612
:1014C00083F00103DBB2002B08D100BF12210448D6
:1014D000FFF7D2FF0346002BF8D100E000BF08BDA4
:1014E00004300E4008B5FFF7E7FF044B5B681B0CA8
:1014F00003F00303DBB2184608BD00BF00300E4006
:1015000000B585B0019001230393019B124A9342D9
:1015100004D8002303930023029308E0019B0F4AA1
:10152000934202D80123029301E002230293039A1B
:1015300010210B48FFF780FF094BD3F8003123F04F
:101540008072029B1B0606491343C1F8003100BF9D
:1015500005B05DF804FB00BF0048E8010090D0032F
:1015600000400E4082B0034B1B680193019B18465C
:1015700002B070472C10002000B583B0FFF794FB39
:101580000190074BD3F800311B0A03F01F0301330E
:10159000019A02FB03F3184603B05DF804FB00BF99
:1015A00000400E4000B583B0104800F081FC0346B7
:1015B0008DF803309DF80330072B05D0092B07D198
:1015C000FFF772FB01900BE0FFF7CCFF019007E003
:1015D0000023019341F2FC210548FFF713FF00BFF0
:1015E000019B184603B05DF804FB00BF06000E0027
:1015F00068F5000000B585B00190019B002B1FD15C
:10160000214800F055FC03468DF80B3000BF9DF8D3
:101610000B30013B072B29D801A252F823F000BF61
:101620004F1600006D1600006D1600005D160000DC
:101630006D1600006D1600005516000065160000BE
:1016400041F21C311148FFF7DDFE002317E00023B3
:10165000039313E0FFF786FF03900FE0FFF762FBB1
:1016600003900BE0FFF788FF039007E0002303934C
:1016700041F233310548FFF7C5FE00BF039B184612
:1016800005B05DF804FB00BFB800320068F500004B
:1016900000B585B0019000911F4B5B6803F040736B
:1016A00003930023029312E01C4A029BDB001344C5
:1016B0001A79009BDBB29A4206D1184A029B52F873
:1016C0003330019A9A4206D9029B01330293029B5E
:1016D000042BE9D900E000BF029B052B07D10323AF
:1016E000039341F23A410E48FFF78CFE05E00B4AA6
:1016F000029BDB0013445B790393039B1B0603935C
:10170000054B5B6823F040720349039B13434B6016
:1017100000BF05B05DF804FB00000E40E0F50000DE
:1017200068F5000000B583B00E4B1B6C002B14BF96
:10173000012300238DF807300A4B41F671321A64F9
:10174000FFF7ACFA034600211846FFF7A1FF9DF80A
:101750000730002B02D0034B00221A6400BF03B0F5
:101760005DF804FB00000E4000B585B001900091CB
:101770000D4B1B6C002B14BF012300238DF80F3081
:10178000094B41F671321A6400990198FFF780FF06
:101790009DF80F30002B02D0034B00221A6400BFCB
:1017A00005B05DF804FB00BF00000E4086B001905C
:1017B0000F230593019B03330493059B0393039A23
:1017C000049B934228BF13460293029B1B0702937C
:1017D000029B184606B07047034B5B6A1B0903F077
:1017E00003031846704700BF00400E4082B00190CE
:1017F000054B5B6A23F03002019B1B010249134336
:101800004B6200BF02B0704700400E4010B584B07C
:10181000019000230293019B424A934211D0019B05
:10182000404A934207D8019B3F4A934209D0019B0B
:101830003E4A934205D041F23A513D48FFF7E2FD5E
:1018400000E000BF019800F033FB03460393019BC7
:10185000344A93421AD0019B324A93421DD8019BCD
:10186000314A934204D0019B304A934207D014E09E
:10187000304BD3F8803003F00703039313E02D4B74
:10188000D3F8843003F0070303930CE0294BD3F81B
:10189000883003F00703039305E041F269512448BF
:1018A000FFF7B0FD00BF039B042B2ED801A252F816
:1018B00023F000BF05190000C9180000D11800006E
:1018C000E1180000D9180000FFF75CFA029024E04C
:1018D000FFF760FA029020E0FFF758FA02901CE050
:1018E000FFF7E2F90446134BD3F800311B0E03F067
:1018F000010301331846FFF789FD0346B4FBF3F3F8
:1019000002930AE00023029307E00023029341F2CE
:10191000BB510748FFF776FD00BF029B184604B095
:1019200010BD00BF0500240002001E0003002000BF
:1019300068F5000000400E4082B00190094BD3F8DA
:10194000443103F00103002B08D100BF054BD3F84D
:101950004021019B1340002BF8D100E000BF02B0F2
:10196000704700BF00400E4000BF704700BF704787
:1019700000B583B00190019800F0BAF90346013335
:10198000184603B05DF804FB00B587B001900B4624
:101990008DF8033000230493019B1B0A03F00F030F
:1019A000013B092B32D801A252F823F0D5190000CF
:1019B000E11900000D1A00000D1A0000DB190000EB
:1019C000E7190000F11900000D1A0000FB190000D2
:1019D000071A00001B4B05931EE01B4B05931BE0F1
:1019E0001A4B059318E01A4B05930123049313E057
:1019F000184B0593102304930EE0174B05934FF4F7
:101A00008033049308E0154B059305E041F6D711A8
:101A10001348FFF7F7FC11E0019B1B0B03F01F03BA
:101A20000393049B002B02D00498FFF785FF9DF8D9
:101A300003301A4603990598FFF7FEFC07B05DF8DE
:101A400004FB00BF00400E40B0400E40C0400E40BE
:101A5000E0400E40E8400E40F0400E4050410E4045
:101A600068F5000010B584B00190019B03F4781371
:101A7000B3F5781F00F01B81B3F5781F00F22281C7
:101A8000B3F5481F00F00E81B3F5481F00F21A812C
:101A9000B3F5401F00F0E580B3F5401F00F212815E
:101AA000B3F5381F00F0B680B3F5381F00F20A8195
:101AB000B3F5101F00F0E980B3F5101F00F20281AA
:101AC000B3F5001F00F0B580B3F5001F00F2FA80F7
:101AD000B3F5F01F79D0B3F5F01F00F2F380B3F542
:101AE000D01F00F0AB80B3F5D01F00F2EB80B3F550
:101AF000B01F7DD0B3F5B01F00F2E480B3F5A01F96
:101B000068D0B3F5A01F00F2DD80B3F5801F00F0B0
:101B1000C580B3F5801F00F2D580B3F5602F00F0CB
:101B2000B980B3F5602F00F2CD80B3F5402F3DD0E2
:101B3000B3F5402F00F2C680B3F5202F23D0B3F5C4
:101B4000202F00F2BF80B3F5802F0DD0B3F5802F8A
:101B500000F2B880002B03D0B3F5003F17D0B1E0FE
:101B6000FFF7A2F80390B5E0FFF79EF803905B4BF8
:101B7000D3F80C311B0AC3F308030133039AB2FBF9
:101B8000F3F30393A6E0FFF78FF80390A2E0FFF7CB
:101B90008BF80390514BD3F808311B0AC3F30803A9
:101BA0000133039AB2FBF3F3039393E0FFF77CF85E
:101BB00003904A4BD3F814311B0A03F01F0301337F
:101BC000039AB2FBF3F3039384E04548FFF71EFE4C
:101BD00003907FE04348FFF719FE03903F4BD3F893
:101BE000303103F00303039A22FA03F3039371E005
:101BF0003B48FFF70BFE0390384BD3F8203103F03E
:101C00000F031846FFF702FC0246039BB3FBF2F3F7
:101C100003935FE03248FFF7F9FD03902F4BD3F8B1
:101C200020311B0903F00303039A22FA03F3039301
:101C300050E02D48FFF7EAFD03904BE02A48FFF7FC
:101C4000E5FD0390254BD3F828311B0903F003036E
:101C50001846FFF7DBFB0246039BB3FBF2F303934B
:101C600038E02148FFF7D2FD03901C4BD3F8283110
:101C70001B0A03F0030304331846FFF7C7FB0246B1
:101C8000039BB3FBF2F3039324E01648FFF7BEFD7A
:101C900003901FE0FFF786FC03901BE0FFF762FC58
:101CA000039017E00020FFF7A5FC039012E0FEF779
:101CB000FBFF04460198FFF75BFE0346B4FBF3F31A
:101CC000039307E00023039341F607310748FFF72A
:101CD00099FB00BF039B184604B010BD00400E40A6
:101CE00002001E00050024000300200068F500002B
:101CF00000B585B00190019B1B0903F00F0302930F
:101D0000029B013B092B00F2B88001A252F823F09C
:101D1000391D0000491D0000591D0000791D0000FB
:101D20007B1E00007B1E0000891D0000991D000025
:101D3000F31D0000531E0000564BD3F800311B0A60
:101D400003F01F030393A0E0524BD3F814311B0A96
:101D500003F01F03039398E04E4BD3F800311B0EA2
:101D600003F001030393039B01331846FFF74EFB77
:101D70000346013B039388E0464BD3F80C311B0A22
:101D8000C3F30803039380E0424BD3F808311B0AE6
:101D9000C3F30803039378E0019B3F4A934204D0C6
:101DA000019B3E4A93420DD01AE03A4BD3F82031C2
:101DB00003F00F0303930398FFF728FB0346013B4F
:101DC000039315E0334BD3F820311B0903F00303D1
:101DD00003930398FFF71AFB0346013B039307E0C5
:101DE0000023039341F67B312D48FFF70BFB00BF27
:101DF0004BE0019B2B4A934204D0019B2A4A934219
:101E00000ED01DE0234BD3F828311B0903F0030348
:101E100003930398FFF7FAFA0346013B039317E095
:101E20001C4BD3F828311B0A03F003030393039BD5
:101E300004331846FFF7EAFA0346013B039307E031
:101E40000023039341F69F311548FFF7DBFA00BFEB
:101E50001BE0019B154A934206D10E4BD3F830315B
:101E600003F00303039307E00023039341F6AE312D
:101E70000B48FFF7C7FA00BF07E00023039341F6C2
:101E8000D3310748FFF7BEFA00BF039B184605B0E1
:101E90005DF804FB00400E408006160080162E0000
:101EA00068F5000090171A0090273000A009140070
:101EB00000B585B0019001238DF80F30019B03F030
:101EC0000F030293029B013B072B00F2E78001A264
:101ED00052F823F0F51E0000571F0000951F000068
:101EE0009D200000E71F0000252000009D2000002D
:101EF0004F200000714BD3F8943003F00703023BEE
:101F0000052B23D801A252F823F000BF351F000093
:101F10002D1F0000251F00003D1F00004D1F000069
:101F2000451F000002238DF80F3013E003238DF8C6
:101F30000F300FE004238DF80F300BE00B238DF8EA
:101F40000F3007E00C238DF80F3003E005238DF8E8
:101F50000F3000BFABE0594BD3F8803003F00703DC
:101F6000042B0ED0042B10D8012B02D0022B04D04E
:101F70000BE003238DF80F300BE002238DF80F30B8
:101F800007E00A238DF80F3003E001238DF80F30AE
:101F900000BF8CE0494BD3F8843003F00703013BCA
:101FA000032B1BD801A252F823F000BFBD1F000075
:101FB000C51F0000D51F0000CD1F000003238DF8B2
:101FC0000F300FE002238DF80F300BE00A238DF85D
:101FD0000F3007E006238DF80F3003E001238DF862
:101FE0000F3000BF63E0354BD3F8883003F00703B0
:101FF000042B0ED0042B10D8012B02D0022B04D0BE
:102000000BE003238DF80F300BE002238DF80F3027
:1020100007E00A238DF80F3003E001238DF80F301D
:1020200000BF44E0254B1B6F03F00103002B05D0DC
:10203000012B07D109238DF80F3007E007238DF816
:102040000F3003E001238DF80F3000BF2FE01B4B52
:10205000D3F85C3103F03003302B16D0302B18D876
:10206000202B0ED0202B14D8002B02D0102B04D004
:102070000FE001238DF80F300FE007238DF80F30AC
:102080000BE004238DF80F3007E008238DF80F30A4
:1020900003E001238DF80F3000BF08E000238DF826
:1020A0000F3041F627710648FFF7ACF900BF9DF8E5
:1020B0000F30184605B05DF804FB00BF00400E402D
:1020C00068F5000000B58BB001900B468DF8033029
:1020D0000323099303238DF8233000230693002361
:1020E0000593019B112B1BD19DF80330042B03D1C9
:1020F000FEF718FE05900CE09DF80330052B08D183
:1021000000F08CF90346BD4A934202D900F086F9EB
:102110000590059B002B03D00021059800F0A2FD3F
:10212000019B03F00F030493049B013B072B00F278
:102130005B8101A252F823F05921000063220000C4
:1021400099220000E9230000792200003D230000CD
:10215000E9230000692300009DF80330023B0A2BAD
:1021600048D801A252F823F095210000A1210000D7
:10217000AD210000BF210000F5210000F521000085
:10218000F5210000F5210000E9210000D121000027
:10219000DD2100000423099300238DF823302FE074
:1021A0000323099301238DF8233029E002230993A7
:1021B00002238DF823309248FFF7A2F920E0012393
:1021C000099303238DF823308D48FFF799F917E021
:1021D0000523099303238DF8233011E00723099386
:1021E00006238DF823300BE041F6E8718548FFF7B0
:1021F00009F9FFE041F6ED718248FFF703F9F9E0D4
:102200009DF82330062B06D09DF8233001220121B2
:10221000184600F0D1F9FFF785FAFFF7A5FB059BFB
:10222000002B01D0FFF748F9774A099B5367FEF767
:1022300017FD0390FEF738FD03461846FFF760F9D7
:10224000FFF750F9034619460398FFF78DFA059BEF
:10225000002B03D10121002000F004FDFFF786FBD5
:10226000C8E06A4B06939DF80330062B04D142F276
:102270002C016448FFF7C6F8069B002B01D0069B93
:1022800000E0634B06939DF80330062B04D142F225
:102290003C015C48FFF7B6F8069B002B01D0069B7B
:1022A00000E05C4B06939DF80330013B092B3BD8C3
:1022B00001A252F823F000BFE1220000E722000053
:1022C000F722000029230000292300000723000033
:1022D00029230000292300002923000023230000D4
:1022E0000023079326E001220121002000F064F979
:1022F000022307931EE001220121012000F05CF976
:102300000123079316E0FEF7CFFC03461846FFF7BC
:10231000F7F8012202214048FFF78EF803230793C4
:1023200008E00423079305E042F267013548FFF710
:1023300069F85FE0069B079A1A605BE09DF803303E
:10234000072B02D0092B04D007E02F4B00221A677D
:1023500009E02D4B01221A6705E042F2F1012948FC
:10236000FFF750F846E045E09DF80330013B072BAE
:1023700028D801A252F823F099230000C5230000B9
:10238000C5230000AF230000C5230000C5230000C3
:102390009F230000BF2300000023079318E00122C1
:1023A0000121042000F008F90123079310E0012225
:1023B0000121022000F000F90223079308E0032323
:1023C000079305E042F24F110E48FFF71BF811E0AA
:1023D0000D4BD3F85C3123F03002079B1B010A49F7
:1023E0001343C1F85C3105E042F226210548FFF7AE
:1023F00009F800BF0BB05DF804FB00BF002D3101F0
:102400000148E80168F5000000400E4080400E40A1
:1024100088400E4084400E40B0400E40014B1B6887
:10242000184670472410002010B584B00190112088
:10243000FFF73EFD0346042B04D142F20F5137480B
:10244000FEF7E0FF01220021022000F0B5F8019B19
:102450005B78002B07D1019B9B78002B03D1019B5C
:10246000DB78002B04D042F24B512C48FEF7CAFF18
:1024700000230393019B1B7C012B04D142F2525198
:102480002648FEF7BFFF019B1B7C022B01D10123D5
:102490000393234B5B6A23F001022149039B1343FF
:1024A0004B62019B1B781A4608211E48FEF7C4FFA9
:1024B000019B9B88DB02019A527A1146184A0B4312
:1024C000D362174B1B6B03F07F62019BDB88DB023F
:1024D0001343019A927A1A43019B1B7ADB0142EA69
:1024E0000304019B1B7A1846FFF760F903460C4A68
:1024F00023431363019B5B7B1A03019B9B7B1B01A3
:102500001343019AD27B1A43019B1B7B1B04044992
:1025100013434B6300BF04B010BD00BF68F500005B
:1025200000400E4024400E4000B585B001901120BF
:10253000FFF7BEFC0346022B04D142F2CD511448F2
:10254000FEF760FF134B9A6B134B1340019A1278FE
:102550001A43019B5B78DB021A43019B9B781B06A5
:102560001A43019BDB781B0213430393094B9B6BBC
:10257000039A9A4207D001220021002000F01CF8A3
:10258000044A039B936300BF05B05DF804FB00BFE2
:1025900068F5000000400E4080E4FFF882B003467A
:1025A000ADF80630034ABDF80630138000BF02B014
:1025B000704700BF3010002000B589B003468DF889
:1025C00007300B468DF8063013468DF805309DF820
:1025D0000730042B3BD801A252F823F03926000023
:1025E0002726000003260000F12500001526000024
:1025F00001230593022304930123079300230693E9
:102600002BE0042305930823049303230793022359
:10261000069322E0102305932023049305230793B8
:102620000423069319E04023059380230493072392
:1026300007930623069310E04FF4807305934FF43D
:1026400000730493092307930823069305E042F2DD
:1026500074614948FEF7D6FE8BE09DF80630002BEA
:102660006AD000238DF80F309DF80730022B1BD164
:10267000FFF7B2F80346002B16D1404BDB6B03F497
:102680008063002B04D142F283613B48FEF7BAFE1F
:1026900001238DF80F303A4B5B6A03F00103012BE5
:1026A00002D10120FFF7A2F8354A059B136600BF4F
:1026B00006993448FEF7E0FE0346002BF8D09DF85B
:1026C0000530002B55D000BF07992E48FEF7D4FEE9
:1026D0000346002BF8D09DF80730022B49D19DF816
:1026E0000F30002B45D0264B5B6A03F00103012B12
:1026F00005D101222021022000F090F903E0002101
:10270000022000F02DF9022000F03EF80290012294
:1027100000210220FFF750FF0299022000F074F818
:10272000174A059B136600BF07991648FEF7A4FEDB
:102730000346002BF8D01CE0114A049B136600BF2F
:102740000F4BD3F890300121069A01FA02F21340A0
:10275000002BF5D19DF80530002B0AD000BF084BA7
:10276000D3F890300121079A01FA02F21340002BAE
:10277000F5D109B05DF804FB68F5000000300E40AB
:1027800000400E4090400E4000B585B003468DF8E5
:1027900007309DF80730013B032B24D801A252F8E3
:1027A00023F000BFB5270000D9270000C127000093
:1027B000CD270000124B1B6AC3F3080303931AE0F2
:1027C0000F4B1B6903F07F03039314E00C4B9B69D1
:1027D00003F07F0303930EE0094BD3F89C30C3F35F
:1027E0000A03039307E0002303934FF41C510548A9
:1027F000FEF708FE00BF039B184605B05DF804FB1A
:1028000000400E4068F5000000B585B00346009119
:102810008DF807309DF80730013B032B00F28D80C7
:1028200001A252F823F000BF39280000ED28000073
:1028300079280000B3280000009BB3F5007F04D383
:1028400042F225714248FEF7DDFD009BC3F3080309
:10285000009300BF1A213F48FEF70EFE0346002BEF
:10286000F8D13D4B1B6A23F4FF7323F001033A496F
:10287000009A13430B6266E0009B7F2B04D942F25F
:1028800032713348FEF7BEFD009B03F07F030093D7
:1028900000BF18212F48FEF7EFFD0346002BF8D1AB
:1028A0002D4B1B6923F07F022B49009B13430B61C7
:1028B00049E0009B7F2B04D942F24D712448FEF77A
:1028C000A1FD009B03F07F03009300BF1921214865
:1028D000FEF7D2FD0346002BF8D11F4B9B6923F076
:1028E0007F021D49009B13438B612CE01A4BD3F8E8
:1028F000903003F00403002B04D042F25D711448C1
:10290000FEF780FD144B5B6A23F03003124A43F05C
:1029100010035362009BDB0903F00F031846FEF718
:1029200045FF03900C4B1A6B0C4B1340009A1A4353
:102930000949039B13430B6305E042F27771044896
:10294000FEF760FD00BF00BF05B05DF804FB00BFEF
:1029500068F5000040410E4000400E4000F8FF0FB7
:1029600000B585B003460A468DF8073013468DF84A
:1029700006309DF80730022B04D042F28F712448B4
:10298000FEF740FDFEF728FF0346002B03D14FF46E
:10299000400303931DE09DF80630302B0DD0302B03
:1029A0000FDC002B05D0202B0BD14FF40003039339
:1029B0000FE04FF4400303930BE04FF44003039305
:1029C00007E0144B039342F2AA711148FEF71AFD77
:1029D00000BF00BF104BD3F89020039B1340039A15
:1029E0009A42F7D1039B03F48003002B0AD00A4BD1
:1029F000D3F8A03003F48063002B14BF012300231D
:102A0000DBB200E00123184605B05DF804FB00BF0F
:102A100068F50000FF33E10700400E4000B583B0C9
:102A200003468DF807300B468DF8063013468DF8B7
:102A300005309DF80730022B1AD19DF80630002B87
:102A400008D0114B4FF48062C3F8A8200E4A9DF8BD
:102A5000063053669DF80530002B0FD09DF80620F8
:102A60009DF8073011461846FFF77AFF034607E046
:102A700042F2E0710548FEF7C5FC00E000BF01230B
:102A8000184603B05DF804FB00400E4068F50000F6
:102A900082B0EFF310830093009B019372B600BFE6
:102AA000019B184602B0704782B00190019B002B39
:102AB00001D162B600BF00BF02B0704784B0EFF32F
:102AC00011830193019B039360230293029B83F381
:102AD000118800BF039B184604B0704784B0019072
:102AE000019B0393039B83F3118800BF00BF04B0D5
:102AF00070470000054B5B68C3F30803002B14BF4D
:102B000001230023DBB21846704700BF00ED00E050
:102B100082B0EFF310830193019B03F00103012BBB
:102B200005D0EFF311830093009B5F2B01D90123A4
:102B300000E0002303F00103DBB2184602B0704747
:102B400000B587B0039002910192029B1F2B03D91D
:102B500091210A48FEF756FC039B03F1424303F51B
:102B60008013DA00029B13449B000593059B019A96
:102B70001A6000BF07B05DF804FB00BF08F6000054
:102B800084B001900091019B03F1424303F580134F
:102B9000DA00009B13449B000393039B1B681846B9
:102BA00004B07047054B1B6803F04003002B01D1B4
:102BB000012300E000231846704700BF3C300E4060
:102BC00008B5FFF7EFFF034683F00103DBB2002BEC
:102BD00008D100BF12210448FFF7D2FF0346002BA3
:102BE000F8D100E000BF08BD04300E4008B5FFF783
:102BF000E7FF044B5B681B0C03F00303DBB21846D2
:102C000008BD00BF00300E4082B00190024A019B17
:102C1000D36200BF02B0704700300E40014B5B6AC8
:102C20001846704700300E40024B00225A6300BF26
:102C3000704700BF00300E40024B4AF6E8525A631C
:102C400000BF704700300E4082B003468DF8073059
:102C50009DF80730C3F10203102202FA03F318466D
:102C600002B0704700B585B001900B468DF8033077
:102C7000FFF798FF034683F00103DBB2002B2AD154
:102C8000019B002B0FD1164BD3F800311B0A03F028
:102C90001F0301330293FEF707F80246029B02FB73
:102CA00003F3039301E0019B03930E4B1B78002B6E
:102CB0000AD0039B0C4A934206D89DF8033019466C
:102CC000022000F013F807E09DF8033019460020B9
:102CD00000F00CF800E000BF05B05DF804FB00BF99
:102CE00000400E40E8210020002D310110B586B0D3
:102CF00003460A468DF8073013468DF80630FFF775
:102D000051FF034683F00103DBB2002B3FD1FFF7F5
:102D10006DFF03461A469DF80730934239D01E4B8B
:102D2000D3F800311B0A03F01F0301330593FDF7AD
:102D3000BBFF0490049B059A02FB03F303939DF8E9
:102D40000730022B0CD1039B144A934204D940F262
:102D500031611348FEF756FB02210498FEF704FD8B
:102D6000104C9DF807301846FFF76EFF03462361AD
:102D70009DF80630002B01D0FFF722FF9DF80730A9
:102D8000002B07D100210498FEF7EEFC02E000BF03
:102D900000E000BF06B010BD00400E40002D310124
:102DA00080F6000000300E4084B001901D4B9B69FE
:102DB0000393039B23F03F030393019B1B78002B9A
:102DC00001D0042200E00022019B5B78002B01D09F
:102DD000022300E000231343019A9278002A01D0D5
:102DE000082200E000221343019AD278012A01D17F
:102DF000012200E000221343019A12791343039A3F
:102E000013430393074A039B9361064B1B6823F408
:102E10004032019B5B791B04024913430B6000BFE6
:102E200004B0704700300E40012318467047000080
:102E300000B583B00C4BDB6E0B4A43F08073D36656
:102E400000210A48FFF79CFE0190019B002B03D054
:102E5000042000F075FD02E0002000F071FD00BFCD
:102E600003B05DF804FB00BF00300E404C300E4054
:102E700000B58BB001230993099B1B050893424BB6
:102E8000DB6C1B0A03F00F030793404B1B881A46A9
:102E90003E4B1B8828335B08134403F12801079B32
:102EA0005A1C13469B001344B1FBF3F3013B0693FA
:102EB000069B059307230493049A059B934228BF1E
:102EC00013460693069B1B060693069B23F0E063BE
:102ED000002B04D040F689012D48FEF793FA089B99
:102EE00023F4E003002B04D040F68A012848FEF7C3
:102EF00089FA254BDB6C23F0EE620699089B0B43A5
:102F000021491343CB64234BB3F90030002B36DB4C
:102F1000204BB3F90030ADF80E30BDF80E20BDF8EF
:102F20000E3028335B08134403F12802079B01335A
:102F30005900079B01335B080B44B2FBF3F3029388
:102F4000029B019307230093009A019B934228BFA1
:102F500013460293029B1B010293029B23F0700312
:102F6000002B04D040F6A2010948FEF74BFA064BAD
:102F70001B6D23F070020449029B13430B6500BFD5
:102F80000BB05DF804FB00BF00300E40E2210020D2
:102F900080F60000E621002082B001900B46ADF8DB
:102FA0000230019B9AB2044B1A80044ABDF80230E9
:102FB000138000BF02B07047E2210020E62100200C
:102FC00000B583B003468DF807309DF80730002B1D
:102FD00002D0012B04D007E0084B094A9A6509E0AA
:102FE000064B084A9A6505E040F6CE010648FEF712
:102FF00009FA00BF00BF03B05DF804FB00300E40CB
:1030000077402057372110B780F6000000B585B013
:1030100003468DF807300B468DF8063013468DF8C1
:103020000530344BD3F8803103939DF80630032BE1
:103030001CD801A252F823F04930000051300000A2
:103040005B30000065300000039BDBB2039314E0AB
:10305000039B1B0ADBB203930FE0039B1B0CDBB249
:1030600003930AE0039B1B0E039306E040F6121144
:103070002148FEF7C7F9002338E09DF80530002B02
:1030800016D1039B1B030393039B23F47043002B74
:1030900006D040F61D111848FEF7B4F9002325E0CC
:1030A000164BDB6E23F470421449039B1343CB662B
:1030B0009DF80530012B18D1039B1B030393039B41
:1030C00023F47043002B06D040F629110A48FEF77E
:1030D00099F900230AE0094BD3F8EC3023F470424D
:1030E0000649039B1343C1F8EC300123184605B091
:1030F0005DF804FBB081E00F80F6000000300E4068
:1031000000B589B00390029111461A460B468DF81E
:10311000073013468DF806300023079300230693EB
:103120009DF806301B029DF80720002A01D00122DD
:1031300000E0002213430593059B40F201329342C5
:103140005CD0059B40F20132934200F29380059BD4
:10315000B3F5407F00F08280059BB3F5407F00F21D
:103160008980059B40F2012293423BD0059B40F2AF
:10317000012293427ED8059BB3F5007F62D0059B68
:10318000B3F5007F76D8059B40F2011293421DD023
:10319000059BB3F5817F6DD2059BB3F5807F45D04C
:1031A000059BB3F5807F65D8059B002B32D0059B2E
:1031B000012B5FD1374BD3F874310793079B1B0A60
:1031C000DBB20693079BDBB2079359E0314BD3F890
:1031D00074310793079B1B0E0693079B1B0CDBB2F6
:1031E00007934DE02B4BD3F878310793079B1B0ACD
:1031F000DBB20693079BDBB2079341E0254BD3F884
:1032000078310793079B1B0E0693079B1B0CDBB2C1
:10321000079335E01F4BD3F86C310793079B1B0ACC
:10322000DBB20693079BDBB2079329E0194BD3F877
:103230006C310793079B1B0E0693079B1B0CDBB29D
:1032400007931DE0134BD3F870310793079B1B0ABC
:10325000DBB20693079BDBB2079311E00D4BD3F86B
:1032600070310793079B1B0E0693079B1B0CDBB269
:10327000079305E040F68E110748FEF7C3F800BF3C
:10328000039B079A1A60029B069A1A6000BF09B056
:103290005DF804FBB081E00F80F6000000B585B05A
:1032A00003468DF80730424B5B6B012B0CBF0123AB
:1032B00000238DF80F30FFF7BFFC00BF3C4B9B6F26
:1032C00003F00103002BF9D1394B1B6C03F003030E
:1032D0000293029B002B04D001220D213548FFF7F9
:1032E0002FFC029BDBB29DF807209A4209D19DF882
:1032F0000730002B58D100220D212E48FFF720FC6B
:1033000052E0029B032B02D0029B002B22D19DF89E
:103310000730022B03D09DF80730012B1AD14FF450
:103320000020FFF771FC00BF214B9B6F03F00103EE
:10333000002BF9D11E4B1B6C23F003031C4A43F0F6
:103340000103136400BFFFF769FC034603F4002385
:10335000002BF8D000BF164B9B6F03F00103002B2E
:10336000F9D1134B1B6C23F003029DF80730104971
:1033700013430B6400BF0E4B9B6F03F00103002B44
:10338000F9D19DF80730002B14BF01230023DBB2D5
:103390001A460D210748FFF7D3FB9DF80F30002B8D
:1033A00003D0FFF741FC00E000BF05B05DF804FB6F
:1033B00000300E4054300E4000B585B001906C4B8B
:1033C00002229A636A4B9B6B03F00F03022B06D019
:1033D00040F64B216748FEF715F80023C3E0FFF7DE
:1033E00023FD019B1B89C82B04D940F65521614858
:1033F000FEF708F8019B9A88019B1B899A4204D921
:1034000040F656215B48FDF7FDFF019BB3F90C30F8
:10341000C82B04DD40F657215648FDF7F3FF019B0A
:103420005B78012B09D1019B9B88C82B12D940F6F0
:103430005B215048FDF7E6FF0CE0019B5B78022B17
:1034400008D1019B9B880A2B04D94FF42661494877
:10345000FDF7D8FF019BDB8842F21072934204D93A
:1034600040F668214348FDF7CDFF019BDB884A2BDE
:1034700002D80023039315E0019BDB88B3F5FA7FA4
:1034800003D24FF0805303930CE0019BDB8840F69E
:10349000C312934203D84FF00053039302E04FF05E
:1034A00040530393324BDB6C23F0405323F0010372
:1034B000019AB2F90C20002A01DB012100E0002171
:1034C000039A0A432A491343CB64294BD3F8EC30BF
:1034D000274A43F44073C2F8EC30019B9A88264B8C
:1034E0001A80FFF7A5FC019B1B891A46019BB3F9C3
:1034F0000C3019461046FFF74FFD019B9B8818467C
:1035000000F0ACF9019B9B7B1846FFF759FD019B2E
:103510005B8801220121184600F032F8034683F04F
:103520000103DBB2002B06D040F69F211148FDF7C6
:1035300069FF002317E00E4BDB6B0D4A43F48063F9
:10354000D363019B5B781846FFF7A8FE019B9B7A2B
:10355000202B01D1012300E000231A460521074852
:10356000FFF7EEFA0123184605B05DF804FB00BF33
:1035700000300E4080F60000E42100203C300E4078
:1035800010B594B001900B468DF8033013468DF8BA
:103590000230002313930023119309AB00221A6019
:1035A0005A609A6006AB00221A605A609A6003ABB8
:1035B00000221A605A609A60A44B1B88ADF808304C
:1035C00000238DF80A30019BB3F5E16F06D3019B10
:1035D00040F6B832934201D8012300E000238DF871
:1035E00043309DF8433003F001038DF843309DF8DC
:1035F000433083F00103DBB2002B06D040F6EE210E
:103600009348FDF7FFFE00231DE1019BB3F5E16F39
:103610008CBF012300238DF842309DF84230002BEF
:103620000AD04FF4E163139340F6B8331193119A23
:10363000139BD31A129309E04FF4966313934FF43C
:10364000E1631193119A139BD31A12939DF84230A0
:10365000002B0BD07F4BD3F868310893089B1B0ECF
:103660000593089B1B0CDBB208930AE0794BD3F857
:1036700068310893089B1B0ADBB20593089BDBB2F9
:103680000893754BDB6C1B0FDBB203F00303DBB25B
:103690008DF808309DF808309DF8422003A906A84F
:1036A000FFF72EFD6C4BD3F8EC301B0ADBB203F0B6
:1036B0000303DBB28DF809309DF809409DF84220E4
:1036C00003AB191D06AB181D2346FFF719FD019A20
:1036D000139BD31A0599089A8A1A03FB02F2129BCC
:1036E000B2FBF3F30B930B9A089B13440B93019AD1
:1036F000139BD31A0399069A8A1A03FB02F2129BB0
:10370000B2FBF3F30993099A069B13440993019AB8
:10371000139BD31A0499079A8A1A03FB02F2129B8D
:10372000B2FBF3F30A930A9A079B13440A930B9A8A
:10373000059B9A4213D80B9A089B9A420FD30A9A78
:10374000049B9A420BD80A9A079B9A4207D3099A7C
:10375000039B9A4203D8099A069B9A4206D240F6E6
:103760003C313B48FDF74EFE00236CE09DF80230F3
:10377000002B12D0384BDB6D23F4FE4323F0020301
:103780000B9A120213439DF84220002A01D0022214
:1037900000E0002230491343CB659DF80330002B35
:1037A00050D09DF808109DF8423000221846FFF7CF
:1037B0002DFC034683F00103DBB2002B06D040F65C
:1037C0004B312348FDF71EFE00233CE09DF8091015
:1037D0009DF8423001221846FFF718FC034683F09B
:1037E0000103DBB2002B06D040F653311848FDF739
:1037F00009FE002327E0099B0F930A9B0E930E9A64
:103800000F9B934238BF13460993099B0D93E723FF
:103810000C930C9A0D9B934228BF134609930E4BB1
:103820005B6E23F4FF7323F00103099A52001343E4
:103830009DF84220002A01D0012200E00022064922
:1038400013434B660123184614B010BDF8F6000070
:1038500080F60000B081E00F00300E4000B585B06A
:10386000019000230393344B1B6F03F00703029373
:10387000314BDB6C03F00103002B14D0029B012BB6
:1038800011D9019B132B02D8042303933DE0019B24
:10389000132B05D9019B272B02D80823039334E06F
:1038A0001023039331E0244BDB6C03F00103002B66
:1038B00014D1029B012B11D8019B092B02D80423A0
:1038C000039322E0019B092B05D9019B132B02D8FE
:1038D0000823039319E01023039316E0164BDB6CC7
:1038E00003F00103002B0BD0029B012B08D8019B96
:1038F000272B02D80823039307E01023039304E047
:1039000040F691310D48FDF77DFD039B013B03938C
:10391000039B1A02039B1B0313430393064BDB6CAD
:1039200023F47F420449039B1343CB64FFF7A0FABF
:1039300000BF05B05DF804FB00300E4080F60000CB
:1039400000B585B003468DF8073000211248FFF717
:1039500017F90390039B002B03D19DF80730012B2F
:1039600007D9039B002B04D140F6AF310B48FDF77C
:1039700049FD0B4B1B6F23F007029DF807300849E8
:1039800013430B67074B1B881846FFF767FF00BF01
:1039900005B05DF804FB00BF4C300E4080F600001F
:1039A00000300E40E421002000B587B00390029162
:1039B0000192029B1F2B03D991210A48FDF722FD9A
:1039C000039B03F1424303F58013DA00029B134487
:1039D0009B000593059B019A1A6000BF07B05DF834
:1039E00004FB00BFFCF6000084B001900091019B35
:1039F00003F1C0630393039B009A1A6000BF04B0F5
:103A0000704784B001900091019B03F180630393A0
:103A1000039B009A1A6000BF04B0704700B587B0DE
:103A2000039002910192FFF733F80590039B1A6807
:103A3000029BDB431A400199029B0B401A43039BF4
:103A40001A600598FFF730F800BF07B05DF804FB77
:103A500082B00190034A019BC2F8243400BF02B037
:103A6000704700BF00A0004000B583B0034600913E
:103A70008DF807309DF80730002B42D09DF80730B5
:103A8000012B3BD09DF80730022B34D09DF8073036
:103A9000032B2DD09DF80730042B27D09DF807303D
:103AA000052B20D09DF80730062B1AD09DF8073043
:103AB000072B14D09DF80730082B0ED09DF8073047
:103AC000092B07D09DF807300A2B01D107231AE0F4
:103AD000002318E04FF4404315E00F2313E00023C8
:103AE00011E000230FE04FF6FF730CE000230AE023
:103AF0004FF47F4307E040F6FF7304E04FF6C073D6
:103B000001E040F2FF33009AD34003F00103002BA1
:103B100004D14FF479710D48FDF774FC9DF807202E
:103B200013465B0013441B010C3303F1804303F580
:103B300020430121009A01FA02F211461846FFF7CC
:103B400060FF00BF03B05DF804FB00BF74F7000026
:103B500000B583B0034600918DF807309DF807301B
:103B6000002B42D09DF80730012B3BD09DF8073049
:103B7000022B34D09DF80730032B2DD09DF8073051
:103B8000042B27D09DF80730052B20D09DF8073057
:103B9000062B1AD09DF80730072B14D09DF807305C
:103BA000082B0ED09DF80730092B07D09DF8073061
:103BB0000A2B01D107231AE0002318E04FF44043F9
:103BC00015E00F2313E0002311E000230FE04FF670
:103BD000FF730CE000230AE04FF47F4307E040F658
:103BE000FF7304E04FF6C07301E040F2FF33009A28
:103BF000D34003F00103002B04D140F213410D48E0
:103C0000FDF700FC9DF8072013465B0013441B01E1
:103C10000C3303F1804303F520430121009A01FA9C
:103C200002F211461846FFF7DFFE00BF03B05DF851
:103C300004FB00BF74F7000000B583B00346009199
:103C40008DF807309DF80730002B27D09DF80730FE
:103C5000012B23D09DF80730022B1FD09DF8073091
:103C6000032B1BD09DF80730042B1CD09DF8073088
:103C7000052B13D09DF80730062B14D09DF8073084
:103C8000072B10D09DF80730082B07D09DF8073080
:103C9000092B03D09DF807300A2B04D1009B23F099
:103CA0000113002B03D07D210B48FDF7ABFB9DF8E2
:103CB000072013465B0013441B0103F1804303F507
:103CC0002043009A4FF001111846FFF7A7FE00BFEE
:103CD00003B05DF804FB00BFECF7000000B587B04F
:103CE000029101921A4603468DF80F3013468DF863
:103CF0000E30002305939DF80F30002B42D09DF825
:103D00000F30012B3BD09DF80F30022B34D09DF8A3
:103D10000F30032B2DD09DF80F30042B27D09DF8AA
:103D20000F30052B20D09DF80F30062B1AD09DF8B0
:103D30000F30072B14D09DF80F30082B0ED09DF8B4
:103D40000F30092B07D09DF80F300A2B01D1072324
:103D50001AE0002318E04FF4404315E00F2313E06E
:103D6000002311E000230FE04FF6FF730CE0002367
:103D70000AE04FF47F4307E040F6FF7304E04FF69C
:103D8000C07301E040F2FF33029AD34003F0010315
:103D9000002B03D1BF213B48FDF734FB019A029B66
:103DA000534023F00303002B03D0C1213548FDF716
:103DB00029FB019B072B0FD8019B9B000F2202FAC6
:103DC00003F19DF80F20019B9B0002FA03F31A46B2
:103DD0002D48FFF723FE11E0019B083B0593059B4F
:103DE0009B000F2202FA03F19DF80F20059B9B0018
:103DF00002FA03F31A462548FFF710FE019B072B32
:103E000010D8019B9B00032202FA03F1029B03F0EE
:103E10000302019B9B0002FA03F31A461C48FFF7BA
:103E2000FDFD0FE0059B9B00032202FA03F1029BBC
:103E300003F00302059B9B0002FA03F31A461548A0
:103E4000FFF7ECFD9DF80E301A4601991248FFF776
:103E5000ABFD9DF820301A4601991048FFF7A4FDEC
:103E60000122019B02FA03F31846FFF7F1FD9DF8CA
:103E700024301A4601990A48FFF796FD00BF07B0A3
:103E80005DF804FBECF7000000A4004004A400402F
:103E900008A400400CA4004010A4004014A400405A
:103EA00028A4004000B585B00291019303468DF827
:103EB0000F3013468DF80E309DF80F30002B42D096
:103EC0009DF80F30012B3BD09DF80F30022B34D0E2
:103ED0009DF80F30032B2DD09DF80F30042B27D0E9
:103EE0009DF80F30052B20D09DF80F30062B1AD0EF
:103EF0009DF80F30072B14D09DF80F30082B0ED0F3
:103F00009DF80F30092B07D09DF80F300A2B01D1F7
:103F100007231AE0002318E04FF4404315E00F2375
:103F200013E0002311E000230FE04FF6FF730CE0D5
:103F300000230AE04FF47F4307E040F6FF7304E0FC
:103F40004FF6C07301E040F2FF33029AD34003F012
:103F50000103002B04D140F21D113D48FDF752FA38
:103F60009DF80E30002B0FD0019B002B06D09DF842
:103F70000F3002991846FFF7EBFD05E09DF80F3072
:103F800002991846FFF770FD029B072B23D8314991
:103F90009DF80F2013465B0013441B010B440433B0
:103FA0001A68029B9B000F2101FA03F3DB431340C5
:103FB0009DF80E10029A920001FA02F2114625486D
:103FC0009DF80F20194313465B0013441B01034463
:103FD0000433196024E01F499DF80F2013465B004D
:103FE00013441B010B4408331A68029B083B9B00D7
:103FF0000F2101FA03F3DB4313409DF80E10029AE0
:10400000083A920001FA02F2114612489DF80F2078
:10401000194313465B0013441B0103440833196022
:104020009DF80E30002B0FD1019B002B06D09DF880
:104030000F3002991846FFF78BFD05E09DF80F3011
:1040400002991846FFF710FD00BF05B05DF804FBAC
:10405000ECF7000000A0004000B587B0039002918B
:104060000192029B1F2B03D991210A48FDF7CAF93F
:10407000039B03F1424303F58013DA00029B1344D0
:104080009B000593059B019A1A6000BF07B05DF87D
:1040900004FB00BF64F8000000B583B001900091FC
:1040A000019B022B03D94C211748FDF7ABF9009B6C
:1040B0005B791F2B03D94F211348FDF7A3F9009B10
:1040C0001B781A46009B5B789B001A43009B9B78E9
:1040D0009B011A43009BDB781B011A43009B1B7951
:1040E000DB021A43009B5B791B031A43009B9B79FD
:1040F0005B0406491A43019B04331B010B441A60FD
:1041000000BF03B05DF804FBDCF8000000200440B1
:1041100000B583B003468DF807309DF807301A4686
:1041200000210348FFF798FF00BF03B05DF804FBD0
:104130000020044082B00190019B1B78002B01D02D
:10414000012200E00022019B5B78002B01D00423B8
:1041500000E000231343019A9278002A01D0102234
:1041600000E000221343019AD278002A01D02022D5
:1041700000E000221A43019B1B791B021A43019B9A
:104180005B791B031343019A9279002A02D04FF402
:10419000004200E000221A43019BDB791B04134319
:1041A000019A127A002A02D04FF4003200E0002275
:1041B000024913430B6000BF02B070470020044067
:1041C00082B001900B468DF803309DF8033063F008
:1041D0007F03DBB21A46019B9A6500BF02B07047AD
:1041E00000B587B0039002910192019B002B04D18E
:1041F0004FF422711248FDF705F9029B002B03D101
:104200001048FDF72FFC0290029B5A1E019B5B0099
:10421000B2FBF3F30593059B1B020593059A0A4B2A
:104220001340002B04D040F2A5210548FDF7EAF821
:10423000039B059A5A6100BF07B05DF804FB00BFFD
:1042400054F9000040410500070080FF00B583B02D
:1042500001900091019B3B4A934210D0019B3A4A46
:1042600093420CD0019B394A934208D0019B384AB3
:10427000934204D04FF456713648FDF7C3F80198C5
:1042800000F06AF8019B1A68009B1B8A43F0010347
:104290009BB21946009B9B7B002B02D04FF480639E
:1042A00000E000230B431A43019B1A60019B1B682B
:1042B000009A127D002A02D04FF0005200E0002246
:1042C0001A43019B1A60009B9B7C002B05D0009B2E
:1042D000DB7C19460198FFF773FF009B1B7B43F4BF
:1042E0008052019B5A60009B5968009B9B681A464C
:1042F0000198FFF775FF009B5B7B002B02D0019BB1
:104300001022DA60009B5B7D002B05D0019B1B68AF
:1043100043F48032019B1A60009B9B7D1B0703F0D6
:10432000E042009BDB7D1B0503F4E0031A43019B85
:104330001A66009B1B781A46019BDA6000BF03B027
:104340005DF804FB0000014000040140000801404A
:10435000000C014054F9000000B583B00190019BAE
:104360002D4A934210D0019B2C4A93420CD0019BC2
:104370002B4A934208D0019B2A4A934204D040F230
:104380002E412948FDF73EF8019B40F6AA62DA600B
:10439000019B00221A60019B41F205025A60019BB9
:1043A00000229A60019B00225A61019B0022DA647C
:1043B000019B1E4A9A64019B00221A66019B0022FF
:1043C0005A67019B00229A67019B0022DA67019BD2
:1043D000114A93420BD0019B104A934207D0019B94
:1043E0000F4A934203D0019B0E4A934202D1019B94
:1043F00000221A65019B00229A65019B074A93429D
:1044000003D0019B074A934202D1019B0022DA6547
:1044100000BF03B05DF804FB000001400004014050
:1044200000080140000C014054F90000F9FF0100B0
:1044300082B001900B468DF8033000BF019B1B69D1
:1044400003F04003002BF9D09DF80320019B5A6331
:1044500000BF02B07047000000B58BB00790069116
:1044600005920493069B0993049B002B01D100F055
:10447000FCF8099B002B01D1094B0993049B029383
:1044800000230193012300930423059A09990798B7
:1044900000F008F80890089B18460BB05DF804FB84
:1044A0003410002000B589B0059004910392029366
:1044B000039B002B0DD10C9B08221A700C9B2A4ADF
:1044C0005A600C9B4FF4D9629A600C9B274ADA60C1
:1044D000FEE7029B002B05D0029B5A1E029B134055
:1044E000002B02D0029B002B01D1012300E000230E
:1044F000002B0DD10C9B08221A700C9B1A4A5A6093
:104500000C9B40F2CB629A600C9B184ADA60FEE783
:10451000FEF7D4FA07900C9B01930B9B00930A9B28
:10452000029A0399049800F023F806900C9B1B78DC
:10453000002B11D00798FEF7D1FA0C9B16221A70A7
:104540000C9B094A5A600C9B40F2D7629A600C9B04
:10455000064ADA60002303E00798FEF7BFFA069BDD
:10456000184609B05DF804FBCCF9000058FA0000C9
:104570008AB00390029101920093019B002B01D01D
:10458000019B00E00423009A934238BF134609932D
:10459000039B9B681A46099B5B421A40039B9B68DE
:1045A0001946099B013B0B40002B01D0099B00E001
:1045B000002313440893089A029B1A44009B5B4211
:1045C0001A400899029B1944009B013B0B40002BA9
:1045D00001D0009B00E0002313440793039B5B681A
:1045E0001A46039B9B68D31A01330693039B9B686F
:1045F0001A46079B9B1A0593069A059B9A4216D268
:104600000A9B002B04D0059A069BD21A0A9B1A60BB
:104610000B9B16221A700B9B0F4A5A600B9B40F2A1
:1046200022729A600B9B0D4ADA60002310E0079A11
:10463000039B9A600B9B00221A700B9B064A5A60E0
:104640000B9B4FF4E5629A600B9B044ADA60089B6F
:1046500018460AB0704700BFCCF9000070FA00009D
:1046600008B500F017F800BF08BDFEE700B583B03D
:1046700004F07CFD0190019B184603B05DF804FB3B
:1046800082B00190024A019B136000BF02B07047E4
:10469000EC45002008B5034B00221A6004F044FDED
:1046A00000BF08BDEC45002000B585B0154B1B7858
:1046B000012B0AD1FEF71EFA0346002B02D06FF041
:1046C00005031BE04FF0FF3318E06B46184600F07F
:1046D0003BF89DF80030002B02D04FF0FF330DE087
:1046E0006B461A460021012000F08AFC9DF800303C
:1046F000002B02D04FF0FF3300E00023184605B036
:104700005DF804FB7847002000B585B0FEF7F2F9AC
:104710000346002B02D06FF005030CE0084B1B781A
:10472000012B02D14FF0FF3305E06B46184600F035
:10473000E1FC4FF0FF33184605B05DF804FB00BF05
:104740007847002000BF7047F0B587B00190019B0B
:10475000002B01D1FFF789FF894B5B68002B2CD020
:10476000874B1B68002B10D1854B196B844B5B6802
:104770009A00019B8348FFF76FFE0346824A13604D
:10478000019B1B78002B04D010E27D4B1B687E4AF6
:1047900013607D4B1B687D4A1360794B5B687C4AD4
:1047A0001360774B5B689B007A4A13607A4B1A68F8
:1047B000784B1B681344784A1360714B1B89002B9C
:1047C00024D06F4B196B6E4B1B891A01019B7348E8
:1047D000FFF742FE0346724A1360019B1B78002BD1
:1047E00040F0D9816E4B1B686E4A1360644B1A8986
:1047F0006D4B1A80624B1B891B016C4A1360664B20
:104800001A686A4B1B681344634A13605C4B5B690C
:10481000002B40D05A4B1B69002B10D1584B196B01
:10482000574B5B699A00019B6148FFF715FE0346F1
:10483000604A1360019B1B78002B04D0B6E1504BFB
:104840001B695C4A13604E4B1A7E5B4B1A704C4BD3
:10485000DB695A4A1360574B1B68594A1360484B2F
:104860005B69474AD26802FB03F3564AA2FB032363
:104870005B09554A1360424B5B69544A1360404BD5
:104880005B699B00524A1360434B1A68504B1B688C
:104890001344414A13603A4B5B6A002B41D0384BBA
:1048A0001B6A002B10D1364B196B354B5B6A9A0093
:1048B000019B4848FFF7D0FD0346474A1360019B20
:1048C0001B78002B04D071E12D4B1B6A424A136008
:1048D0002B4B93F82820414B1A703F4B1B68404AE2
:1048E0001360274B5B6A264AD26802FB03F3354A02
:1048F000A2FB03235B093B4A1360214B5B6A3A4AE4
:1049000013601F4B5B6A9B00384A13601C4BDB6AC9
:10491000374A1360204B1A68344B1B6813441E4AF5
:104920001360174B5B6B334A136004F011FD05F005
:104930001FFD0390039B002B0DD0019B01221A70D9
:10494000019B2D4A5A60019B4FF4D7729A60019BDC
:104950002A4ADA602AE105F087FE0246254B1B68E9
:104960009A424DD2019B09221A70019B224A5A6039
:10497000019B4FF4D9729A60019B204ADA60FEE7EE
:10498000481000208CFA0000F0450020004600206E
:1049900004460020084600204C460020A0FA0000F3
:1049A000F44500200C46002010460020144600204C
:1049B000B4FA0000F8450020184600201C460020EC
:1049C000204600201F85EB51244600202846002069
:1049D0002C460020D0FA0000FC4500203046002084
:1049E000384600203C460020404600204446002037
:1049F0003446002048460020ECFA00008CFB000002
:104A000005F032FE02466A4B1B689A4203D1694B9D
:104A100000221A6015E005F027FE034600221E461C
:104A2000174632463B464FF000004FF0010109F0B7
:104A300001F902460B465E4B1B6802FB03F35D4A1D
:104A400013605B4B1B68B3F57A7F03D85A4B002287
:104A50001A6014E0564B1B6800221C46154622467D
:104A60002B464FF000004FF0010109F0E3F8024639
:104A70000B464FF47A7302FB03F34F4A13604F4B1C
:104A800000221A704E4B00221A704E4B00221A6000
:104A90004D4B00221A604D4B00221A704C4B0022E5
:104AA0001A704C4B00221A70019803F02FFF034636
:104AB000494AA2FB0323DB08484A1360019B1B7889
:104AC000002B6AD1464B1B68002B1DD0454B1B6841
:104AD0000593059B002B17D0414B1B68049308E0FE
:104AE000049B013B0493059B00221A60059B043341
:104AF0000593049B002BF3D13A4B1B68384A12688C
:104B00001146184603F010FE374B00221A7001F0D0
:104B1000E5FF00F0B3FD354B00221A60344B002254
:104B20001A80344B1B88002B06D0019801F058FAEC
:104B3000019B1B78002B32D12F4B00221A602F4B88
:104B400000221A802E4B00221A602E4B00221A805F
:104B50002D4B00221A602D4B00221A80019803F081
:104B6000B9FC019B1B78002B1BD1019802F09EFF22
:104B7000019B1B78002B16D1019804F095F9019B3D
:104B80001B78002B11D101F0C9F8FFF7DBFD204B9A
:104B900001221A700AE000BF08E000BF06E000BF73
:104BA00004E000BF02E000BF00E000BF07B0F0BDBE
:104BB00048460020744600207046002078470020B8
:104BC000A04A0020FC4C0020004D00209647002009
:104BD00097470020A84A0020CDCCCCCCA44A002086
:104BE0000446002000460020BA4B00207C470020ED
:104BF0008047002010460020904700209447002066
:104C0000984700209C470020AC4A0020B04A002072
:104C10007947002010B586B0804B1B78012B00D05F
:104C2000FEE77F4B1B78002B40F0F480FDF746FF3A
:104C300005907C4B1B788DF8133001F065FF03461F
:104C40001A46784B1A70774B1B78402B7FD0754BE8
:104C50001B781946744A0B465B000B449B001344B7
:104C60001B68724A13609DF81330402B03D102F089
:104C70006BFFAFF300806D4B1A686D4B1B689A4257
:104C800025D1002003F098FB03468DF80B309DF8EA
:104C90000B30012B04D0664B1B68184604F080FBD8
:104CA000644B1B78002B0ED0604B1B685B6F002B96
:104CB00004D15E4B1B68184600F092FE5B4B1B68EC
:104CC000184600F065FE0598FDF708FFA3E0594B74
:104CD0001B78002B33D0584B1B685B6F002B2ED0FA
:104CE00001AB1946554805F057FC0390039B002B78
:104CF00006D1514B1B68019A5A67504805F0D6FB04
:104D00004D4B1B685B6F002B19D14B4B1B6893F805
:104D100033301A4613465B0013449B00424A134447
:104D2000184600F067FD3F4B1B7819463E4A0B467C
:104D30005B000B449B0013441B683C4A13603B4BD5
:104D40001B68D3F8C0200132C3F8C02002E0374B03
:104D500000221A603A4B1B680133394A1360314B09
:104D60001B78402B3DD0324B1A68304B1B689A425F
:104D70002FD02F4B1B68002B2BD004F0F7F90246E5
:104D80002B4B1B68D3F8C8309A4208D304F0EEF9D5
:104D90000246274B1B68D3F8C830D31A08E004F04A
:104DA000E5F90246224B1B68D3F8C830D31A013B01
:104DB0001F4A1268C2F8C4301D4B1B68D3F8CC10D0
:104DC0001B4B1B68D3F8C420194B1B680A44C3F85B
:104DD000CC20164B1C6804F0C9F90346C4F8C8304F
:104DE00010E002F0A7FE124B1B68002B06D0104B00
:104DF0001C6804F0BBF90346C4F8C83007F0F0F8AB
:104E0000AFF3008004F02FFA0598FDF767FEBFF3BB
:104E10006F8F00E000BF06B010BD00BF78470020D4
:104E2000A04A002097470020A0470020004D002006
:104E3000FC4C0020A84A00206C4600205046002070
:104E4000B04B002000B585B00190019B002B01D133
:104E5000FFF70BFCFDF74EFE0346002B0DD0019B28
:104E600020221A70019B254A5A60019B40F2193298
:104E70009A60019B224ADA60FEE7224B1B78012BE5
:104E80000DD0019B02221A70019B1C4A5A60019BA3
:104E900040F21D329A60019B194ADA602AE01A4BEF
:104EA0001B78F92B0DD9019B1E221A70019B134A06
:104EB0005A60019B40F222329A60019B104ADA60EC
:104EC00018E0FDF7FBFD03900F4B1B780133DAB2BE
:104ED0000D4B1A700398FDF701FE019B00221A701A
:104EE000019B064A5A60019B40F22D329A60019B59
:104EF000034ADA6005B05DF804FB00BFECFA00007D
:104F000094FB000078470020A04A002000B585B03F
:104F10000190019B002B01D1FFF7A7FBFDF7EAFDF4
:104F20000346002B0DD0019B20221A70019B304AB2
:104F30005A60019B40F245329A60019B2D4ADA602B
:104F4000FEE72D4B1B78012B0DD0019B02221A701E
:104F5000019B274A5A60019B40F249329A60019BAB
:104F6000244ADA6041E0254B1B78002B0DD1019BD0
:104F70001F221A70019B1E4A5A60019B40F24E325A
:104F80009A60019B1B4ADA602FE0FDF797FD0390C2
:104F90001A4B1B78013BDAB2184B1A70174B1B786F
:104FA000002B10D00398FDF799FD019B2D221A705C
:104FB000019B0F4A5A60019B40F256329A60019B56
:104FC0000C4ADA6011E00398FDF788FDFFF722FE36
:104FD000019B00221A70019B054A5A60019B4FF405
:104FE00058729A60019B034ADA6005B05DF804FBD1
:104FF000ECFA0000A0FB000078470020A04A002047
:1050000000B587B00346029101928DF80F30019BE5
:10501000002B01D1FFF729FB019B00221A70019B95
:105020002C4A5A60019B40F27D329A60019B2A4AC9
:10503000DA60FDF743FD0590029B002B03D0274A61
:10504000029B136009E0019803F060FC0346244AC8
:10505000A2FB0323DB08214A13609DF80F30012BCC
:105060001CD0204B1B78012B18D11E4B00221A702C
:105070001D4B1B68743319461C4805F08DFA0490CB
:10508000049B002B03D0184B1B6800225A6717485B
:1050900005F00CFA144B00221A6014E09DF80F3052
:1050A000012B10D10F4B1B78002B0CD10D4B012283
:1050B0001A700F4B1B68184600F092FC0C4B1B68D3
:1050C000184600F065FC0598FDF708FD00BF07B025
:1050D0005DF804FBECFA0000B0FB0000A44A0020DD
:1050E000CDCCCCCCA84A00206C46002050460020F5
:1050F000FC4C002000B585B00190019B002B01D134
:10510000FFF7B3FA3F4B1B78012B0DD0019B132205
:105110001A70019B3C4A5A60019B40F2F6329A6039
:10512000019B3A4ADA60FEE70023ADF80E30BDF885
:105130000E300133ADF80E30BDF80E300133ADF84E
:105140000E30334B1B88BDF80E209A420DD3019BC5
:1051500009221A70019B2C4A5A60019B40F20142BD
:105160009A60019B294ADA60FEE72A4B1B78002BE4
:105170000DD0019B1F221A70019B234A5A60019B8C
:1051800040F204429A60019B204ADA60FEE7FDF794
:10519000BFFC0346002B0DD0019B1F221A70019B00
:1051A000194A5A60019B40F207429A60019B174AD4
:1051B000DA60FEE701F0A8FC03461A46164B1A70A7
:1051C000154B1A78154B1A70134B1B781946144A55
:1051D0000B465B000B449B0013441B68114A136091
:1051E000104B1B68104A13600A4B01221A7002F020
:1051F00097FC03F0F9FFFFF738FA00BF05B05DF840
:1052000004FB00BF79470020ECFA0000C8FB000057
:10521000B84B002078470020974700209647002091
:10522000A0470020004D0020FC4C002008B501F0F4
:105230006BFC0346402B01D0002300E001231846FD
:1052400008BD000000B587B003900B4601928DF8B1
:105250000B301D4B1B689DF80B2083F830201A4B38
:105260001B68002283F83120184B1B78002B06D0D6
:10527000174B1B6800225A67164805F017F9124BA6
:105280001B680199184600F037FC039B002B0DD0DA
:10529000039B083305930C4B1B68039ADA620A4B95
:1052A0001B681946059800F097F803E0064B1B6849
:1052B0000022DA62044B1B681946039800F00CF8D0
:1052C00000BF07B05DF804FBFC4C0020A84A00209A
:1052D0006C4600205046002084B001900091019B54
:1052E000002B0FD0019B5A68009BC3F8EC20019B58
:1052F00008330393039B1B680293029BDA68019BAC
:10530000DA6116E0009B93F83030022B02D0072BB5
:1053100005D009E0009B084AC3F8EC2009E0009B97
:10532000064AC3F8EC2004E0009B054AC3F8EC20D1
:1053300000BF00BF04B0704774FB00007CFB00009E
:1053400088FB000084B001900091009B0C4AC3F8D8
:10535000EC20019B002B10D0019B08330393039B8F
:105360001B680293029B002B04D0029BDA68019B0E
:10537000DA6102E0019B024ADA6100BF04B07047C3
:1053800088FB000000B585B00190019BDB6A0393A8
:10539000039B08330293029B1B685B6A002B09D0B6
:1053A000019800F082F8019B039ADA620199029851
:1053B00000F012F800BF05B05DF804FB82B0019068
:1053C000019B00221A60019B00225A60019B00226F
:1053D0001A8100BF02B0704784B001900091009B19
:1053E00093F833308DF80B30019B1B68002B0FD1E5
:1053F000019B01221A81009B00225A62009B00221D
:105400009A62019B009A1A60019B009A5A6049E0D7
:10541000019B1B8901339AB2019B1A81019B1B6876
:10542000039309E0039B93F833309DF80B209A42D5
:1054300006D3039B5B6A0393039B002BF2D100E02E
:1054400000BF039B002B0ED1009B00225A62019BE0
:105450005A68009B9A62009B9B6A009A5A62019B61
:10546000009A5A601EE0039B9B6A002B0CD1009BA4
:10547000039A5A62009B00229A62039B009A9A62E6
:10548000019B009A1A600DE0009B039A5A62039BED
:105490009A6A009B9A62009B9B6A009A5A62039BDD
:1054A000009A9A6200BF04B0704786B00190019BD9
:1054B000DB6A002B46D0019BDB6A08330593059B12
:1054C0001B685B6A002B06D1059B00221A60059BB6
:1054D00000225A6027E0019B9B6A002B09D1019BA7
:1054E0005B6A0393039B00229A62059B039A1A60EE
:1054F00019E0019B5B6A002B09D1019B9B6A049315
:10550000049B00225A62059B049A5A600BE0019B9F
:105510009B6A0493019B5B6A0393049B039A5A6200
:10552000039B049A9A62059B1B89013B9AB2059BD7
:105530001A81019B00225A62019B00229A62019B00
:105540000022DA6200BF06B07047000000B587B0E5
:10555000039002910192ADF80230029B93F8323031
:10556000072B17DC002B7FDB072B7DD801A252F81D
:1055700023F000BF6F5600006F5600009B550000DF
:105580009B5500006F5600006F5600000556000046
:1055900005560000FF2B6CD066E0029B019A9A67CB
:1055A000029BBDF80220A3F87C20029B089A5A6453
:1055B000039B002B02D00298FFF777FF0299039814
:1055C000FFF7C0FE029B93F83230032B0AD1029BF7
:1055D0005433184604F06AFF0590059B002B01D058
:1055E000FFF743F8029800F06BF8029B002283F863
:1055F0003220029B002283F83120029B002283F894
:10560000302037E0029B019A9A67029BBDF8022086
:10561000A3F87C20029B089A5A64039B002B02D0BB
:105620000298FFF742FF02990398FFF78BFE029B57
:1056300093F83230072B0AD1029B5433184604F0FA
:1056400035FF0590059B002B01D0FFF70EF8029B5C
:10565000042283F83220029B002283F83120029B2F
:10566000002283F8302005E0FEF7FFFF02E000BFD4
:1056700000E000BF00BF07B05DF804FB82B000236C
:10568000019313E0019A13465B0013449B000B4AFD
:1056900013440093009B00221A81009B00221A6091
:1056A000009B00225A60019B01330193019B3F2B19
:1056B000E8D900BF00BF02B0704700BFA04700207C
:1056C00000B583B00190019B93F83330184601F088
:1056D00035FA019B93F83320094B1B789A4203D18A
:1056E000019800F04BF802E0019800F00BF8019BE4
:1056F000184606F0C2FF00BF03B05DF804FB00BF10
:105700009647002084B00190019B93F833301A46ED
:1057100013465B0013449B00174A13440393039BF7
:105720001B68002B0FD1039B01221A81019B0022D1
:105730001A61019B00225A61039B019A1A60039B24
:10574000019A5A6015E0039B1B8901339AB2039BAF
:105750001A81039B1A68019B1A61019B00225A61FE
:10576000039B1B680293029B019A5A61039B019A57
:105770001A6000BF04B07047A047002084B00190B9
:10578000019B93F833301A4613465B0013449B0089
:10579000174A13440393039B1B68002B0FD1039BF1
:1057A00001221A81019B00221A61019B00225A6189
:1057B000039B019A1A60039B019A5A6014E0039BB1
:1057C0001B8901339AB2039B1A81019B00221A6143
:1057D000039B5B680293019B029A5A61029B019AA8
:1057E0001A61039B019A5A6000BF04B0704700BF62
:1057F000A047002086B00190019B1A68019B5B685E
:105800009A423AD0019B1B681A69019B5B689A42D5
:1058100018D1019B1B680593019B5B680493059B52
:10582000049A5A61059B00221A61049B00225A6166
:10583000049B059A1A61019B049A1A60019B059AC0
:105840005A601AE0019B1B680593019B5B680493F7
:10585000059B1B690393039B00225A61059B002251
:105860001A61059B049A5A61049B059A1A61019B6F
:10587000039A1A60019B059A5A6000BF06B07047F0
:1058800000B587B00190019B93F833301A46134658
:105890005B0013449B00264A13440593019B5B69FC
:1058A0000493019B1B690393049B002B1FD1039B53
:1058B000002B0FD1059B00221A81059B00221A6044
:1058C000059B00225A60019B93F83330184601F083
:1058D0005BF91FE0059B1B89013B9AB2059B1A816E
:1058E000039B00225A61059B039A1A6012E0059BF4
:1058F0001B89013B9AB2059B1A81049B039A1A618A
:10590000039B002B03D1059B049A5A6002E0039B82
:10591000049A5A61019B00225A61019B00221A617C
:10592000019B184606F0C7FE00BF07B05DF804FBF8
:10593000A047002000B585B001900091009B039323
:10594000104B1B78012B19D1FDF7B8F80290039B7F
:1059500000225A670C4B1B6893F833301A461346E3
:105960005B0013449B00094A13441846FFF742FFAB
:105970000298FDF7B3F8FFF74DF900E000BF05B05E
:105980005DF804FBA84A00206C460020A0470020D8
:1059900000B585B00390039B002B12D00C4B1B78F5
:1059A000012B10D1039B596F002301930023009317
:1059B000039B084A084804F02BFD084A039B136028
:1059C00002E000BF00E000BF05B05DF804FB00BFCF
:1059D000A84A002035590000504600206C4600209F
:1059E0002DE9F04F93B01190119B002B77D03F4BD6
:1059F0001B78012B75D1119B1B6F002B3CD13C4BAD
:105A00001B6800220093019204F02EFE0346002240
:105A100002930392DDE900452B46DDE90289424607
:105A200002FB03F24B46214601FB03F313442246DB
:105A30004146A2FB01673B441F462E4B1B68013BBE
:105A4000002204930592DDE904120B46F318069335
:105A5000134647EB03030793264B1B68002208936A
:105A60000992DDE90823DDE9060108F0E3F80246C2
:105A70000B46119B5A6735E0119B1B6F00229A461B
:105A8000934604F0F1FD034600229846914608FB38
:105A90000BF20AFB09F31344AAFB08452B441D46ED
:105AA000144B1B68013B00220A930B92DDE90A129A
:105AB0000B46E3180C93134645EB03030D930D4B74
:105AC0001B6800220E930F92DDE90E23DDE90C0125
:105AD00008F0B0F802460B46119B5A6702E000BF7F
