S01000004C6162335F52544F532E733337FB
S113000000100020E9030000E5030000E503000000
S1130010E5030000E5030000E5030000E50300003C
S1130020E5030000E5030000E5030000E50300002C
S1130030E5030000E5030000073C0000E5030000C1
S1130040E5030000E5030000E5030000E50300000C
S1130050E5030000E5030000E5030000E5030000FC
S1130060E5030000E5030000E5030000E5030000EC
S1130070E5030000E5030000E5030000E5030000DC
S1130080E5030000E5030000E5030000E5030000CC
S1130090E5030000E5030000E5030000E5030000BC
S11300A0E5030000E5030000E5030000E5030000AC
S11300B0E5030000E50300009D440000E5030000A3
S11300C0E5030000E5030000E5030000E50300008C
S11300D0E5030000E5030000E5030000E50300007C
S11300E0E5030000E5030000E5030000E50300006C
S11300F0E5030000E5030000E5030000E50300005C
S1130100E5030000E5030000E503000010B5054C1D
S1130110237833B9044B13B10448AFF300800123AF
S1130120237010BD20110020000000007850000052
S113013008B5034B1BB103490348AFF3008008BD66
S1130140000000002411002078500000A3F5803A3C
S1130150704700BF174B002B08BF134B9D46FFF79A
S1130160F5FF00218B460F461348144A121A04F077
S113017083FB0E4B002B00D098470D4B002B00D077
S113018098470020002104000D000D48002802D0EB
S11301900C48AFF3008004F04BFB2000290000F072
S11301A08AF804F031FB00BF0000080000000000E2
S11301B0000000000010002020110020F03A002070
S11301C0000000000000000008B500F045F8BDE89C
S11301D0084000F001B8000030B5164D0FCD87B0CF
S11301E06C460FC495E8030084E80300124801211B
S11301F000F0A0FB1148012100F09CFB10480121F4
S113020000F098FB01214FF48A4000F093FB0D4B62
S11302100D4A1A604FF6FF72DA610C4A1A670C4BEA
S11302200C4A1A6569464FF0804000F09BFA07B00B
S113023030BD00BFA4480000404105000012040086
S113024000A20400008401400000010A0100002A09
S113025000600E400003100010B54FF0011105209E
S113026001F034FD042211460023052001F052FD63
S11302704FF00111052001F029FD0521002304227E
S1130280084601F047FD4FF00111052001F01EFD65
S1130290002301220621052001F03CFD4FF001114D
S11302A0052001F013FDBDE81040002301220721C1
S11302B0052001F02FBD08B504F014F9FFF784FF01
S11302C004F01DF9002008BD7047000008B50421A2
S11302D0112000F00FFF0948012100F02BFB084812
S11302E0022100F007FF0748022100F003FF06483F
S11302F0022100F0FFFE002008BD00BF30253E00B3
S113030002001E00030020000500240008B5214B54
S113031001225A64204BD3F8FC20204B120E12D138
S11303204AF6E851C3F89011D3F8981141F004014A
S1130330C3F89811C3F89021D3F8642142F4005211
S1130340C3F8642101E0012AF6D0154A136A23F4A4
S1130350441343F488131362A2F58052D2F8A431F3
S113036043F4F843C2F8A43103F0A4FD00F034F8D8
S113037003F03EFD03F060FD03F088FDFFF7A6FFE8
S113038003F04CFD00F01CF801F02AFEBDE8084023
S113039001F036BE00000E400081E00F00300E4038
S11303A000400E4001F050BE00F004B803F054BE0B
S11303B070477047014800F09DB800BFBC4800007A
S11303C008B50448012100F0B5FABDE80840FFF77C
S11303D07BBF00BF00350A000148012100F0AABA22
S11303E000350A00FEE7000008B500F069F8064B86
S11303F00649074A8B4201D3FFF7ACFE52F8040BBF
S113040043F8040BF6E700BF001000202011002081
S11304108050000000487047005A6202104AD2F827
S1130420943003F00703023B032B13D8DFE803F0F7
S11304300C14020E0B4B1B68D2F80001C0F304200D
S11304400130B3FBF0F07047074BF4E7074B1B6830
S11304505B08F1E7054BEEE74FF40043ECE700BF20
S113046000400E4010100020081000200C10002046
S113047008B5FFF7D3FF054BD3F80831C3F30823BE
S11304800133B0FBF3F0024B186008BD00400E408E
S113049004100020014B1868704700BF08100020AA
S11304A0054B1860054BD3F8943003F00703022B77
S11304B001D1FFF7DDBF70470810002000400E4057
S11304C0044B054A9A60D3F8882042F47002C3F8BA
S11304D08820704700ED00E0000000004FF4004069
S11304E070474FF47A707047014B1868704700BF2B
S11304F010100020D0E900031847000038B50D465D
S1130500044618B3012824D0022825D0032826D075
S113051004280ED0052825D0831F012B09D90828CB
S113052023D0092823D00A2803D10723EB40DB0773
S113053004D410484FF4797100F05CF930200E4B6C
S11305400121444301FA05F51D5138BD40F2FF3342
S1130550ECE74FF6C073E9E740F6FF73E6E74FF4C4
S11305607F43E3E74FF6FF73E0E70F23DEE74FF443
S11305704043DBE7D44800000CA0004438B50D46E6
S1130580044618B3012824D0022825D0032826D0F5
S113059004280ED0052825D0831F012B09D908284B
S11305A023D0092823D00A2803D10723EB40DB07F3
S11305B004D4104840F2134100F01CF930200E4BD3
S11305C00121444301FA05F51D5138BD40F2FF33C2
S11305D0ECE74FF6C073E9E740F6FF73E6E74FF444
S11305E07F43E3E74FF6FF73E0E70F23DEE74FF4C3
S11305F04043DBE7D44800000CA0004610B50121BD
S11306000446094800F096F90848012100F092F9DF
S1130610A37820786178B3FA83F35B09042201F0AC
S113062079FB002010BD00BF4041050000350A00E1
S11306300346007859789B780BB9FFF75FBFFFF743
S11306409DBF0346007859789B780BB9FFF796BF96
S1130650FFF754BF38B5047845782CB3012C26D065
S1130660022C27D0032C28D0042C0ED0052C27D004
S1130670A31F012B09D9082C25D0092C25D00A2C1D
S113068003D10723EB40DB0704D4114840F22E4189
S113069000F0B0F83022544304F18044012304F5FF
S11306A02044AB40A36138BD40F2FF33EAE74FF684
S11306B0C073E7E740F6FF73E4E74FF47F43E1E7F5
S11306C04FF6FF73DEE70F23DCE74FF44043D9E72F
S11306D0D448000070B504784578064654B3012C1C
S11306E02BD0022C2CD0032C2DD0042C0ED0052C76
S11306F02CD0A31F012B09D9082C2AD0092C2AD0CD
S11307000A2C03D10723EB40DB0704D4134840F23F
S1130710FE3100F06FF830235C43114B234405EBAA
S1130720C305AD00B3782868C0B213B9B0FA80F03D
S1130730400970BD40F2FF33E5E74FF6C073E2E7CE
S113074040F6FF73DFE74FF47F43DCE74FF6FF73B8
S1130750D9E70F23D7E74FF44043D4E7D448000048
S11307600CA01002B0F1804F38B504460D4606D0F7
S11307701D4B984203D01D48A22100F03BF82B6981
S11307803F2B03D91948B62100F034F8EB683F2B0E
S113079003D91648B72100F02DF86B683F2B03D915
S11307A01248B82100F026F86B682A781B0643EA41
S11307B0C27343F400432360EA682B7A43EA02439A
S11307C0A3622A696B7A43EA0243E362AA7A084B7A
S11307D043EA0273636004F1424404F58014640143
S11307E02B7D236038BD00BF000400403849000061
S11307F000FD0004FEE700000C4B984210D90C4B9E
S1130800984210D9022201230A490B640A49D1F8FB
S1130810003123F0807343EA0263C1F8003170476A
S113082000221346F0E70122FBE700BF0048E8017D
S11308300090D0030000C84300400E4038B5114B6F
S11308405B68114B00221C46C9B21D798D4202D14E
S11308501D68854212D20132052A03F10803F4D13E
S11308600A4841F23A41FFF7C5FF032205494B68A4
S113087023F0407343EA02634B6038BD04EBC202C9
S11308805279F3E700000E40944A00009C490000AE
S11308901F2810B5044604D9034840F22F11FFF76E
S11308A0A9FF0120A04010BDFF49000038B5074C46
S11308B041F67133256C2364FFF7ACFD0021FFF78B
S11308C0BDFF0DB10023236438BD00BF00000E40FE
S11308D0044BDB6B5B0604D4034AD2F8C830002B0C
S11308E0FBD1704700300E400000C64308B5FFF747
S11308F0EFFF024B5868C0F3014008BD00300E40C2
S1130900044BD3F84421D20703D4D3F84021104236
S1130910FBD1704700400E4038B5054C41F67133A9
S1130920256C2364FFF78AFF0DB10023236438BDCF
S113093000000E4038B5C0F30323013B092B24D833
S1130940DFE803F02A2D2323051619231C20154C58
S11309500023C0F3043513B11846FFF7D1FF04F1A7
S1130960424404F5801405EBC404A400216038BD9E
S11309700D4C0123EDE70D4C1023EAE70C4C4FF42A
S11309808033E6E70B4C0023E3E7BDE838400A4830
S113099041F6D711FFF72EBF084C0023D9E7084CC6
S11309A00023D6E7B0400E40E0400E40E8400E4041
S11309B0F0400E4050410E409C49000000400E4063
S11309C0C0400E4008B5C0F30313013B092B60D8A7
S11309D0DFE803F0050B0F195F5F1F233C532E4B19
S11309E0D3F80001C0F3042008BD2B4BD3F8140145
S11309F0F8E7294BD3F80001C0F300600130FFF79A
S1130A0047FF0138F0E7244BD3F80C01C0F308206A
S1130A10EAE7214BD3F80801F8E7204B984209D0C4
S1130A201F4B98420CD041F67B311E48FFF7E2FE83
S1130A300020D9E7184BD3F8200100F00F00DEE7BF
S1130A40154BD3F82001C0F30110D8E7164B984298
S1130A5008D003F5B01303F58053984206D041F64D
S1130A609F31E2E70C4BD3F82801ECE70A4BD3F8AB
S1130A702801C0F301200430C1E70C4B984205D192
S1130A80054BD3F8300100F00300ADE741F6AE3179
S1130A90CBE741F6D331C8E700400E40800616008C
S1130AA080162E009C49000090171A00A00914001B
S1130AB008B5FFF787FF013008BD000000F00F0004
S1130AC0013808B5072844D8DFE800F0040F1943BB
S1130AD0232D4335264BD3F8943003F00703023B10
S1130AE0052B3DD8234AD05C08BD214BD3F8803078
S1130AF003F00703013B032B34D81F4AF3E71C4BD5
S1130B00D3F8843003F00703013B032B2AD81B4A94
S1130B10E9E7174BD3F8883003F00703013B032BB5
S1130B2020D8174ADFE7124B1B6F13F0010F0CBFDD
S1130B3007200920D8E70E4BD3F85C3103F03003CB
S1130B40202B11D0302B11D0102B14BF01200720E3
S1130B50CAE70C4841F62771FFF74CFE0020C3E7B3
S1130B600520C1E70120BFE70420BDE70820BBE75B
S1130B7000400E40654A00006B4A00006F4A0000C6
S1130B806B4A00009C49000038B52C4B984205463E
S1130B900AD02B4B984207D02A4B984204D02A48BB
S1130BA041F23A51FFF726FE2846FFF787FF234B11
S1130BB09D42044611D0224B9D4212D0214B9D42AE
S1130BC013D1224BD3F8804004F00704042C2DD811
S1130BD0DFE804F02A11151D19001C4BD3F88440DA
S1130BE0F2E71A4BD3F88840EEE7174841F269510F
S1130BF0FFF700FEEAE7BDE83840FFF76FBCBDE849
S1130C003840FFF771BCBDE83840FFF76ABCFFF716
S1130C1005FC0E4B0446D3F80001C0F3006001301C
S1130C20FFF736FEB4FBF0F4204638BD064841F227
S1130C30BB51FFF7DFFD0024F6E700BF03002000EF
S1130C400500240002001E009C49000000400E40E4
S1130C5038B500F47813B3F5B01F05467FD02ED80D
S1130C60B3F5402F69D011D8B3F5802F54D006D8EE
S1130C7043B1B3F5003F5AD041F607311AE0B3F55A
S1130C80202FF9D1BDE83840FFF7C8BBB3F5801F6A
S1130C9000F0A280B3F5A01F57D0B3F5602FEBD1BD
S1130CA05B48FFF70BFF072800F096800928E9D07E
S1130CB041F2FC215748FFF79DFD002036E0B3F5D3
S1130CC0381F5AD013D8B3F5001F5FD00AD8B3F534
S1130CD0D01F5DD0B3F5F01FCED14F48BDE83840EA
S1130CE0FFF752BFB3F5101FC6D14C48F6E7B3F572
S1130CF0481F57D0B3F5781F00F08280B3F5401F2A
S1130D00BAD14748FFF740FF464B0446D3F82801C1
S1130D10C0F3012004302BE0FFF780FB414BD3F8F4
S1130D200C31C3F308230133B0FBF3F038BDFFF7F4
S1130D3075FB3C4BD3F80831F3E7FFF76FFB394BF6
S1130D40D3F81431C3F30423EDE73448FFF71CFF51
S1130D50344BD3F8303103F00303D840E6E72E4890
S1130D60FFF712FF2F4B0446D3F8200100F00F00C9
S1130D70FFF78EFDB4FBF0F0D8E72748FFF704FF38
S1130D80284BD3F82031C3F30113E6E72448A5E741
S1130D902348FFF7F9FE234B0446D3F82801C0F398
S1130DA00110E5E72048FFF789FE0138072824D819
S1130DB001A353F820F000BFBB0C0000FB0D0000A2
S1130DC0FB0D0000DF0D0000FB0D0000FB0D00001B
S1130DD0D90D0000E70D0000144B1868A6E7BDE824
S1130DE03840FFF757BBFFF719FB0E4BD3F8003120
S1130DF0C3F3042303FB000098E741F2333159E7BE
S1130E00FFF70CFB04462846FFF752FEB2E700BF8B
S1130E1006000E009C49000002001E00050024008C
S1130E200300200000400E40B800320014100020DF
S1130E30014B1880704700BF18100020013838B5E6
S1130E400C46032864D8DFE800F002441A2FB1F5F9
S1130E50007F04D3324842F22571FFF7CBFC314ABC
S1130E60C4F30804D2F86838002BFBD12E4A136A65
S1130E7023F4FF7323F001032343136238BD7F2956
S1130E8004D9274842F23271FFF7B4FC254A04F032
S1130E907F01D2F86038002BFBD1234B1C6924F06E
S1130EA07F040C431C61E9E77F2904D91C4842F202
S1130EB04D71FFF79FFC1B4A04F07F01D2F86438A0
S1130EC0002BFBD1184B9C6924F07F040C439C61DC
S1130ED0D4E7154DD5F890305B0704D5104842F29D
S1130EE05D71FFF787FC6B6A23F0300343F0100356
S1130EF06B62C4F3C311CB1C2A6B0C490F2B01EAA0
S1130F00020128BF0F23214341EA03712963B5E796
S1130F10BDE83840024842F27771FFF76BBC00BF6E
S1130F209C4900000020C84300400E4000F8FF0F19
S1130F30022810B50C4604D0144842F28F71FFF712
S1130F4059FC134B5B6A13F0300F1BD0202C16D0C6
S1130F50302C17D0B4B10D4842F2AA71FFF74AFC05
S1130F600C4B0B4AD2F8901033EA0101FAD15B0220
S1130F704ABFD2F8A0000120C0F3802010BD4FF476
S1130F800003EEE74FF44003EBE700BF9C49000089
S1130F9000400E40FF33E107022808B50CD129B107
S1130FA0094B4FF48060C3F8A80059664AB1BDE804
S1130FB008400220FFF7BCBF044842F2E071FFF78B
S1130FC019FC012008BD00BF00400E409C490000F0
S1130FD004282DE9F04704460F4691461FD83D4B9F
S1130FE03D4A13F800A03D4B13F80080F1B93C4B87
S1130FF033F810301366012303FA08F8D2F890305E
S113100013EA080FFAD1B9F1000F5AD00125324A78
S113101005FA0AF5D2F890302B42FBD151E0BDE835
S1131020F047304842F27461FFF7E4BB2E4B0228CC
S113103033F8106047D1536A13F0300F43D12B4B70
S1131040DB6B5A0504D4274842F28361FFF7D2FBD5
S1131050214A536ADB0705D5536A23F0300343F072
S113106010035362224D1C4BA8441E664FEA8808A5
S1131070D8F80030002BFBD0B9F1000F21D0554433
S1131080AD002B68002BFCD0022C1AD1CFB1124F2B
S1131090796A11F0010118D0012220212046FFF7BE
S11310A07BFFD7F89C40012200210220FFF790FF2C
S11310B0C4F30A010220FFF7C1FE3E662B68002B31
S11310C0FCD0BDE8F0870027CCE72046FFF730FFCF
S11310D0E7E700BF734A000000400E40784A000072
S11310E0884A00009C4900007E4A000000300E40FF
S11310F08004F210112838B50C460FD000F00F0010
S11311000138072800F2EB80DFE810F024006600C5
S11311109A00E9007D00B400E900C200042912D15C
S1131120FFF7B8F90546A8B10021284600F082FA75
S1131130023C0A2C45D8DFE804F04A4731374444DE
S113114044443D0F4D00052904D1664B1D68664B90
S11311509D42E9D80025EBE703200524012211462E
S1131160FFF736FFFFF7A2FB0DB1FFF7B1FB5F4BB3
S11311705C67FFF77DF90446FFF750F9FFF73CFB86
S1131180FFF7B4FB01462046FFF7C6FB002D5DD1F7
S113119028460121BDE8384000F04CBA5448FFF716
S11311A02BFB02200446D9E75148FFF725FB012415
S11311B00320D3E741F6E871BDE838404D48FFF716
S11311C019BB41F6ED71F7E701200324C6E70020BF
S11311D00424C3E70724C5E7062933D14548464D0F
S11311E042F22C01FFF706FB424842F23C01FFF7B2
S11311F001FBFFF713F9FFF7FFFA404B0122C3F895
S11312000826032321E006293D4DEDD0013C092C9D
S11312102BD801A353F824F0711200004F120000E0
S11312205D1200006B1200006B120000F31100004D
S11312306B1200006B1200006B12000049120000D8
S1131240304DE3E72C4DE1E704232B6038BD012248
S113125011460020FFF7BCFE0223F6E701221146E7
S11312601046FFF7B5FE0123EFE742F26701A3E75B
S11312700023EAE7072904D0092906D042F2F10144
S11312809AE71A4B00221A67E0E7184B0122FAE7A3
S11312904C1E072C1ED8DFE804F0201D1D161D1D52
S11312A00F0403221149D1F85C3123F0300343EADF
S11312B00213C1F85C31C9E7012211460420FFF78B
S11312C087FE0122EEE7012211460220FFF780FE8D
S11312D00222E7E742F24F116EE70022E2E742F210
S11312E0262169E70C100020002D310100400E403A
S11312F00148E8019C49000080400E400010C843AA
S113130088400E4084400E4010B504461120FFF77B
S1131310D5FB042804D1274842F20F51FFF76AFA9B
S1131320012200210220FFF753FE63781BB9A37842
S11313300BB9E37823B11F4842F24B51FFF75AFA35
S1131340237C012B04D11B4842F25251FFF752FA7D
S1131350194A217C536A23F00103022908BF43F090
S113136001035362154B2178C3F8A014637AA18852
S113137043EAC123D362136BA07A217A03F07F631B
S11313800343E08843EAC02343EAC11303310F292E
S113139028BF0F2143EA01731363A37B617B1B0105
S11313A043EA0133E17B0B43217B43EA014353636B
S11313B010BD00BF9C49000000400E400000C8431F
S11313C070B505461120FFF779FB022804D10F48B8
S11313D042F2CD51FFF70EFA0D4E0E4BB26B2C7844
S11313E013401C436B7844EAC324AB7844EA036497
S11313F0EB7844EA0324B36BA34205D00021012215
S11314000846FFF7E5FDB46370BD00BF9C490000CA
S113141000400E4080E4FFF8EFF3108072B670478E
S113142000B962B67047EFF31180602383F311882B
S1131430704780F311887047034B5868C0F3080065
S1131440003818BF0120704700ED00E0EFF310836F
S1131450DB0706D4EFF311805F2894BF002001203E
S11314607047012070470000034BD86B80F04000A8
S1131470C0F38010704700BF00300E4038B542EA18
S11314800323B3F5007F05460C463ED019D8B3F5C7
S1131490807F36D00AD883B3012B21D01F4840F671
S11314A08E11FFF7A7F9002213461FE040F2011244
S11314B09342F3D11A4BD3F824321A0EC3F30743E1
S11314C014E0B3F5407F24D040F20132934210D0AF
S11314D040F201229342E1D1114BD3F8283202E0C9
S11314E00F4BD3F82432C3F30722DBB22B60226004
S11314F038BD0B4BD3F82832DFE7094BD3F81C3245
S1131500F1E7074BD3F81C32D7E7054BD3F8203269
S1131510E9E7034BD3F82032CFE700BFBC4A000011
S11315200081E00F08B5FFF79FFF20B1024AD2F80F
S1131530C830002BFBD108BD0000C6431A4B02285B
S113154010B5D3F830320C4612D0032813D001283A
S113155014BFDBB2C3F307231B0323F47042ECB9BB
S11315605AB140F61D111148FFF744F9002010BD8F
S1131570C3F30743F0E71B0EEEE70D49CA6E22F4EE
S113158070421343CB660120F1E70949D1F8EC20FE
S113159022F470421343C1F8EC30F4E7002AF4D08B
S11315A040F62911DFE700BF0081E00FBC4A0000CC
S11315B000300E40F8B504460F46FFF755FF78B3E8
S11315C0FFF7B0FF174B5B68C3F301439C4227D07E
S11315D0154BD3F80061FEF721FF022C05460FD10D
S11315E0124BC6F3042606FB00069E4204D910489B
S11315F040F23161FFF7FEF802212846FFF78CF92B
S1131600C4F1020210239340064A13610FB1FFF79D
S113161089FF2CB921462846BDE8F840FFF77CB97C
S1131620F8BD00BF00300E4000400E40002D3101D7
S1131630BC4A000013B50246FFF716FFC8B152B901
S11316400D4B0191D3F80041FEF7E8FEC4F30422E8
S1131650019902FB0002094B1B7843B1084B9A42E3
S113166005D8022002B0BDE81040FFF7A3BF002058
S1131670F8E702B010BD00BF00400E404211002048
S1131680002D31010378134A002B437870B514BF41
S113169004260026002B8378946914BF02250025B4
S11316A0002B037924F03F0443EA0403C47814BFF5
S11316B008210021012C08BF43F0010333432B43CD
S11316C00B4393611368417923F4403343EA0143A4
S11316D0136070BD00300E40224B4AF6E85210B53C
S11316E0596B5A639A6FD207FCD41B6C13F0030333
S11316F01EBF1D4A0124C2F8B44A834204D110B962
S1131700194BC3F8B40A10BD032B00D09BB9431E78
S1131710012B10D8134A4FF40023D362936FDB07D5
S1131720FCD4136C23F0030343F0010313640D4A48
S1131730536A1C03FCD50B4B9A6FD207FCD41A6C6A
S113174022F0030202431A649A6F12F00102FBD1E1
S11317500038054C18BF01200129C4F8B40A08BF99
S11317605A63D0E700300E400000C6432DE9F04F25
S1131770A0F5E16389B00024B3F5966FCDE9024486
S1131780CDE90444CDE9064406468A46934605D984
S113179040F6EE215548FFF72DF8A3E0B0F5E16FD0
S11317A0534B8CBF0122002249D1D3F81832C3F322
S11317B00721DBB2079104934FF416754FF4966733
S11317C048E0BBF1000F0ED0D9F85C2022F4FE42B1
S11317D022F00202B6F5E16F42EA012218BF0220AC
S11317E00243C9F85C20BAF1000F26D0204600213C
S11317F0FFF7A4FE044610B940F64B31CAE70121B5
S11318004046FFF79BFE044610B940F65331C1E74A
S1131810384A536EBD4238BF3D4623F4FF73E72D6B
S113182023F0010328BFE725B6F5E16F18BF43F0A5
S1131830010343EA4503536654E0012452E0D3F81C
S11318401832190EC3F30743079104934FF49665B6
S11318504FF4E167DFF89C90D9F84C400192C4F34F
S11318600174234605A902A8FFF708FED9F8EC3055
S1131870019AC3F30128434606A903A8FFF7FEFD16
S1131880049BF01B079FF91A4143B1FBF5F2991829
S11318902CBF012300238F421ED3EBB9069A039F6A
S11318A0D31B4343B3FBF5F3FF182CBF01230023E1
S11318B0BA4211D383B9059B029AA3EB020C00FB35
S11318C00CF0B0FBF5F555192CBF01200020AB42FC
S11318D002D300283FF475AF044840F63C31FEF7CC
S11318E089FF0024204609B0BDE8F08FBC4A0000FF
S11318F00081E00F00300E40334A08B5136FD16CFD
S113190011F0010F03F0060344D0002B42D013283A
S113191057D9143813288CBF102308232A49013BB4
S1131920CA6C180322F47F4240EA03231343CB64B6
S1131930264BCA6C1B88C2F303222833013202EB04
S1131940820003EB5303B3FBF0F3C86C013B072B9A
S113195028BF072320F0EE6040EA036343F48013BA
S1131960CB641B4BB3F90030002B12DB03F12800CE
S1131970C0F34E030344500800EB4202B3FBF2F2FF
S11319800B6D072A28BF072223F0700343EA0212D3
S11319900A6508BDD16C01F00101194304D109287D
S11319A00FD90A380928B6E7D26CD20702D50BB989
S11319B02728B0E7074840F69131FEF71BFF0023C4
S11319C0ACE70423AAE700BF00300E403E1100201C
S11319D040110020BC4A00000C4BD3F8803910B5EC
S11319E0044633B9012804D9094840F6AF31FEF75B
S11319F001FF084A136F23F0070323431367064BC1
S1131A00BDE810401888FFF777BF00BF0000C64349
S1131A10BC4A000000300E403C11002038B55A4B3F
S1131A2002229A639B6B03F00F039342044607D090
S1131A30564840F64B21FEF7DDFE0025284638BD0A
S1131A400389C82B04D9514840F65521FEF7D2FE2C
S1131A50A28823899A4204D94C4840F65621FEF7BD
S1131A60C9FEB4F90C30C82B04DD484840F65721B0
S1131A70FEF7C0FE6378012B55D1A388C82B04D987
S1131A8040F65B214148FEF7B5FEE28842F210734E
S1131A909A4204D93D4840F66821FEF7ABFEE3883C
S1131AA04A2B48D9B3F5FA7F47D340F6C312934281
S1131AB094BF4FF000524FF040523349B4F90C0038
S1131AC0CB6C23F0405323F001030028A8BF43F05C
S1131AD001031343CB64D1F8EC30A28843F4407380
S1131AE0C1F8EC302A4B1A80CB6E43F08073CB667E
S1131AF0284BD3F8800900B10420FFF76DFF264B73
S1131B0021891980254BB4F90C20A0881A80FFF78D
S1131B10F3FEA37BA3B1012B22D01C4840F6CE01D7
S1131B20FEF768FE0FE0022BAFD1A3880A2BACD9D5
S1131B304FF42661A6E70022BFE74FF08052BCE7CE
S1131B40114B174A9A65012260881146FFF70EFE71
S1131B50054640B90D4840F69F21FEF74BFE6DE760
S1131B60094B104AEEE7084AD36B43F48063D3630E
S1131B706078FFF7B1FDA37AA3F1200253425341E9
S1131B80044AC2F8943759E700300E40BC4A0000BA
S1131B903C1100200000C6433E11002040110020EB
S1131BA077402057372110B738B50D46044618B38F
S1131BB0012824D0022825D0032826D004280ED0BA
S1131BC0052825D0831F012B09D9082823D00928EB
S1131BD023D00A2803D10723EB40DB0704D41048A1
S1131BE040F21341FEF706FE30200E4B0121444320
S1131BF001FA05F51D5138BD40F2FF33ECE74FF60D
S1131C00C073E9E740F6FF73E6E74FF47F43E3E789
S1131C104FF6FF73E0E70F23DEE74FF44043DBE7C3
S1131C20D44800000CA0004638B50D46044618B34D
S1131C30012824D0022825D0032826D004280ED039
S1131C40052825D0831F012B09D9082823D009286A
S1131C5023D00A2803D10723EB40DB0704D4104820
S1131C604FF47971FEF7C6FD30200E4B0121444339
S1131C7001FA05F51D5138BD40F2FF33ECE74FF68C
S1131C80C073E9E740F6FF73E6E74FF47F43E3E709
S1131C904FF6FF73E0E70F23DEE74FF44043DBE743
S1131CA0D44800000CA0004470B505460E46144606
S1131CB0FFF7B2FB296881EA040202EA06044C40F9
S1131CC02C60BDE87040FFF7ABBB0000032838B5BB
S1131CD004460D4607D9042808D0052803D0A0F1EE
S1131CE00803022B02D835F0011303D008487D21E4
S1131CF0FEF780FD3020604300F180402A464FF01B
S1131D000111BDE8384000F52040FFF7CDBF00BF0A
S1131D101F4B0000F8B50D4616461F460446D8B3BF
S1131D2001283CD002283DD003283ED004280ED000
S1131D3005283DD0831F012B09D908283BD0092849
S1131D403BD00A2803D10723EB40DB0704D4274800
S1131D5040F21D11FEF74EFD26B1294620467FB301
S1131D60FFF722FF3020604300F18040072D00F58B
S1131D70204028D84368AA000F21914023EA010398
S1131D8006FA02F21343436076BB294620463FB36A
S1131D90BDE8F840FFF708BF40F2FF33D4E74FF641
S1131DA0C073D1E740F6FF73CEE74FF47F43CBE730
S1131DB04FF6FF73C8E70F23C6E74FF44043C3E76A
S1131DC0FFF732FFCEE7A5F1080382689B000F21DD
S1131DD0994022EA010206FA03F313438360D3E72E
S1131DE0BDE8F840FFF720BFF8BD00BF1F4B00005F
S1131DF0022838B504460D4603D911484C21FEF794
S1131E00F9FC6B791F2B03D90D484F21FEF7F2FC27
S1131E10AB786A789B0143EA82032A781343EA7811
S1131E2043EA02132A7943EAC2236A7943EA023372
S1131E30AA79043443EA42432401024A135138BDC7
S1131E40834B000000200440014B1860704700BF22
S1131E5000008442427801790378002A827870B5C0
S1131E6014BF04260026002AC27814BF10250025BA
S1131E70002A42794FEA023242EA012242EA03028C
S1131E80837914BF20240024002BC37942EA03433E
S1131E9043EA0603027A43EA050314BF4FF4004100
S1131EA000212343002A14BF4FF4003200220B43C5
S1131EB01343014A136070BD002004402DE9F0472C
S1131EC0374FDDE908840646154699468A4641B9E6
S1131ED0082323704FF4D963A360324B6760E36037
S1131EE0FEE75AB1531E134208D00823237040F270
S1131EF0CB63A3602B4B6760E360FEE7FFF793FAC5
S1131F00002D08BF04254D4538BF4D46D6F808E0DE
S1131F106B1E13EA0E0FC5F1000202EA0E0208BF9F
S1131F200025154409F1FF33AA4413EA0A0FC9F145
S1131F30000202EA0A0208BF4FF0000902EB09039B
S1131F4072680132A2EB0E01A3EB0E0E71458446BA
S1131F5015491AD2B8F1000F02D09B1AC8F8003004
S1131F60162540F22273C4E9023125706760604689
S1131F70FFF75FFA40F2D763A3600A4B25706760EE
S1131F80E36000252846BDE8F087B3600023237092
S1131F904FF4E563C4E902316760FFF74AFAF1E7F9
S1131FA0E74B0000764C00005E4C000030B50C4658
S1131FB085B011461D461BB9039200F019F8039928
S1131FC0064801950023009304220123002C18BF26
S1131FD02046FFF773FF05B030BD00BF1C10002082
S1131FE0024B00221A6001F09BBD00BF4435002063
S1131FF0FEE70000014B1860704700BF4435002025
S11320001FB5104B1B78012B07D1FFF715FAB0B998
S11320104FF0FF3005B05DF804FB684600F000F9AE
S11320209DF800100029F3D101206A4600F0DEFC7F
S11320309DF80000003818BF01204042EAE76FF025
S11320400500E7E7AC3900201FB5FFF7F5F948B9FB
S1132050074B1B78012B02D0684600F00DF84FF0B7
S1132060FF3001E06FF0050005B05DF804FB00BF30
S1132070AC3900207047000070B5044608B9FFF77A
S1132080B7FF264B1E78012E09D013232370244B4F
S1132090636040F2F633A360224BE360FEE7224B19
S11320A01B88012B09D8092323701D4B636040F260
S11320B00143A3601B4BE360FEE71C4D2B784BB13F
S11320C01F232370164B636040F20443A360154B37
S11320D0E360FEE7FFF7BAF948B11F232370104B02
S11320E0636040F20743A3600E4BE360FEE700F039
S11320F0B9FE0F4B0F4A18700F4B2E7018700C233B
S113210058430E4B1B5813600D4A136000F06EFFCA
S113211001F030FDBDE87040FFF76ABF8E36002045
S1132120904C0000534D0000CC3A0020AC39002004
S1132130A3360020C03A0020A2360020AC3600208E
S1132140BC3A0020044BC1F8EC3018B1826802B1EB
S1132150D368C361704700BF134D0000036810B516
S113216033B901220281C1E90933016041601CE0F5
S1132170028991F833400132028193F83320A2425C
S11321800CD85B6A002BF8D14B6243688B625962AE
S1132190ECE7C1E909325162996206E09A6A002AC1
S11321A0F7D1C1E909329962016010BDC36A5BB11C
S11321B09A68526A4AB9C3E902221A8A013A1A820F
S11321C00023C0E90933C3627047D0E9092111B97A
S11321D091629A60F1E74A620AB9D960EDE79162C7
S11321E0EBE738B5C56AAB685B6A4BB1FFF7DEFF56
S11321F0C562014605F10800BDE83840FFF7AEBFEF
S113220038BD0000054B40220021013AC3E900110A
S1132210198103F10C03F8D1704700BFAC360020DC
S1132220F8B5044608B9FFF7E3FE844D6A68D2B1F5
S11322302B68834E4BB92346296B82489200FFF7E3
S1132240B5FE306023780BB1F8BD33607E4B326845
S11322501A607E4A6B6813607D497E4A9B00136056
S11322600A6813440B602A89B2B12346296B7A4861
S11322701201FFF79BFE794B18602378002BE3D102
S1132280774B784A18602B8913807149764A1B0171
S113229013600A6813440B606A69002A27D02B690B
S11322A0724E002B36D12346296B71489200FFF7FA
S11322B07DFE30602378002BC6D16E4B2A7E1A70C7
S11322C06D4BEA691A606D4B32681A606B69EA6893
S11322D064215A43B2FBF1F269490A60694A5C49D4
S11322E01360694A9B0013600A6813440B60674ECD
S11322F06B6B336001F0F2FC01F0AEFE054658B1A1
S113230001232370624B63604FF4D773A360614B66
S1132310E36099E73360D0E701F084FF33689842C3
S113232009D2092323705A4B63604FF4D973A36015
S1132330584BE360FEE701F075FF3368564F98424F
S113234069D13D603268B2F57A7F07D90023002055
S1132350012102F0D7F84FF47A7545434F4B504AA8
S11323601D60002313704F4A13704F4A13604F4A85
S113237013604F4A13704F4A13704F4A204613702C
S113238001F0C4FA0A23B0FBF3F04C4B1860257833
S1132390002D7FF459AF2D4A136853B12A490868B8
S11323A038B10146013B41F8045BFBD1116801F0EF
S11323B04BF8434B00251D7000F04CFDFFF722FF46
S11323C0404B1D60404B1D80264B1B88002B2ED19B
S11323D03E4A002313603E4A13803E4A13603E4A3D
S11323E013803E4A13603E4A2046138000F0A8FF43
S11323F02378002B7FF428AF204600F0C3FD237818
S1132400002B7FF421AF00F047FBFFF733FE354B81
S113241001221A7018E701F005FF2B46024601213C
S1132420002002F06FF83368584338608AE720468A
S113243000F078FC2378002BCAD005E73010002088
S11324404C350020154D0000503500205435002037
S11324504835002058350020284D00005C35002008
S11324606035002064350020683500207435002074
S11324703A4D00006C35002070350020783500207E
S11324807C350020803500208435002088350020EC
S1132490904C0000704D0000903500208C350020D9
S11324A0AC390020AD390020BC3A0020C03A0020ED
S11324B0A2360020A3360020B4390020B039002011
S11324C0CE3A0020883600208C3600209C3600202E
S11324D0A0360020A4360020A8360020B8390020F9
S11324E0BC3900208E36002090F833300B490C2282
S11324F0534330B5CA58CC1832B901252581C0E9F7
S11325000422C850606030BD25890135258100242E
S1132510026144615061C850F5E700BFAC36002049
S113252090F833200B490C235A4330B58C588B1840
S113253034B901251D81C0E904448850586030BD78
S11325401A8901321A81002202615A6842611061BB
S1132550F4E700BFAC36002010B5044690F8330011
S113256000F090FC074B94F833201B789A422046E5
S113257003D1BDE81040FFF7D3BFBDE81040FFF71B
S1132580B3BF00BFA236002038B50C4691F8321014
S113259007290546049807D80239052906D8DFE833
S11325A001F0060605052525FF293AD138BDA267A5
S11325B0A4F87C30606415B12046FFF7F7FD21468E
S11325C02846FFF7BFFD94F83230032B06D104F1FF
S11325D0540001F07BFD08B1FFF70AFD2046FFF728
S11325E0BBFF0023238684F83230DFE7A267A4F818
S11325F07C30606415B12046FFF7D8FD214628469B
S1132600FFF7A0FD94F83230072B06D104F15400F3
S113261001F05CFD08B1FFF7EBFC002323860423E3
S1132620E1E7BDE83840FFF7E3BCD0E9003293426C
S113263010B50FD01C690021A24215BF6161C3E926
S11326400412C3E90412C2E9043116BF1361026023
S11326500460436010BD000070B50446D4E904353D
S113266090F83300104A0C219DB953B941435518D1
S113267053502B816B6000F01BFC0023C4E904332E
S113268070BD484316183189013931815D61135099
S1132690F3E701FB00221189013911812B610BB988
S11326A05560EAE75D61E8E7AC36002013B50446FF
S11326B070B1084B1B78012B0AD10023CDE90033FC
S11326C0054A416F0346054801F044FD044B1C6074
S11326D002B010BDB4390020E12800009835002074
S11326E094350020F8B50446A8B1114B1B78012B92
S11326F011D1056F0F4E7DB90F4B1F6801F092FD8C
S113270032682B46511E0D461946E7FB00512846F8
S113271001F0F8FE6067F8BD01F084FD3268002323
S1132720511E0E461946E5FB00613046F0E700BF36
S1132730B439002088350020B03900202DE9F74352
S11327405D4B1B78012B00D0FEE75C4B93F80080B7
S1132750B8F1000F40F09680FEF765FE584F594CD3
S113276097F80090584D064600F07CFB402803463D
S1132770387000F08A800C20DFF858814343B9F1A7
S1132780400F58F80330236003D100F021FDAFF36C
S1132790008022682B68DFF840919A4218D100200B
S11327A000F03EFE012802D0286801F0B5FA99F83D
S11327B000303BB12068436F0BB9FFF793FF2068EB
S11327C0FFF774FF304603B0BDE8F043FEF731BEB7
S11327D099F800301BB3DFF80491D9F800305B6F2F
S11327E0EBB13A4801A901F0D9FC30B9D9F800306D
S11327F0019A36485A6701F069FCD9F800305A6FDB
S11328006AB993F8330000EB400008EB8000FFF74F
S11328100CFF3B780C22534358F8033023602268A2
S1132820D2F8C0300133C2F8C030294A13680133EA
S113283013603B78402B33D02B682268934215D029
S1132840A3B101F085F92B68D3F8C83098421FD39F
S113285001F07EF92B68D3F8C830C01A2A68D2F880
S1132860CC30C2F8C4001844C2F8CC00246801F08B
S11328706FF9C4F8C80001F0BCF93046FEF7D9FD81
S1132880BFF36F8F03B0BDE8F083C4F80080CCE7DA
S113289001F05EF92B68D3F8C820D2431044DDE779
S11328A000F08EFC2C681CB101F052F9C4F8C80089
S11328B0AFF30080DFE700BFAC390020AD39002062
S11328C0A3360020C03A0020BC3A002098350020EE
S11328D0C43A0020AC360020B439002094350020DE
S11328E038B50E4B1B78012B0D4616D1FEF79BFD18
S11328F000236B670A4B1B6893F83330044609487E
S113290003EB430300EB8300FFF78FFE2046FEF743
S113291090FDBDE83840FFF711BF38BDB439002041
S113292094350020AC360020F8B50C46FEF77BFD4C
S113293094F83230013B0746062B3FD8DFE803F01A
S11329404B3E043E523E040094F83030042B08BF42
S1132950E36A4FF0000608BF5D6AA667A4F87C60CE
S113296018BF354601F0F4F860642046FFF71EFCFA
S113297094F83230032B28D1FFF7EEFD84F832604F
S11329804FF440732386CDB195F8333095F8342055
S11329909A4213D094F833209A420FD1284600F07B
S11329A024FA95F83430834228BF0346D9B295F807
S11329B033308B4202D0284600F068FE3846FEF7DA
S11329C038FDBDE8F840FFF7B9BE072B04BF042368
S11329D084F83230D4E7002384F832302046FFF7FD
S11329E0BBFDEBE7042384F83230E7E72DE9F0413F
S11329F005460E4614460AB9FFF7FAFA0023237077
S1132A001E4B636040F27D33A3601D4BE360FEF711
S1132A100AFDDFF880800746E6B1C8F80060194B6C
S1132A20012D1A781FD0012A0FD1174C174821689D
S1132A30002574311D7001F0B1FB08B123685D6796
S1132A40124801F043FB002323603846BDE8F041FF
S1132A50FEF7EFBC204600F059FF0A23B0FBF3F069
S1132A60C8F80000DBE7002AEFD1094C1D7020688C
S1132A70FFF738FE2068FFF719FEE6E7904C0000E8
S1132A805B4D0000B43900209435002098350020B7
S1132A90BC3A0020B0390020754B1B7882B0DBB201
S1132AA08DF80530734B1B68DBB28DF80730724B21
S1132AB01B78DBB28DF80530704B1B78DBB28DF8D8
S1132AC005306F4B1B68DBB28DF807306D4B1B6A0A
S1132AD0DBB28DF807306C4B1B78DBB28DF8053018
S1132AE06A4B1B78DBB28DF80530694B1B88DBB26F
S1132AF08DF80630674B1B88DBB28DF80630664BC9
S1132B001B78DBB28DF80530644B1B88DBB28DF883
S1132B100630634B1B88DBB28DF80630614B1B8893
S1132B20DBB28DF80630604B93F82830DBB28DF8B9
S1132B3007305E4B1B78DBB28DF805305C4B1B888D
S1132B40DBB28DF806305B4B1B88DBB28DF80630A8
S1132B50594B1B88DBB28DF80630584B1B88DBB20F
S1132B608DF80630564B1B88DBB28DF80630554B7A
S1132B701B88DBB28DF80630534B5B8DDBB28DF8CE
S1132B800730524B1B78DBB28DF80530504B1B8855
S1132B90DBB28DF806304F4B1B78DBB28DF8063074
S1132BA04D4B1B6ADBB28DF807304C4B1B78DBB204
S1132BB08DF805304A4B1B88DBB28DF80630494B43
S1132BC01B88DBB28DF80630474B1B68DBB28DF8EF
S1132BD00730464B1B78DBB28DF80630444B1B782C
S1132BE0DBB28DF80530434B1B78DBB28DF8053032
S1132BF0414B1B78DBB28DF80530404B1B78DBB2C0
S1132C008DF805303E4B1B78DBB28DF805303D4B1B
S1132C101B78DBB28DF805303B4B1B88DBB28DF89B
S1132C2006303A4B1B78DBB28DF80530384B1B88E5
S1132C30DBB28DF80630374B1B88DBB28DF80630DB
S1132C40354B1B78DBB28DF80530344B1B88DBB277
S1132C508DF80630324B1B88DBB28DF806309DF8B8
S1132C6005309DF806309DF8073002B0704700BF6C
S1132C70701000206C10002068100020B435002073
S1132C8074100020B835002078100020E0350020B2
S1132C907A1000207C1000207E1000208410002078
S1132CA08010002082100020E435002086100020CF
S1132CB0881000208A1000208C1000208E10002024
S1132CC09010002092100020143600209410002050
S1132CD096100020A010002044360020A1100020EF
S1132CE0A2100020981000209C100020A6100020A4
S1132CF0A4100020A5100020AA100020AB10002072
S1132D00AD100020AC100020AE100020B010002048
S1132D10A8100020B21000206C3600206E3600206F
S1132D20B4100020154BF0B51C68154B1E88002507
S1132D30721E04F1100192B22B46AFB2BA4213D8FC
S1132D40110104EB0212635053601381D3600D4AE6
S1132D501381D3809680146003700B4B43605D2312
S1132D6083600A4BC360F0BD41E9041321F8083CB9
S1132D7041F8043C01351031DFE700BF6035002025
S1132D806435002090360020774D0000E94D0000A6
S1132D90428910B582B1094B01681C680C60416816
S1132DA01960D988891AD980998811449980002397
S1132DB0C0E9003343818381104610BD9036002062
S1132DC038B504460D461022002101F055FD258139
S1132DD038BD836B00F138028B42186A01D1106050
S1132DE0704703F120020346F6E7836B3F2003B9E3
S1132DF070479A6822B192F83320904228BF104657
S1132E001B6AF4E72DE9F341846B0546012714B9E5
S1132E1002B0BDE8F081D4F8208000F099FE21468C
S1132E20E06206462846FFF7D4FFA16821B984F87A
S1132E30281061624446EAE784F828708B6B2362A9
S1132E40002365621A468C6320460096FFF79CFBBC
S1132E50F0E70000024B0022C3E90022704700BFE4
S1132E607036002008B5064B186828B9586800F079
S1132E7075FE2030C0B208BD00F070FEFAE700BF56
S1132E80703600201F28094A07D84FF0004323FA60
S1132E9000F013680343136070470123C0F13F003F
S1132EA003FA00F0536818435060704770360020EE
S1132EB01F280A4B08D84FF0004222FA00F01A6883
S1132EC022EA00021A6070470122C0F13F0002FAB0
S1132ED000F05A6822EA00025A60704770360020F7
S1132EE0F8B5064608B9FFF783F8FEF79CFA1E4BBF
S1132EF000251D801D4B1D601D4B1D81FEF799FA99
S1132F00FEF791FA1B4B1C68FEF793FA74B9FEF7AF
S1132F108AFA194B1D68FEF78CFA05BB174B7360D0
S1132F20A423B3603570164BF360F8BDFEF77BFA4B
S1132F30C4E93355C4F89450C4F8D850C4F8C05008
S1132F40A4F8BA50A4F8BC50074600F001FEA4F857
S1132F508C50C4F8C800D4F8E8403846D4E7FEF7EB
S1132F6062FAAC85AD69D6E7C2390020B83A0020D0
S1132F7090360020C83A0020A4360020F84D000006
S1132F807E4E000000B5104A104900231370104A09
S1132F908BB013700322CDE90632CDE904330D4A18
S1132FA00890126803920C4A0C48126802920C4A68
S1132FB0126801920B4A127800920B4A00F04EFA02
S1132FC00BB05DF804FB00BFC43900206B4E000059
S1132FD0BE390020803500207C350020C83900200F
S1132FE0783500206C350020FD2F000008B500F076
S1132FF0AFFD014B186008BD843600202DE9F04F69
S113300085B06846FFF76CFF684600F07FFC9DF8CA
S1133010003005460BB1FEF7EBFF5C4B18684FF030
S11330200008A842C24642F2107728BF0A20B5FB26
S1133030F0F500F08DFD564E814600F089FD3368B1
S1133040984267D300F084FD3468041BFEF7EBF963
S1133050504BD3F800B0C3F800A0FEF7EAF94E4B8A
S11330609C425DD94D4B9C425ED94D4B9C425FD3F3
S11330704C4B9C4295BF4FF47A7038460A26012681
S11330800BFB06F3B4FBF0F4B3FBF4F39BB2BB42CB
S1133090454A28BF3B461380444AFB1A9BB213801F
S11330A0434A1188994203D2B8F1000F00D013802B
S11330B0DFF808B1FEF7B7F9DBF80080FEF7B9F9DD
S11330C0B8F1000F37D1FEF7AEF9DBF80080FEF758
S11330D0B0F9B8F1000F3BD1364B1A78012A04D16C
S11330E0684683F80080FFF7FBFE00F021FEFFF73F
S11330F07DFF00F02DFD304B1A68A0EB09008242E1
S113310038BF18606A460021284600F011FC4FF0D1
S113311001088EE700F01CFD3368DB431C1895E7BB
S1133120012042F21076ABE70A204FF47A76A7E743
S113313064200646A4E7FEF776F9D8F8CC30C8E94F
S113314033A3FEF776F9FEF76EF9D8F8E880B5E711
S1133150D8F8D030B8F8BC207343B3FBF4F39BB277
S1133160BB4228BF3B469A4238BFA8F8BC30A8F8F7
S1133170BA3008F1DC0208F1E00140466B4600F089
S113318041F8FEF750F9D8F8E880A0E77035002040
S113319084360020803600207F1A0600FF083D0098
S11331A0005A6202FF83D71778360020C039002006
S11331B0C2390020BE390020B83A0020C83A0020A5
S11331C008B500F0C5FC014B186008BD7C36002032
S11331D010B50A4C00F0BCFC2368984208D300F0F8
S11331E0B7FC2368C01A064A13681844106010BD5F
S11331F000F0AEFC2368DB431844F4E77C3600207F
S1133200803600202DE9F04105460F4616461C463F
S11332100BB9FEF7EDFEFEF70FF948B1202323703A
S11332202F4B636040F2BC63A3602E4BE360FEE768
S11332304FB90A2323702A4B636040F2BF63A36033
S1133240284BE360FEE74EB90A232370244B6360E6
S113325040F2C163A360234BE360FEE7FEF7E3F8AB
S11332600DB9214B1D68D5F80080B8F1000F10D1BD
S1133270FEF7DFF80823C7F80080C6F80080237043
S1133280174B636040F2CC63A360164BE360BDE868
S1133290F081B5F8408018F001080CD1FEF7C9F8A8
S11332A00723C7F80080C6F8008023700C4B6360C6
S11332B040F2D463E8E7FEF7BCF8AA6900231C32A5
S11332C052F8041F51B13B60EA6BD31A33600023F8
S11332D02370034B636040F2EF63D5E70133EFE7FC
S11332E08A4E0000264F0000BC3A0020064A002304
S11332F0C0F8E4301368C0F8E8300BB910607047C8
S1133300C3F8E400FAE700BFC83A0020D0E9392343
S113331042B90A490B600BB1C3F8E4200023C0F89A
S1133320E8307047C2F8E83013B9C0F8E4307047A9
S1133330C3F8E4200023C0F8E830F6E7C83A0020D8
S1133340074A00231360074A1380074A1360037077
S1133350064B436040F621038360054BC36070470E
S1133360C83A0020CC3A0020C43A00208A4E00001B
S1133370034F000038B5F0220446002101F07CFA26
S11333801D4BE3600025002104F18000FFF718FDC8
S1133390C4E92455C4E92C55C4E92655C4E9355576
S11333A0C4E93755C4E91C55C4E93055C4F8A450E0
S11333B0A4F8AC50C4F8A850C4F8A050A564E563C0
S11333C084F8B850A4F84050256584F84C50A4F80B
S11333D0BA50A4F8BC5000F0BBFB4FF08043236309
S11333E0402384F83430054BA563C4E93205C4E9AD
S11333F03955C4F8EC3038BDFD4E0000134D0000C3
S1133400064A031F1C3053F8041F914203D1834220
S1133410F9D1012070470020704700BF4523CDAB90
S113342008B9084B1868026883699A4207D3C16BCC
S113343003EB8100824202D21846FFF7E1BF00206D
S1133440704700BFBC3A0020034A031F1C3043F8F6
S1133450042F8342FBD170474523CDAB2DE9F04FB8
S113346089B0DDE9136A04939DF848300393BDF8ED
S113347058300593DDE917831A9C159FBDF86490B5
S113348006910546029207930CB9FEF7B1FDFDF7CC
S1133490D3FF764A764B834630B16260F022C4E9AA
S11334A0022320212170FEE735B96260F322C4E9CA
S11334B002230A212170FEE7029931B96260F622E3
S11334C0C4E902230A212170FEE736B96260F922B9
S11334D0C4E902230A212170FEE766490968B9425A
S11334E006D96260FC22C4E9022308212170FEE7A8
S11334F0574506D86260FF22C4E9022308212170DF
S1133500FEE703993F2907D962604FF48172C4E949
S1133510022308212170FEE7574905980988814252
S113352007D262604FF48372C4E902230821217038
S1133530FEE72846FFF71EFF4C4A4D4B626019F028
S1133540030F40F20B1284F800B0A260E36070D164
S11335502AF0070A06EB8A0ACDE900790499029851
S11335605346324600F0E8FB864283460AD93223AA
S113357023703E4B63604FF49473A3603C4BE36051
S1133580FEF736FD39463046FFF75EFF029BEB61DE
S1133590049B2B62069BEB60039B384C85F833300D
S11335A085F83430C5F800B0C5F808A0C5F87080B7
S11335B0B8F1000F49D1324BD3F800A000F032FE2D
S11335C02268511E0C4641464346EAFB0041204610
S11335D000F098FF079B6B600023C5E92633C5F80C
S11335E0A03005996867AE6105F18000EF63A5F826
S11335F04090FFF7E5FB284600F09BFBFDF713FF27
S1133600044695F83300FFF73DFC2846FEF788FF93
S11336102846FFF76BFE1B4A1388013313801A4BAD
S11336201B78012B20461AD009B0BDE8F04FFDF7F6
S113363000BF19F0020F8BD000231A4602E046F8AF
S113364023200133BB42FAD182E700F0EBFD22686C
S11336500023511E0C461946E8FB0041B7E7FDF76D
S1133660E8FE09B0BDE8F04FFFF768B88A4E0000E5
S1133670194F00008C4C0000643500208835002070
S1133680B0390020CC3A0020AC39002070B5044693
S11336900D4694F83230072B08D8013B062B0BD883
S11336A0DFE803F01F22221F1F222200FF2B1AD063
S11336B0BDE87040FEF79CBC2046FEF7CDFF2846CF
S11336C084F83350FFF7DEFB264B1B68A3422046E9
S11336D003D1BDE87040FEF707BFBDE87040FEF7B8
S11336E01FBF84F8335070BD94F8303094F83360C1
S11336F084F83350013B072BDAD801A252F823F0A7
S113370021370000E7360000B13600002B370000F7
S11337102137000021370000E73600002137000080
S11337202046BDE87040FEF75CBD2046FEF759FD1B
S1133730E36A5C6AB54294F8333002D2AB42A8D84B
S1133740D1E7B342A5D12046FFF74FFB94F83430BC
S1133750984228BF184694F83330C5B2AB4298D18A
S1133760C1E700BFBC3A00202DE9F04104460D46F4
S113377009B9FEF73DFCFDF75FFE48B120232B702D
S1133780564B6B604FF4DB73AB60554BEB60FEE75D
S1133790544B1B78012B0AD002232B704F4B6B60C8
S11337A04FF4DD73AB604E4BEB60BDE8F0812CB998
S11337B0FDF739FE4C4B1C68FDF73BFEFDF733FE6D
S11337C094F83230072B804608D8013B062B0DD8DD
S11337D0DFE803F04935350F49353500FF2B74D048
S11337E0FDF727FEBDE8F041FEF702BC2046FEF7D8
S11337F033FFA36B13B12046FFF704FB04F18000F1
S1133800FFF7C6FA204600F095FA2046FFF77EFD42
S1133810364A1388013B1380FF2384F83230404634
S1133820FDF707FE00232B702C4B6B6040F2332313
S1133830AB602B4BEB60BDE8F041FEF77FBF94F823
S11338403030082B3ED8DFE803F00805083D1705A3
S1133850050805002046FEF7A9FC94F8323003F071
S1133860FB03032BC5D104F1540000F02FFC002806
S1133870BFD0FEF7BDFBBCE7E36A5E6A204696F85C
S11338803370FEF793FC96F8333096F834209A425E
S11338900CD094F833209A4208D13046FFF7A5FAA9
S11338A096F83410814228BF0146CFB2002384F831
S11338B0303096F83330BB42CFD039463046FFF72C
S11338C0E5FECAE7FEF794FBC7E7FDF7B2FD1F2349
S11338D02B70024B6B6040F2092363E78A4E0000B1
S11338E00F4F0000AC390020BC3A0020CC3A002035
S11338F01FB5054B186800F01EFA69460020FFF753
S113390033FF05B05DF804FBBC3A002000230370CC
S1133910044B436041238360034BC360034B18682B
S1133920704700BF334F0000B04F000088350020BF
S11339302DE9F04F054685B0884614460AB9FEF7CE
S113394057FBFDF779FD6C4F6C4E30B1202323708B
S11339507023C4E902366760FEE7FDF777FD30B1F6
S11339601F2323707323C4E902366760FEE7644BA8
S113397093F80090B9F1010F08D002232370676017
S11339807723C4E9023605B0BDE8F08F5D4B93F8A8
S113399000A0BAF1000F04D02D23237067607C23AC
S11339A0EFE7B8F1000F2FD0B8F1020F2CD0B8F127
S11339B0080F00F09680082323708123C4E902369F
S11339C06760FEE700F022FC4F4B1968A0FB018101
S11339D0029100F027FC534602460299404600F04B
S11339E091FD4A4B1B6893F84C20CAB11A6D1544DB
S11339F01D652D1A25EAE575454A116821B11A6D30
S1133A0091429CBF521A1A65002D49D0404B1B6845
S1133A105BB1AB4209D81E2323706760A923B0E7CA
S1133A202844186583F84C90E6E700F0FBFB364B1E
S1133A3002901A680392FDF7F6FC039A0299DFF8E4
S1133A40CCA04FF000098046CC46501EE5FB010C8B
S1133A504B46614600F056FDDAF800B02D4A0146A7
S1133A60CDE900995B460BF1540000F073FB01258E
S1133A7030B14046FDF7DDFC25706760B92380E76F
S1133A80DAF8000080F83250FEF7E6FD4046FDF714
S1133A90D0FCFEF753FE002323706760D22370E747
S1133AA0FDF7C1FC1C4B1D491A784FF00C0C02EBBE
S1133AB042030CFB02F201EB020C01EB8303895875
S1133AC0DCF804209142054606D1FDF7B2FC002340
S1133AD023706760C82354E71846FEF7A6FD2846FE
S1133AE0D5E7002D7FF46EAF8623C4E9023684F84F
S1133AF000806760FEE700BF334F0000A64F000060
S1133B00AC390020AD39002088350020BC3A0020B3
S1133B109035002029290000A2360020AC36002070
S1133B2008B5FCF7A5FC4FF0E022D2F8FC3D43F0C9
S1133B308073C2F8FC3D054B00225A601A6842F0BB
S1133B4001021A60BDE80840FEF754BA001000E014
S1133B50014B5868704700BF001000E0B0FA80F0D5
S1133B60704790FAA0F0B0FA80F0704790FAA0F095
S1133B70704700BF72B64EF62250CEF2000040F2FB
S1133B80FF01C0F200010170002080F3098843F6B0
S1133B90D020C2F20000016881F3088800F006F921
S1133BA043F2A260C2F2000043F2A361C2F2000138
S1133BB00A78027043F6BC20C2F2000043F6C0212A
S1133BC0C2F200010A680260106880F30988EFF30A
S1133BD0148040F0020020F0040080F31488BFF346
S1133BE06F8FBDE8F04F0FBCBDE8005006BC62B655
S1133BF0084737484FF080510160704734484FF010
S1133C00805101607047602080F3118843F6BC2224
S1133C10C2F200021168002901BF2E4A136823F082
S1133C20010313600ED0EFF309801EF0100F08BFDC
S1133C3020ED108A20E9F04F43F6BC25C2F20005BE
S1133C4029680860744600F0B1F843F6BC21C2F25A
S1133C50000143F6C020C2F2000003680B6043F287
S1133C60A262C2F2000243F2A361C2F20001087828
S1133C70107044F0040E002B0AD01868B0E8F04F1E
S1133C801EF0100F08BFB0EC108A80F309881BE007
S1133C9043F6D021C2F200010868A0F11C0080F3B1
S1133CA0088840F20001C0F20011C16143F6D94115
S1133CB0C0F20001816143F6F101C0F200014161EB
S1133CC04FF6F97ECFF6FF7E002080F3118870470F
S1133CD004ED00E034EF00E000BFFDE70B4B1A6891
S1133CE00B4B02F180421B68013A03EB8203094A41
S1133CF023F0070313604FF0E023D3F8343F03F0BD
S1133D004043B3F1404F00D0FEE7704754350020E4
S1133D1050350020D03A002007B5FDF784FB019010
S1133D20FEF766F9019803B05DF804EBFDF781BB7B
S1133D30704770477047704710B5029C02EB8402CD
S1133D4022F007024FF0807442E90204164842F858
S1133D500C0C4FF012344FF0033042E905044FF0DD
S1133D60023042E907306FF0020C4FF0113342E9A0
S1133D700A3C42F8201C4FF009334FF0103142E95D
S1133D800C314FF008304FF0073342E90E304FF05A
S1133D9006344FF00533104642E910344FF0043333
S1133DA040F8443D10BD00BFF138000010B50D4C83
S1133DB0206848B10C4B1B7833B1436F0BB9FEF745
S1133DC091FC2068FEF772FC084C23684BB100207C
S1133DD0FFF726FB012804D02068BDE81040FFF758
S1133DE09BBF10BDC03A0020B4390020BC3A00206B
S1133DF07FB5094B6A4603F11006154618685968E1
S1133E00144603C40833B3422246F7D12846FDF7CB
S1133E1005FE002004B070BDC44F000013B502239A
S1133E200024684600948DF804408DF80530FDF7B1
S1133E3029FC204602B010BD70B5114B86B001AA12
S1133E4003F11006154618685968144603C408336C
S1133E50B3422246F7D11B8823800A4B0A481B88A9
S1133E604FF6FF72934208BF4FF4B473ADF80A30B3
S1133E70FCF716FB2846FDF747FA002006B070BD94
S1133E80D44F00000001E00F005A620207B5084B4E
S1133E90186801903F2301A88DF80430FDF790FACB
S1133EA06420FCF7C5FF002003B05DF804FB00BFED
S1133EB0E64F000010B50C480C4C6FF00402A02132
S1133EC012F0800FD3B21BBF03F00F03043BA318FF
S1133ED01B1802F101020CBF83F800131976332A70
S1133EE0EED1002010BD00BF00ED00E000E100E0D5
S1133EF030B50F4C41612368ABB92060836011E099
S1133F00891A9A6841611D462AB113465A698A4240
S1133F10F6D955B11A46A8601346836013B15A699D
S1133F20511A596130BD0025F0E72060F5E700BF64
S1133F30EC3A002010B500F05DFA0A4C0A4B1968FF
S1133F402368C31A01B10BB9206010BD4A699A42B3
S1133F502EBFD21A9B1A00224A6128BF0023896807
S1133F60F0E700BFD83A0020EC3A002038B50F4BF8
S1133F700F4D1C682B685B6902201C4400F068FA32
S1133F80204600F03DFA0B492A6800230B70D088C4
S1133F90800702D501230B7038BD9268002AFBD03C
S1133FA050690344012BF2D9F6E700BFD83A002048
S1133FB0EC3A0020E03A002070B516469DF8142033
S1133FC00271049A0260C0E903360022BDF8183079
S1133FD08260C38004460D4600F00CFA3044A061B0
S1133FE03DB9E368656113B121682046984796B1ED
S1133FF03546FDF718FA0646FFF79CFF294620468A
S1134000FFF776FF054B1B68A34201D1FFF7AEFF14
S11340103046FDF70EFA002070BD00BFEC3A0020D8
S11340200C490B6800227BB183420AD183687AB1C0
S1134030936083681BB15A6941690A445A6100203C
S113404070471A469B68EEE70028EFD002207047BD
S11340500B60EEE7EC3A002070B5154EFDF7E3F97E
S113406034780546FCB9134B1C60134B1C60134B8E
S11340701C8000F079F9012000F0EAF900F026FA3A
S11340800F4B0246186020B92846FDF7D2F92320C9
S113409070BD23460B4840F2E73100F033FA0A4B77
S11340A01860012333702846FDF7C3F90020EFE7B9
S11340B0D43A0020EC3A0020D83A0020E23A00201A
S11340C0E83A002018FCFFFFDC3A00202DE9F0411B
S11340D00546F8B1FDF7A7F90F4F0646FFF72AFF8B
S11340E02846D7F80080FFF79BFF044628B13046E6
S11340F0FDF79FF92046BDE8F081A8453B6803D150
S113410023B1FFF733FFF2E7002BF0D1022000F0D8
S1134110ADF9ECE72224EDE7EC3A002038B50C4683
S1134120054698B191B100230B70FDF77CF9084B5B
S11341301B6801210BB122781AB1FDF77AF900202E
S113414038BDAB4214BF9B682170F3E72220F7E728
S1134150EC3A0020F0B587B01F4600230D46164602
S11341608DF817300446A0B10DF11701FFF7D6FF03
S11341709DF817207AB9BDF8343002939DF8303099
S11341802946CDE9007320463346FFF715FF07B0F3
S1134190F0BD2220FBE70320F9E70000F8B50C4648
S11341A00546C8B1C1B1FDF73EF90646FFF7C2FEA8
S11341B06B692360134B1B68AB420FD023B93046A5
S11341C0FDF737F903201CE0596922689B680A440B
S11341D02260F1E700230FE0222012E00A4D276855
S11341E000F008F92B68C01A8742F3D900F002F9ED
S11341F02B68226813441B1A30462360FDF719F913
S11342000020F8BDEC3A0020D83A002038B5FDF77C
S11342100AF9054600F0EEF804462846FDF709F9C8
S1134220204638BD014B1868704700BFE83A0020AB
S1134230C2072DE9F84F04460BD5464A13880133CB
S11342409BB21380FFF776FE434B1B680BB1FFF75D
S11342508DFEA3077CD5FDF7E6F80546FFF76AFE59
S11342604FF0000A3C4FDFF8F8905646D0463C68C1
S11342700CB163698BB1394B0022012E1A7003D142
S1134280BAF1020F08BF1E70002C51D0FFF76EFE6A
S11342902846BDE8F84FFDF7CCB823461A792179B2
S11342A0914288BF1C469B6813B15A69002AF5D015
S11342B02846FDF7BEF8D4F810A0BAF1000F3BD0A1
S11342C000F098F8A269851AEB17AA4578EB030366
S11342D033DA23691344A36101222369D3B1CAB930
S11342E0EB17BAEB050563EB4303002B04DA40F24A
S11342F002414846FCF77EFAFDF795F829468246C6
S11343002046FFF7F5FDA36922691344A3615046D3
S1134310FDF78FF8E368B4F806A0013613B12168FD
S113432020469847FDF77FF80546FFF703FE9EE712
S1134330022000F09BF8ABE75546FDF774F883467E
S11343402046FFF76DFE5846FDF773F80022C4E7D8
S1134350BDE8F88FE23A0020EC3A0020E43A00206D
S1134360EA4F00000020704710B51E4B86B0186855
S1134370596803AA03C2197AD3F8090011700024FA
S1134380B3F80D200190DB7B1748ADF8082001211C
S11343908DF80A30FCF7CEFA8DF80C40FFF7E2FFF7
S11343A08DF8100003A8FDF755FD01A901208DF833
S11343B00440FDF71DFD0D4A536A23F4FF6323F007
S11343C00703536240F2FF73136201209460FDF708
S11343D03BFD074B4FF08042C3F880211A6006B0C2
S11343E010BD00BF61500000A0091400002004406B
S11343F000E100E0014B9868704700BF00200440D2
S1134400114A9368516D9269520704D4CA1A032A57
S113441001D88B420DD1C21A022A98BFD81C0A4B6C
S1134420B0F1FF3F38BF013858655A6A42F00402C0
S11344305A62064A137833B103490B6D43F0020301
S11344400B6500231370704700200440B610002051
S11344508207054A00F00103516A48BF43F0040390
S11344600B435362704700BF00200440820700F0F2
S1134470010309D5074A0121117007490A6D22F089
S1134480030243F004030A6503494A6A22EA030368
S11344904B627047B61000200020044010B5FCF7B2
S11344A0C2FF094A93690446590703F0010003F067
S11344B0070348BF40F002001362FFF7B9FE20462D
S11344C0BDE81040FCF7B5BF0020044008B504481F
S11344D0FCF7BEFB0346FFF745FF23FA00F008BDD7
S11344E0A009140008B5FBF711FFFBF75DFFFBF70C
S11344F05DFFFBF75DFFBDE80840FBF75ABFFBF724
S113450051BF000053B94AB9002908BF00281CBF95
S11345104FF0FF314FF0FF3000F074B9ADF1080CEB
S11345206DE904CE00F006F8DDF804E0DDE90223CD
S113453004B070472DE9F047089D04468E46002BD1
S11345404DD18A42944669D9B2FA82F252B101FA43
S113455002F3C2F1200120FA01F10CFA02FC41EA53
S1134560030E94404FEA1C48210CBEFBF8F61FFAD8
S11345708CF708FB16E341EA034306FB07F1994273
S11345800AD91CEB030306F1FF3080F01F81994226
S113459040F21C81023E63445B1AA4B2B3FBF8F000
S11345A008FB103344EA034400FB07F7A7420AD987
S11345B01CEB040400F1FF3380F00A81A74240F2AF
S11345C007816444023840EA0640E41B00261DB11A
S11345D0D4400023C5E900433146BDE8F0878B424F
S11345E009D9002D00F0EF800026C5E9000130460E
S11345F03146BDE8F087B3FA83F6002E4AD18B42E8
S113460002D3824200F2F980841A61EB0303012091
S11346109E46002DE0D0C5E9004EDDE702B9FFDE7D
S1134620B2FA82F2002A40F09280A1EB0C014FEA28
S11346301C471FFA8CFE0126200CB1FBF7F307FB85
S1134640131140EA01410EFB03F0884208D91CEB28
S1134650010103F1FF3802D2884200F2CB804346C5
S1134660091AA4B2B1FBF7F007FB101144EA0144A4
S11346700EFB00FEA64508D91CEB040400F1FF3133
S113468002D2A64500F2BB800846A4EB0E0440EA21
S113469003409CE7C6F12007B34022FA07FC4CEA2A
S11346A0030C20FA07F401FA06F31C43F9404FEA1D
S11346B01C4900FA06F3B1FBF9F8200C1FFA8CFE32
S11346C009FB181140EA014108FB0EF0884202FA86
S11346D006F20BD91CEB010108F1FF3A80F0888047
S11346E0884240F28580A8F102086144091AA4B204
S11346F0B1FBF9F009FB101144EA014100FB0EFE85
S11347008E4508D91CEB010100F1FF346CD28E45B3
S11347106AD90238614440EA0840A0FB0294A1EB44
S11347200E01A142C846A64656D353D05DB1B3EBA1
S1134730080261EB0E0101FA07F722FA06F3F140D1
S11347401F43C5E9007100263146BDE8F087C2F178
S11347502003D8400CFA02FC21FA03F391400143F0
S11347604FEA1C471FFA8CFEB3FBF7F007FB103629
S11347700B0C43EA064300FB0EF69E4204FA02F4D5
S113478008D91CEB030300F1FF382FD29E422DD928
S1134790023863449B1B89B2B3FBF7F607FB16335D
S11347A041EA034106FB0EF38B4208D91CEB0101DD
S11347B006F1FF3816D28B4214D9023E6144C91A5D
S11347C046EA004638E72E46284605E70646E3E66D
S11347D01846F8E64B45A9D2B9EB020864EB0C0E77
S11347E00138A3E74646EAE7204694E74046D1E786
S11347F0D0467BE7023B614432E7304609E7644434
S1134800023842E7704700BF08B5074B044613B1AE
S11348100021AFF30080054B1868836A03B1984701
S1134820204600F031F800BF000000007450000082
S113483070B50D4D0D4C641BA4100026A64209D181
S11348400B4D0C4C00F022F8641BA4100026A64269
S113485005D170BD55F8043B98470136EEE755F88D
S1134860043B98470136F2E7181100201811002084
S1134870181100201C11002002440346934200D169
S1134880704703F8011BF9E7FEE700BFF8B500BF66
S1134890F8BC08BC9E467047F8B500BFF8BC08BC1D
S11348A09E46704700000000200000000808050034
S11348B03000000010000000010000000010002083
S11348C0FD05000031060000430600005506000007
S11348D0D5060000633A5C73696C69636F6E6C6142
S11348E062735C73696D706C6963697479737475F0
S11348F064696F5C76355C646576656C6F7065724F
S11349005C73646B735C6765636B6F5F73646B5F2D
S113491073756974655C76332E325C706C61746691
S11349206F726D5C656D6C69625C696E635C656D0C
S11349305F6770696F2E6800433A2F53696C69632F
S11349406F6E4C6162732F53696D706C6963697427
S11349507953747564696F2F76352F646576656C49
S11349606F7065722F73646B732F6765636B6F5F12
S113497073646B5F73756974652F76332E322F7091
S11349806C6174666F726D2F656D6C69622F7372E2
S1134990632F656D5F61636D702E6300433A2F531F
S11349A0696C69636F6E4C6162732F53696D706CCF
S11349B0696369747953747564696F2F76352F64EC
S11349C06576656C6F7065722F73646B732F6765A2
S11349D0636B6F5F73646B5F73756974652F763394
S11349E02E322F706C6174666F726D2F656D6C69F9
S11349F0622F7372632F656D5F636D752E63006341
S1134A003A5C73696C69636F6E6C6162735C736941
S1134A106D706C696369747973747564696F5C76BD
S1134A20355C646576656C6F7065725C73646B731A
S1134A305C6765636B6F5F73646B5F7375697465E3
S1134A405C76332E325C706C6174666F726D5C657B
S1134A506D6C69625C696E635C656D5F636F6D6DDF
S1134A606F6E2E68000403020B050C0302010A0397
S1134A7002060A09070301050806020004000001F2
S1134A804000040001001000000280000800020041
S1134A902000000040787D0100000000005A6202FE
S1134AA000010000C0CF6A0002000000809FD50012
S1134AB002010000002D310102020000433A2F538D
S1134AC0696C69636F6E4C6162732F53696D706CAE
S1134AD0696369747953747564696F2F76352F64CB
S1134AE06576656C6F7065722F73646B732F676581
S1134AF0636B6F5F73646B5F73756974652F763373
S1134B002E322F706C6174666F726D2F656D6C69D7
S1134B10622F7372632F656D5F656D752E6300433D
S1134B203A2F53696C69636F6E4C6162732F5369DA
S1134B306D706C696369747953747564696F2F76E9
S1134B40352F646576656C6F7065722F73646B7353
S1134B502F6765636B6F5F73646B5F7375697465EF
S1134B602F76332E322F706C6174666F726D2F65E1
S1134B706D6C69622F7372632F656D5F6770696F07
S1134B802E6300433A2F53696C69636F6E4C616204
S1134B90732F53696D706C696369747953747564A8
S1134BA0696F2F76352F646576656C6F7065722F2B
S1134BB073646B732F6765636B6F5F73646B5F7391
S1134BC0756974652F76332E322F706C6174666F3D
S1134BD0726D2F656D6C69622F7372632F656D5FE3
S1134BE0727463632E6300433A2F53696C69636F75
S1134BF06E4C6162732F53696D706C69636974796B
S1134C0053747564696F2F76352F646576656C6FA0
S1134C107065722F73646B732F6765636B6F5F735B
S1134C20646B5F73756974652F76332E322F706CE5
S1134C306174666F726D2F6D69637269756D5F6FF4
S1134C40732F636F6D6D6F6E2F736F757263652F46
S1134C506C69622F6C69625F6D656D2E63004D65D2
S1134C606D5F536567416C6C6F634578744372691B
S1134C70746963616C004D656D5F536567416C6C6D
S1134C806F63496E7465726E616C000040000000D1
S1134C90433A2F53696C69636F6E4C6162732F538F
S1134CA0696D706C696369747953747564696F2F85
S1134CB076352F646576656C6F7065722F73646BDF
S1134CC0732F6765636B6F5F73646B5F7375697470
S1134CD0652F76332E322F706C6174666F726D2F70
S1134CE06D69637269756D5F6F732F6B65726E6545
S1134CF06C2F736F757263652F6F735F636F72656B
S1134D002E63005461736B2051005461736B205304
S1134D10656D0020004B65726E656C2773204953E6
S1134D205220537461636B004B65726E656C27731C
S1134D30204D736720506F6F6C004B65726E656C0D
S1134D4027732053746174205461736B205374610E
S1134D50636B004F535374617274004F5353636811
S1134D606564526F756E64526F62696E4366670064
S1134D704F53496E697400433A2F53696C69636FEA
S1134D806E4C6162732F53696D706C6963697479D9
S1134D9053747564696F2F76352F646576656C6F0F
S1134DA07065722F73646B732F6765636B6F5F73CA
S1134DB0646B5F73756974652F76332E322F706C54
S1134DC06174666F726D2F6D69637269756D5F6F63
S1134DD0732F6B65726E656C2F736F757263652FBD
S1134DE06F735F6D73672E63004F535F4D7367502E
S1134DF06F6F6C496E697400433A2F53696C696331
S1134E006F6E4C6162732F53696D706C6963697462
S1134E107953747564696F2F76352F646576656C84
S1134E206F7065722F73646B732F6765636B6F5F4D
S1134E3073646B5F73756974652F76332E322F70CC
S1134E406C6174666F726D2F6D69637269756D5FE5
S1134E506F732F6B65726E656C2F736F75726365FC
S1134E602F6F735F737461742E63004B65726E658C
S1134E706C27732053746174205461736B004F5317
S1134E8053746174526573657400433A2F53696CAB
S1134E9069636F6E4C6162732F53696D706C6963E3
S1134EA069747953747564696F2F76352F646576E8
S1134EB0656C6F7065722F73646B732F6765636BBA
S1134EC06F5F73646B5F73756974652F76332E320D
S1134ED02F706C6174666F726D2F6D696372697582
S1134EE06D5F6F732F6B65726E656C2F736F757268
S1134EF063652F6F735F7461736B2E63003F54613E
S1134F00736B004F535F5461736B496E6974004F48
S1134F10535461736B44656C004F535461736B431A
S1134F207265617465004F535461736B53746B43C2
S1134F30686B00433A2F53696C69636F6E4C61620E
S1134F40732F53696D706C696369747953747564F4
S1134F50696F2F76352F646576656C6F7065722F77
S1134F6073646B732F6765636B6F5F73646B5F73DD
S1134F70756974652F76332E322F706C6174666F89
S1134F80726D2F6D69637269756D5F6F732F6B65D9
S1134F90726E656C2F736F757263652F6F735F74B8
S1134FA0696D652E63004F5354696D65446C7900D7
S1134FB04F5354696D655469636B52617465487AE3
S1134FC0476574000002080705000A00C8000000D5
S1134FD0FFFF010001000000A00068010A2007068D
S1134FE0020A0407000000020700433A2F53696CC9
S1134FF069636F6E4C6162732F53696D706C696382
S113500069747953747564696F2F76352F64657686
S1135010656C6F7065722F73646B732F6765636B58
S11350206F5F73646B5F73756974652F76332E32AB
S11350302F706C6174666F726D2F7365727669631D
S1135040652F736C65657074696D65722F73726317
S11350502F736C5F736C65657074696D65722E6314
S11350600001000000050000000002000003000031
S10B507000000000B81000204C
S10B5078D4B0FF7F0100000029
S113508005040100C0EA2101005A6202C0EA2101BC
S113509000800000C0EA2101FFFF0000431100204E
S11350A042350020431100200000000001000000F0
S11350B00000000000010000640000000A0000007D
S11350C00000000000010000060000000A000000CB
S11350D00000000000010000050000000A000000BC
S11350E000000000E8030000010000004904000083
S11350F00100000078563412010028000400010069
S11351000C0010001000010030000C0020004000D2
S113511008000400010030000C000000000300003F
S11351200101280001010400F00001010101030054
S1135130010008009CC701000000000000000000FE
S1135140000000000000000000000000000000005B
S1135150000000000000000000000000000000004B
S1135160000000000000000000000000000000003B
S1135170000000000000000000000000000000002B
S1135180000000000000000000000000000000001B
S11351900000000000000000310100000D010000CB
S90303E910
