:1000000000100020A11B0000E91B0000E91B0000FC
:10001000E91B0000E91B0000E91B0000E91B0000D0
:10002000E91B0000E91B0000E91B0000E91B0000C0
:10003000E91B0000E91B0000BFAB0000E91B00004A
:10004000E91B0000E91B0000E91B0000E91B0000A0
:10005000E91B0000E91B0000E91B0000E91B000090
:10006000E91B0000E91B000059110000E91B00001A
:10007000E91B0000E91B0000E91B0000E91B000070
:10008000E91B0000E91B0000B9110000E91B00009A
:10009000E91B0000E91B0000E91B0000E91B000050
:1000A000E91B0000E91B0000E91B0000E91B000040
:1000B000E91B0000E91B000075C80000E91B0000F7
:1000C000E91B0000E91B0000E91B0000E91B000020
:1000D000E91B0000E91B0000E91B0000E91B000010
:1000E000E91B0000E91B0000E91B0000E91B000000
:1000F000E91B0000E91B0000E91B0000E91B0000F0
:10010000E91B0000E91B0000E91B000010B5054CCD
:10011000237833B9044B13B10448AFF300800123B3
:10012000237010BDA81C0020000000002008010062
:1001300008B5034B1BB103490348AFF3008008BD6A
:1001400000000000AC1C002020080100A3F5803A4C
:10015000704700BF174B002B08BF134B9D46FFF79E
:10016000F5FF00218B460F461348144A121A0EF071
:1001700021FA0E4B002B00D098470D4B002B00D0DE
:1001800098470020002104000D000D48002802D0EF
:100190000C48AFF300800EF0DBF92000290001F0DD
:1001A0000BF90EF0C1F900BF0000080000000000CC
:1001B00000000000001000207011002008860020C0
:1001C000000000000000000084B00190019B1B684B
:1001D00003930023029307E0039B084A1A60074B2E
:1001E0000393029B01330293029B022BF4DD019BDC
:1001F0001A68039B1A6000BF04B07047001000200B
:1002000000B587B0039002910192039B1B68059390
:100210000023049311E0059B5B68B3F1FF3F06D117
:10022000059B029A5A60059B019A9A600CE0059B17
:100230001B680593049B01330493049B032BEADDA5
:100240001821034802F0A4F807B05DF804FB00BFD2
:1002500080EF000084B00190019B1B680393039B17
:100260004FF0FF325A60039B4FF0FF329A60039BBE
:100270001A68019B1A6000BF04B0704784B00190F7
:100280000091009B1B685B680293009B1B689B6846
:100290000393019B1A4602AB93E8030082E8030034
:1002A000019804B0704784B001900091019B03F164
:1002B000424303F58013DA00009B13449B00039331
:1002C000039B1B68184604B0704784B001900091EE
:1002D000019B03F1C0630393039B009A1A6000BF64
:1002E00004B0704784B001900091019B03F18063DA
:1002F0000393039B009A1A6000BF04B0704700008C
:1003000082B00190034A019BC2F8243400BF02B0BE
:10031000704700BF00A00040024BD3F81C341846C1
:10032000704700BF00A0004000B583B003460091B5
:100330008DF807309DF80730002B42D09DF807302C
:10034000012B3BD09DF80730022B34D09DF80730AD
:10035000032B2DD09DF80730042B27D09DF80730B4
:10036000052B20D09DF80730062B1AD09DF80730BA
:10037000072B14D09DF80730082B0ED09DF80730BE
:10038000092B07D09DF807300A2B01D107231AE06B
:10039000002318E04FF4404315E00F2313E000233F
:1003A00011E000230FE04FF6FF730CE000230AE09A
:1003B0004FF47F4307E040F6FF7304E04FF6C0734D
:1003C00001E040F2FF33009AD34003F00103002B19
:1003D00004D140F2B5310B4801F0DAFF9DF8072057
:1003E00013465B0013441B011C3303F1804303F5E8
:1003F000204300991846FFF756FF0346184603B0FE
:100400005DF804FB8CEF000000B583B0034600915B
:100410008DF807309DF80730002B42D09DF807304B
:10042000012B3BD09DF80730022B34D09DF80730CC
:10043000032B2DD09DF80730042B27D09DF80730D3
:10044000052B20D09DF80730062B1AD09DF80730D9
:10045000072B14D09DF80730082B0ED09DF80730DD
:10046000092B07D09DF807300A2B01D107231AE08A
:10047000002318E04FF4404315E00F2313E000235E
:1004800011E000230FE04FF6FF730CE000230AE0B9
:100490004FF47F4307E040F6FF7304E04FF6C0736C
:1004A00001E040F2FF33009AD34003F00103002B38
:1004B00004D14FF479710D4801F06AFF9DF80720CF
:1004C00013465B0013441B010C3303F1804303F517
:1004D00020430121009A01FA02F211461846FFF763
:1004E00001FF00BF03B05DF804FB00BF8CEF00000C
:1004F00000B583B0034600918DF807309DF80730B2
:10050000002B42D09DF80730012B3BD09DF80730DF
:10051000022B34D09DF80730032B2DD09DF80730E7
:10052000042B27D09DF80730052B20D09DF80730ED
:10053000062B1AD09DF80730072B14D09DF80730F2
:10054000082B0ED09DF80730092B07D09DF80730F7
:100550000A2B01D107231AE0002318E04FF440438F
:1005600015E00F2313E0002311E000230FE04FF606
:10057000FF730CE000230AE04FF47F4307E040F6EE
:10058000FF7304E04FF6C07301E040F2FF33009ABE
:10059000D34003F00103002B04D140F213410D4876
:1005A00001F0F6FE9DF8072013465B0013441B0183
:1005B0000C3303F1804303F520430121009A01FA33
:1005C00002F211461846FFF780FE00BF03B05DF847
:1005D00004FB00BF8CEF0000044B1B69034A23F0AF
:1005E0000403136130BF00BF704700BF00ED00E09F
:1005F00000B587B00190009102AB1A4600210E4869
:1006000008F02EF99DF80830002B03D056210B4836
:1006100001F0BEFE02AB1A460021094808F020F99D
:100620009DF80830002B03D05C21044801F0B0FE97
:1006300000BF07B05DF804FB703B002004F0000031
:10064000E83A002000B587B00190009102AB00228B
:100650000121074806F0AEFF9DF80830002B03D0BB
:100660006321044801F094FE00BF07B05DF804FB6D
:10067000703A002004F0000000B58FB00AAB089378
:100680000123079300230693782305930A230493F9
:100690004FF480730393192302930B4B019315239B
:1006A00000930023094A0A490A4808F051FC9DF8C2
:1006B0002830002B03D07B21074801F069FE00BFE2
:1006C0000FB05DF804FB00BF70220020D1080000CD
:1006D00010F00000D01C002004F0000000B58FB026
:1006E0000AAB08930123079300230693782305930D
:1006F0000A2304934FF480730393192302930B4B43
:100700000193152300930023094A0A490A4808F077
:100710001FFC9DF82830002B03D09121074801F0E1
:1007200037FE00BF0FB05DF804FB00BF702600204D
:10073000150A000028F00000C01D002004F0000091
:1007400000B58FB00AAB08930123079300230693EB
:10075000782305930A2304934FF48073039319239A
:1007600002930B4B0193152300930023094A0A4976
:100770000A4808F0EDFB9DF82830002B03D0A72194
:10078000074801F005FE00BF0FB05DF804FB00BF95
:10079000702A0020850B000040F00000B01E0020F1
:1007A00004F0000000B58FB00AAB08930123079353
:1007B00000230693782305930A2304934FF4807350
:1007C0000393192302930B4B0193152300930023EA
:1007D000094A0A490A4808F0BBFB9DF82830002B5B
:1007E00003D0BD21074801F0D3FD00BF0FB05DF875
:1007F00004FB00BF702E0020090D000058F000001F
:10080000A01F002004F0000000B58FB00AAB0893D1
:100810000123079300230693782305930A23049367
:100820004FF480730393192302930B4B0193152309
:1008300000930023094A0A490A4808F089FB9DF8F9
:100840002830002B03D0D321074801F0A1FD00BFC1
:100850000FB05DF804FB00BF703200206D0D00008A
:100860006CF000009020002004F0000000B58FB074
:100870000AAB0893012307930023069300230593F3
:100880000A2304934FF480730393192302930B4BB1
:100890000193162300930023094A0A490A4808F0E5
:1008A00057FB9DF82830002B03D0E921074801F0C1
:1008B0006FFD00BF0FB05DF804FB00BF7036002075
:1008C000150F000080F000008021002004F00000DF
:1008D00000B597B000231493002313930FAB00933C
:1008E000002300220021444807F022FE9DF83C30FE
:1008F000002B03D0F821414801F04AFD05AB4049E7
:100900001846FFF7BBFC03AB3E491846FFF7B6FCA1
:1009100000231593059BB3F1FF3F0ED03848FFF736
:1009200099FC069B1493149B002B0CBF01230023FE
:10093000DBB21A46159B13441593039BB3F1FF3F9B
:100940000ED03048FFF786FC049B1393139B002BBB
:100950000CBF01230023DBB21A46159B9B1A15938B
:10096000159B002BBAD00BAB009300230022002173
:10097000254807F0FDF89DF82C30002B04D040F2FC
:100980000D111E4801F004FD159B012B0AD11F4BD0
:100990005B6801331D4A53601C4B1B6805331B4ABF
:1009A000136009E0194B9B680133184A9360174B99
:1009B0001B68053B154A13600BAB1A460021124811
:1009C00007F0B8FA9DF82C30002B04D04FF48B714F
:1009D0000A4801F0DDFC07AB002202210C4806F0BA
:1009E000E9FD9DF81C30002B3FF478AF4FF48C717B
:1009F000024801F0CDFC71E7C03A002004F000008D
:100A00001810002028100020103B0020C41C0020DB
:100A1000703A002000B597B00EAB0093002300227F
:100A20000021514807F084FD9DF83830002B04D098
:100A30004FF495714D4801F0ABFC4FF0FF33159327
:100A4000002314931CE0149BDBB2184600F0E4FB77
:100A500003468DF84F309DF84F30002B07D0159B83
:100A6000B3F1FF3F03D04FF0FF3315930BE09DF838
:100A70004F30002B01D0149B1593149B013314931A
:100A8000149B032BDFDD0AAB00930023002200211F
:100A9000374807F06DF89DF82830002B04D04FF44C
:100AA0009A71324801F074FC324B1B681293314A40
:100AB000159B13600AAB1A4600212D4807F03AFA3D
:100AC0009DF82830002B04D04FF49D71274801F089
:100AD0005FFC129A159B9A429ED006AB0022002121
:100AE000254809F059FD9DF81830002B04D04FF42B
:100AF0009F711E4801F04CFC06AB0193002300934C
:100B00001E4B002241F288311B4809F091FB9DF8F1
:100B10001830002B04D04FF4A071144801F038FCB9
:100B2000159BB3F1FF3F0DD006AB1946124809F0F3
:100B30003BFC9DF81830002B04D040F243110B48C9
:100B400001F026FC02AB002204210D4806F032FD24
:100B50009DF80830002B3FF45FAF4FF4A3710348BA
:100B600001F016FC58E700BF703B002004F00000C5
:100B7000403B00202C100020C83B00204506000010
:100B8000703A002000B591B000238DF83F3000236B
:100B90008DF83E3007AB0193002300934FF484732C
:100BA00000220721514806F051FA03468DF83D30E6
:100BB00003AB00930023002200214D4806F0D8FF2C
:100BC0009DF80C30002B04D04FF4AD71494801F072
:100BD000DFFB494B1B680E9303AB1A4600214448C8
:100BE00007F0A8F99DF80C30002B04D040F25F11FB
:100BF000404801F0CDFB03AB00930023002200210D
:100C00003E4806F0B5FF9DF80C30002B04D04FF4A1
:100C1000B171384801F0BCFB394B1B680D9303AB35
:100C20001A460021354807F085F99DF80C30002B55
:100C300004D040F267112F4801F0AAFB9DF83D3027
:100C400003F00203002B1BD00E9B4B2B03DC0E9BEF
:100C500013F14B0F03DA01238DF83F3002E000233C
:100C60008DF83F300D9BB3F1FF3F09D00E9B2D2B2C
:100C700003DC0E9B13F12D0F02DA01238DF83F30B8
:100C80009DF83D3003F00403002B02D000238DF8C3
:100C90003E309DF83D3003F00103002B02D00123CC
:100CA0008DF83E309DF83F30002B01D0012300E04D
:100CB00002230C939DF83E30002B01D0042300E06A
:100CC00008230B930C9A0B9B1343194607AB002286
:100CD0000C4806F06FFC9DF81C30002B3FF45AAF17
:100CE00040F28111034801F053FB53E7703A0020B2
:100CF000103B002004F00000C41C0020403B0020FA
:100D00002C100020983A002000B589B003AB019365
:100D1000002300934FF4847300220F21124806F041
:100D200095F903468DF81F309DF81F3003F001033D
:100D3000002B04D004210520FFF7DAFB03E0042197
:100D40000520FFF761FB9DF81F3003F00403002B23
:100D500004D005210520FFF7CBFBD7E705210520AF
:100D6000FFF752FBD2E700BF983A002000B597B0DA
:100D700010AB1946594809F017FB9DF84030002B7D
:100D800004D04FF4D271564801F002FB08AB009337
:100D9000002300220021534807F0CAFB9DF82030B1
:100DA000002B04D04FF4D5714D4801F0F1FA0CAB93
:100DB00000930023002200214B4806F0D9FE9DF845
:100DC0003030002B04D040F2AD11454801F0E0FA7C
:100DD000464B1B6815930CAB1A460021424807F09E
:100DE000A9F89DF83030002B04D04FF4D8713C485E
:100DF00001F0CEFA0CAB00930023002200213C4806
:100E000006F0B6FE9DF83030002B04D040F2B3114E
:100E1000334801F0BDFA374B1B6814930CAB1A46EC
:100E20000021334807F086F89DF83030002B04D0BD
:100E30004FF4DB712A4801F0ABFA05AB159A2E4945
:100E400018460DF0AFFC00238DF81030149B032BD7
:100E500022D801A252F823F0690E0000750E00009E
:100E6000810E00008D0E000004AB244918460DF0E1
:100E7000B9FC17E004AB224918460DF0B3FC11E0B1
:100E800004AB204918460DF0ADFC0BE004AB1E4945
:100E900018460DF0A7FC05E004AB1C4918460DF000
:100EA000A1FC00BF05A9012302930523019305239B
:100EB00000930023002216480AF0CEFD04A9012366
:100EC0000293052301930523009300230222104877
:100ED0000AF0C2FD0AF0E0F958E700BF983B002095
:100EE00004F00000E83A0020103B0020C41C002061
:100EF000403B00202C1000208CF0000098F00000F7
:100F0000A4F00000ACF00000B4F00000C0F000005D
:100F1000F83B002000B585B0FFF75EFB6B461A4634
:100F20000021322008F0EEFEF6E7000000B587B0A1
:100F300000F0F0FA0590059B002B04D04FF4FA71F5
:100F4000234801F025FA002009F0B0FF0590059B29
:100F5000002B04D04FF4FC711D4801F019FA1D4814
:100F60000AF044FA0590059B002B04D04FF4FE7163
:100F7000174801F00DFA174B6FF07F425A60154B7E
:100F800000229A6013480AF0BDFA134911480AF08A
:100F900042FD0123029305230193052300930023BF
:100FA00000220E490B480AF057FD01230293052346
:100FB00001930523009300230222094905480AF002
:100FC0004BFD0AF069F900BF07B05DF804FB00BFF4
:100FD00004F00000F83B002084040100CCF0000085
:100FE000E8F0000000B5A9B04548FFF7EDF8454826
:100FF000FFF7EAF800F094F900F034F9FFF796FFF4
:1010000024AB00224049414805F0B0FF20AB00224C
:101010003F49404805F0AAFF1CAB1A463E493F48ED
:1010200006F03AFD18AB1A463D493E4806F034FD3D
:1010300014AB00223C493D4807F00AFA10AB0022ED
:101040003B493C4807F004FA0CAB00223A493B48C4
:1010500007F0FEF908AB039300230293384B01938A
:10106000022300930A2300223649374809F01CF86E
:1010700004AB039300230293344B019301230093A9
:10108000002341F288322F49314809F00DF89DF8CC
:101090009030002B1FD19DF88030002B1BD19DF884
:1010A0007030002B17D19DF86030002B13D19DF8C4
:1010B0005030002B0FD19DF82030002B0BD19DF824
:1010C0001030002B07D19DF84030002B03D19DF844
:1010D0003030002B04D040F273211E4801F058F943
:1010E000FFF7CAFAFFF7FAFAFFF72AFBFFF75AFBF6
:1010F000FFF78AFBFFF7BAFB00BF29B05DF804FBDE
:10110000181000202810002008F10000703A00207C
:1011100020F10000983A002038F10000103B002038
:101120004CF10000403B002064F10000C03A002078
:1011300074F10000E83A002084F10000703B0020C8
:10114000F105000094F10000983B002045060000E6
:10115000C83B002004F0000000B585B0FFF7DCF8C4
:1011600003461846FFF7CCF806210520FFF7DCF808
:101170000346002B0CBF01230023DBB21A460021DB
:101180000A48FFF73DF86B461A460021084807F069
:1011900067FB9DF80030002B04D040F28B210548FE
:1011A00001F0F6F800BF05B05DF804FB1810002050
:1011B000C03A002004F0000000B585B0FFF7ACF89D
:1011C00003461846FFF79CF807210520FFF7ACF807
:1011D0000346002B0CBF01230023DBB21A4601217A
:1011E0000A48FFF70DF86B461A460021084807F039
:1011F00037FB9DF80030002B04D040F299210548C0
:1012000001F0C6F800BF05B05DF804FB281000200F
:10121000C03A002004F0000084B003468DF8073087
:101220009DF807300D4A52F8233003939DF807309C
:101230000A4A52F823309B08039AD31A03939DF865
:101240000730074A52F82330039A9A4201D9012302
:1012500000E00023184604B0704700BF343C002073
:10126000243C002030B587B0174B6C461D460FCD8F
:101270000FC495E8030084E803000121134801F03E
:1012800049FB0121124801F045FB0121114801F001
:1012900041FB01214FF48A4001F03CFB0E4B0F4A09
:1012A0001A600D4B4FF6FF72DA610B4B0C4A1A674E
:1012B0000C4B0D4A1A656B4619464FF0804001F001
:1012C0000BF800BF07B030BD9CF1000040410500A5
:1012D0000012040000A20400008401400000010A82
:1012E0000100002A00600E400003100082B0034697
:1012F0008DF807309DF90730002B0CDB9DF8073087
:1013000003F01F0205499DF907305B09012000FA2F
:1013100002F241F8232000BF02B0704700E100E074
:1013200000B583B04FF00111052003F04BFC002302
:1013300004220421052003F07BFD4FF0011105205C
:1013400003F040FC002304220521052003F070FD7A
:101350004FF00111052003F035FC00230122062186
:10136000052003F065FD4FF00111052003F02AFC74
:10137000002301220721052003F05AFD01230193D8
:1013800001230093012306220621052003F06CFCB3
:101390000123019301230093012307220721052044
:1013A00003F062FC0A20FFF7A1FF1220FFF79EFF67
:1013B00000BF03B05DF804FB08B50BF0A8FAFFF717
:1013C00011FE0BF0B1FA0023184608BD00BF7047AC
:1013D00008B50421112001F03BFE0121084801F06D
:1013E00099FA0221074801F033FE0221064801F074
:1013F0002FFE0221054801F02BFE0023184608BDF0
:1014000030253E0002001E000300200005002400DD
:10141000024BDB6C1B0EDBB218467047B081E00F4D
:1014200000B583B01A4B01225A64FFF7F1FF03465F
:101430008DF807309DF80730002B0CD1154B4AF67C
:10144000E8521A60144B1B68134A43F004031360FC
:10145000104B00221A609DF80730012B05D80F4B66
:101460001B680E4A43F4005313600D4B1B6A23F4B0
:1014700044130B4A43F4881313620A4B1B68094A4E
:1014800043F4F843136000BF03B05DF804FB00BFF2
:1014900000000E4090310E4098310E4064310E40F5
:1014A00000400E40A4310E4008B5FFF7B9FF0AF026
:1014B000E5FB00F045F80AF02DFB0AF05FFB0AF0AF
:1014C00099FBFFF785FF0AF037FB00F02DF80CF0D1
:1014D00001FD04F08BF804F0ADF800BF08BD08B5BD
:1014E00004F0D8F800BF08BD08B500F00BF800BF45
:1014F00008BD08B50AF0DEFB00BF08BD00BF70479D
:1015000000BF704708B5024800F02EFC00BF08BDC0
:10151000B4F1000008B5012304220F21032003F0D9
:1015200087FC0023184608BD08B50121034801F0D7
:10153000F1F9FFF74BFF00BF08BD00BF00350A00FF
:1015400008B50121024801F0E5F900BF08BD00BF60
:1015500000350A0030B58DB0039002911346ADF806
:101560000630224B05AC1D460FCD0FC495E8030095
:1015700084E80300039B1B680B9301211C4801F0C6
:10158000C9F9039B5B680121184601F0C3F9039B6D
:10159000187B039B5B7B19460023042203F048FC65
:1015A000039B187A039B5B7A19460023042203F0FD
:1015B0003FFC029B0793BDF80630ADF8243005AB25
:1015C00019460B9803F008FE039B9B7B1A02039BB2
:1015D0001B7C1B0613431A460B9B9A670B9B0A2224
:1015E0005A67002318460DB030BD00BFCCF1000093
:1015F00000350A0000B589B0039002910192029B68
:101600000693039B1B680593002307930AE0069A41
:10161000079B13441B781946059803F0CFFE079BE0
:1016200001330793079A019B9A42F0D3002318468F
:1016300009B05DF804FB84B00190019B1B68039323
:1016400000BF039B1B6903F02003002BF9D000BFF0
:1016500000BF04B0704784B001900091019B03F17A
:10166000C0630393039B009A1A6000BF04B07047E5
:1016700084B001900091019B03F180630393039B6D
:10168000009A1A6000BF04B07047000000B583B034
:10169000034600918DF807309DF80730002B42D0AB
:1016A0009DF80730012B3BD09DF80730022B34D03A
:1016B0009DF80730032B2DD09DF80730042B27D041
:1016C0009DF80730052B20D09DF80730062B1AD047
:1016D0009DF80730072B14D09DF80730082B0ED04B
:1016E0009DF80730092B07D09DF807300A2B01D150
:1016F00007231AE0002318E04FF4404315E00F23BE
:1017000013E0002311E000230FE04FF6FF730CE01D
:1017100000230AE04FF47F4307E040F6FF7304E044
:101720004FF6C07301E040F2FF33009AD34003F05C
:101730000103002B04D14FF479710D4800F028FE0D
:101740009DF8072013465B0013441B010C3303F183
:10175000804303F520430121009A01FA02F2114669
:101760001846FFF785FF00BF03B05DF804FB00BF1C
:10177000E4F1000000B583B0034600918DF8073016
:101780009DF80730002B42D09DF80730012B3BD04D
:101790009DF80730022B34D09DF80730032B2DD055
:1017A0009DF80730042B27D09DF80730052B20D05B
:1017B0009DF80730062B1AD09DF80730072B14D060
:1017C0009DF80730082B0ED09DF80730092B07D065
:1017D0009DF807300A2B01D107231AE0002318E0F7
:1017E0004FF4404315E00F2313E0002311E00023E2
:1017F0000FE04FF6FF730CE000230AE04FF47F4345
:1018000007E040F6FF7304E04FF6C07301E040F2DA
:10181000FF33009AD34003F00103002B04D140F2C0
:1018200013410D4800F0B4FD9DF8072013465B00FE
:1018300013441B010C3303F1804303F520430121C2
:10184000009A01FA02F211461846FFF704FF00BFA2
:1018500003B05DF804FB00BFE4F1000000B583B005
:10186000034600918DF807309DF80730002B42D0D9
:101870009DF80730012B3BD09DF80730022B34D068
:101880009DF80730032B2DD09DF80730042B27D06F
:101890009DF80730052B20D09DF80730062B1AD075
:1018A0009DF80730072B14D09DF80730082B0ED079
:1018B0009DF80730092B07D09DF807300A2B01D17E
:1018C00007231AE0002318E04FF4404315E00F23EC
:1018D00013E0002311E000230FE04FF6FF730CE04C
:1018E00000230AE04FF47F4307E040F6FF7304E073
:1018F0004FF6C07301E040F2FF33009AD34003F08B
:101900000103002B04D140F22E410A4800F040FDB3
:1019100009489DF807200121009B994013465B0070
:1019200013441B0103441833196000BF03B05DF872
:1019300004FB00BFE4F1000000A0004010B582B03D
:1019400001900121144800F0E5FF019B9B680022F3
:1019500019461248FFF7FEFD002304220E21032042
:1019600003F066FA002304220D21032003F060FA3D
:101970000B4A019B14460FCB84E80F00094B012250
:101980001A700121019800F00FF8019800F03AF860
:101990000023184602B010BD00350A0034100020A4
:1019A000603C0020703C002000B587B003900B46DF
:1019B0008DF80B30002305939DF80B30002B14D0CD
:1019C0000AF0F4FA0490039B1B7B5B001A46049B0D
:1019D000B3FBF2F101230193002300930023074A94
:1019E00007480AF0E4F9059003E005480AF000FA18
:1019F0000590059B184607B05DF804FB651B0000C9
:101A0000443C002000B585B001900E210320FFF773
:101A1000B1FE019B5B7B18460AF08CFF0423ADF8F6
:101A20000E300DF10E03022219460A48FFF7E2FDBF
:101A30000848FFF700FE019B9B7B18460AF07AFFDF
:101A40000E210320FFF722FE0023184605B05DF8A3
:101A500004FB00BF3410002000B589B00390029150
:101A600001920093029B0693039B1B881A46039BDB
:101A70001B7902FB03F3002B00DA0733DB1005931D
:101A8000019B013301930E210320FFF773FE039B9B
:101A90005B7B18460AF04EFF019B9BB21B029BB278
:101AA00043F001039BB2ADF812300DF11203022294
:101AB00019462448FFF79EFD002307932CE0059B61
:101AC0001A4606991F48FFF795FD059B069A134491
:101AD0000693009B013B079A9A4204D14FF6FF738D
:101AE000ADF812300EE0019B9AB2079B9BB21344F3
:101AF0009BB201339BB21B029BB243F0FF039BB22C
:101B0000ADF812300DF11203022219460D48FFF70D
:101B100071FD079B01330793079A009B9A42CED32E
:101B20000848FFF788FD039B9B7B18460AF002FFDD
:101B30000E210320FFF7AAFD0023184609B05DF827
:101B400004FB00BF34100020044B1B78002B01D095
:101B5000034B00E000231846704700BF703C002094
:101B6000603C002000B583B0019000910D2103205E
:101B7000FFF774FE00BF03B05DF804FB10B584B03E
:101B8000064B6C460FCB84E80F006B461846FFF7F8
:101B9000D5FE0346184604B010BD00BF5CF200003D
:101BA00000B585B000F0A2F80C4B03930C4B0293E8
:101BB0000B4B01930B4B00930AE0039A131D039305
:101BC000029B191D029112681A60019B0433019354
:101BD000019A009B9A42F0D3FEF7BCFA2808010054
:101BE0000010002070110020FEE7000000B583B057
:101BF00000F020F801900A4BD3F808311B0AC3F318
:101C000008030093009B0133019AB2FBF3F30193A5
:101C1000044A019B1360019B184603B05DF804FB66
:101C200000400E4050100020014B1846704700BF86
:101C3000005A620282B01A4BD3F8943003F00703C3
:101C4000023B032B1BD801A252F823F06D1C0000AD
:101C5000651C00005D1C0000751C0000114B1B681A
:101C6000019310E04FF4004301930CE00E4B1B680E
:101C7000019308E00D4B1B685B08019303E00B4BDD
:101C80001B68019300BF064BD3F800311B0A03F019
:101C90001F030133019AB2FBF3F3184602B07047F9
:101CA00000400E404C10002048100020541000202E
:101CB000014B1B68184670474810002000B583B0E0
:101CC0000190084A019B1360074BD3F8943003F04E
:101CD0000703022B01D1FFF789FF00BF03B05DF8B6
:101CE00004FB00BF4810002000400E40064B074A8E
:101CF0009A60054BD3F88830034A43F47003C2F866
:101D0000883000BF704700BF00ED00E00000000019
:101D10004FF40043184670474FF47A7318467047E3
:101D2000014B1B68184670474C10002084B001908E
:101D30000B4B1A68019B13440A4A934202D94FF095
:101D4000FF3309E0064B1B680393054B1A68019BA0
:101D50001344034A1360039B184604B0704700BF46
:101D6000581000200000042000B583B00190019BB2
:101D70005B68019A1268104698470346184603B0FC
:101D80005DF804FB84B001900091019B03F1424394
:101D900003F58013DA00009B13449B000393039B1D
:101DA0001B68184604B0704784B001900091019BF5
:101DB00003F1C0630393039B009A1A6000BF04B051
:101DC000704784B001900091019B03F180630393FD
:101DD000039B009A1A6000BF04B0704700B583B03F
:101DE000034600918DF807309DF80730002B42D054
:101DF0009DF80730012B3BD09DF80730022B34D0E3
:101E00009DF80730032B2DD09DF80730042B27D0E9
:101E10009DF80730052B20D09DF80730062B1AD0EF
:101E20009DF80730072B14D09DF80730082B0ED0F3
:101E30009DF80730092B07D09DF807300A2B01D1F8
:101E400007231AE0002318E04FF4404315E00F2366
:101E500013E0002311E000230FE04FF6FF730CE0C6
:101E600000230AE04FF47F4307E040F6FF7304E0ED
:101E70004FF6C07301E040F2FF33009AD34003F005
:101E80000103002B04D14FF479710D4800F080FA62
:101E90009DF8072013465B0013441B010C3303F12C
:101EA000804303F520430121009A01FA02F2114612
:101EB0001846FFF786FF00BF03B05DF804FB00BFC4
:101EC0006CF2000000B583B0034600918DF8073036
:101ED0009DF80730002B42D09DF80730012B3BD0F6
:101EE0009DF80730022B34D09DF80730032B2DD0FE
:101EF0009DF80730042B27D09DF80730052B20D004
:101F00009DF80730062B1AD09DF80730072B14D008
:101F10009DF80730082B0ED09DF80730092B07D00D
:101F20009DF807300A2B01D107231AE0002318E09F
:101F30004FF4404315E00F2313E0002311E000238A
:101F40000FE04FF6FF730CE000230AE04FF47F43ED
:101F500007E040F6FF7304E04FF6C07301E040F283
:101F6000FF33009AD34003F00103002B04D140F269
:101F7000FE310B4800F00CFA9DF8072013465B0079
:101F800013441B010C3303F1804303F520430099F4
:101F90001846FFF7F7FE0346184603B05DF804FB4A
:101FA0006CF2000000B583B0034600918DF8073055
:101FB0009DF80730002B42D09DF80730012B3BD015
:101FC0009DF80730022B34D09DF80730032B2DD01D
:101FD0009DF80730042B27D09DF80730052B20D023
:101FE0009DF80730062B1AD09DF80730072B14D028
:101FF0009DF80730082B0ED09DF80730092B07D02D
:102000009DF807300A2B01D107231AE0002318E0BE
:102010004FF4404315E00F2313E0002311E00023A9
:102020000FE04FF6FF730CE000230AE04FF47F430C
:1020300007E040F6FF7304E04FF6C07301E040F2A2
:10204000FF33009AD34003F00103002B04D140F288
:1020500013410D4800F09CF99DF8072013465B00E2
:1020600013441B010C3303F1804303F5204301218A
:10207000009A01FA02F211461846FFF795FE00BFDA
:1020800003B05DF804FB00BF6CF2000000B583B044
:10209000034600918DF807309DF80730002B42D0A1
:1020A0009DF80730012B3BD09DF80730022B34D030
:1020B0009DF80730032B2DD09DF80730042B27D037
:1020C0009DF80730052B20D09DF80730062B1AD03D
:1020D0009DF80730072B14D09DF80730082B0ED041
:1020E0009DF80730092B07D09DF807300A2B01D146
:1020F00007231AE0002318E04FF4404315E00F23B4
:1021000013E0002311E000230FE04FF6FF730CE013
:1021100000230AE04FF47F4307E040F6FF7304E03A
:102120004FF6C07301E040F2FF33009AD34003F052
:102130000103002B04D140F22E410A4800F028F997
:1021400009489DF807200121009B994013465B0038
:1021500013441B0103441833196000BF03B05DF83A
:1021600004FB00BF6CF2000000A0004000B585B089
:102170000190019B039301210D4800F0CBFB01214D
:102180000C4800F0C7FB039B1878039B5B7819464B
:10219000039B9B78002B0CBF01230023DBB204229E
:1021A00002F046FE0023184605B05DF804FB00BFB0
:1021B0004041050000350A0000B585B00190019B43
:1021C0000393039B9B78002B08D1039B1A78039BF6
:1021D0005B7819461046FFF701FE07E0039B1A786B
:1021E000039B5B7819461046FFF7DCFE00BF05B085
:1021F0005DF804FB00B585B00190019B0393039B40
:102200009B78002B08D1039B1A78039B5B781946B7
:102210001046FFF7C7FE07E0039B1A78039B5B7825
:1022200019461046FFF7DAFD00BF05B05DF804FB64
:1022300000B585B00190019B0393039B1A78039B23
:102240005B7819461046FFF721FF00BF05B05DF827
:1022500004FB00B585B00190019B0393039B1A78A2
:10226000039B5B7819461046FFF72CFE03468DF85A
:102270000B30039B9B78002B07D19DF80B30002B74
:102280000CBF01230023DBB201E09DF80B301846A0
:1022900005B05DF804FB000000B587B00390029123
:1022A0000192029B1F2B03D991210A4800F070F87C
:1022B000039B03F1424303F58013DA00029B1344AE
:1022C0009B000593059B019A1A6000BF07B05DF85B
:1022D00004FB00BFE4F2000000B583B00190009160
:1022E000019BB3F1804F07D0019B274A934203D053
:1022F000A221264800F04CF8009B1B693F2B03D914
:10230000B621224800F044F8009BDB683F2B03D93C
:10231000B7211E4800F03CF8009B5B683F2B03D9B7
:10232000B8211A4800F034F8009B1B78DB071A46E6
:10233000009B5B681B06134343F40042019B1A6039
:10234000009BDB681B04009A127A1A43019B9A6275
:10235000009B1B691B04009A527A1A43019BDA62A4
:10236000009B9B7A1B0743F0806343F47D43019AF3
:1023700053600198009B1B7D1A460021FFF78CFFDC
:1023800000BF03B05DF804FB000400405CF30000F4
:1023900082B001900091FEE700B583B00190019BEF
:1023A0001F2B04D940F22F110548FFF7F1FF01223E
:1023B000019B02FA03F3184603B05DF804FB00BF6B
:1023C000D4F3000000B587B0039002910192029B04
:1023D0001F2B03D991210A48FFF7DAFF039B03F172
:1023E000424303F58013DA00029B13449B000593DC
:1023F000059B019A1A6000BF07B05DF804FB00BF9F
:1024000050F4000084B001900091019B03F142431D
:1024100003F58013DA00009B13449B000393039B96
:102420001B68184604B07047054B1B6803F0400357
:10243000002B01D1012300E000231846704700BFA4
:102440003C300E4008B5FFF7EFFF034683F0010371
:10245000DBB2002B08D100BF12210448FFF7D2FFE6
:102460000346002BF8D100E000BF08BD04300E4049
:1024700008B5FFF7E7FF044B5B681B0C03F0030391
:10248000DBB2184608BD00BF00300E4000B585B075
:10249000019001230393019B124A934204D8002325
:1024A00003930023029308E0019B0F4A934202D852
:1024B0000123029301E002230293039A10210B48A7
:1024C000FFF780FF094BD3F8003123F08072029BA5
:1024D0001B0606491343C1F8003100BF05B05DF883
:1024E00004FB00BF0048E8010090D00300400E400C
:1024F00082B0034B1B680193019B184602B07047E2
:102500005C10002000B583B0FFF794FB0190074BEF
:10251000D3F800311B0A03F01F030133019A02FBB9
:1025200003F3184603B05DF804FB00BF00400E4003
:1025300000B583B0104800F081FC03468DF80330ED
:102540009DF80330072B05D0092B07D1FFF772FB4D
:1025500001900BE0FFF7CCFF019007E0002301930F
:1025600041F2FC210548FFF713FF00BF019B18460D
:1025700003B05DF804FB00BF06000E0040F500004C
:1025800000B585B00190019B002B1FD1214800F0C0
:1025900055FC03468DF80B3000BF9DF80B30013B16
:1025A000072B29D801A252F823F000BFDB25000039
:1025B000F9250000F9250000E9250000F9250000B3
:1025C000F9250000E1250000F125000041F21C3151
:1025D0001148FFF7DDFE002317E00023039313E00B
:1025E000FFF786FF03900FE0FFF762FB03900BE01D
:1025F000FFF788FF039007E00023039341F2333194
:102600000548FFF7C5FE00BF039B184605B05DF8FF
:1026100004FB00BFB800320040F5000000B585B0F3
:10262000019000911F4B5B6803F0407303930023FC
:10263000029312E01C4A029BDB0013441A79009BB0
:10264000DBB29A4206D1184A029B52F83330019A03
:102650009A4206D9029B01330293029B042BE9D9CB
:1026600000E000BF029B052B07D10323039341F237
:102670003A410E48FFF78CFE05E00B4A029BDB0057
:1026800013445B790393039B1B060393054B5B6821
:1026900023F040720349039B13434B6000BF05B016
:1026A0005DF804FB00000E40B8F5000040F50000A6
:1026B00000B583B00E4B1B6C002B14BF012300230D
:1026C0008DF807300A4B41F671321A64FFF7ACFA05
:1026D000034600211846FFF7A1FF9DF80730002BA5
:1026E00002D0034B00221A6400BF03B05DF804FB64
:1026F00000000E4000B585B0019000910D4B1B6CA1
:10270000002B14BF012300238DF80F30094B41F635
:1027100071321A6400990198FFF780FF9DF80F301D
:10272000002B02D0034B00221A6400BF05B05DF8F5
:1027300004FB00BF00000E4086B001900F230593FC
:10274000019B03330493059B0393039A049B9342D9
:1027500028BF13460293029B1B070293029B184655
:1027600006B07047034B5B6A1B0903F0030318466E
:10277000704700BF00400E4082B00190054B5B6A7D
:1027800023F03002019B1B01024913434B6200BF3F
:1027900002B0704700400E4010B584B00190002395
:1027A0000293019B424A934211D0019B404A9342BB
:1027B00007D8019B3F4A934209D0019B3E4A93426E
:1027C00005D041F23A513D48FFF7E2FD00E000BF7D
:1027D000019800F033FB03460393019B344A934274
:1027E0001AD0019B324A93421DD8019B314A934231
:1027F00004D0019B304A934207D014E0304BD3F809
:10280000803003F00703039313E02D4BD3F884309B
:1028100003F0070303930CE0294BD3F8883003F04F
:102820000703039305E041F269512448FFF7B0FD27
:1028300000BF039B042B2ED801A252F823F000BF47
:1028400091280000552800005D2800006D28000038
:1028500065280000FFF75CFA029024E0FFF760FAB9
:10286000029020E0FFF758FA02901CE0FFF7E2F92F
:102870000446134BD3F800311B0E03F00103013360
:102880001846FFF789FD0346B4FBF3F302930AE011
:102890000023029307E00023029341F2BB51074853
:1028A000FFF776FD00BF029B184604B010BD00BFC5
:1028B0000500240002001E000300200040F5000077
:1028C00000400E4082B00190094BD3F8443103F030
:1028D0000103002B08D100BF054BD3F84021019B19
:1028E0001340002BF8D100E000BF02B0704700BFDA
:1028F00000400E4000BF704700BF704700B583B076
:102900000190019800F0BAF903460133184603B06C
:102910005DF804FB00B587B001900B468DF80330DD
:1029200000230493019B1B0A03F00F03013B092BB7
:1029300032D801A252F823F0612900006D2900006D
:1029400099290000992900006729000073290000D7
:102950007D290000992900008729000093290000A3
:102960001B4B05931EE01B4B05931BE01A4B059375
:1029700018E01A4B05930123049313E0184B0593B9
:10298000102304930EE0174B05934FF48033049308
:1029900008E0154B059305E041F6D7111348FFF702
:1029A000F7FC11E0019B1B0B03F01F030393049B37
:1029B000002B02D00498FFF785FF9DF803301A46DC
:1029C00003990598FFF7FEFC07B05DF804FB00BF14
:1029D00000400E40B0400E40C0400E40E0400E406F
:1029E000E8400E40F0400E4050410E4040F50000DF
:1029F00010B584B00190019B03F47813B3F5781FF0
:102A000000F01B81B3F5781F00F22281B3F5481F57
:102A100000F00E81B3F5481F00F21A81B3F5401F94
:102A200000F0E580B3F5401F00F21281B3F5381FC6
:102A300000F0B680B3F5381F00F20A81B3F5101F1D
:102A400000F0E980B3F5101F00F20281B3F5001F1A
:102A500000F0B580B3F5001F00F2FA80B3F5F01F67
:102A600079D0B3F5F01F00F2F380B3F5D01F00F07A
:102A7000AB80B3F5D01F00F2EB80B3F5B01F7DD073
:102A8000B3F5B01F00F2E480B3F5A01F68D0B3F532
:102A9000A01F00F2DD80B3F5801F00F0C580B3F504
:102AA000801F00F2D580B3F5602F00F0B980B3F538
:102AB000602F00F2CD80B3F5402F3DD0B3F5402F0D
:102AC00000F2C680B3F5202F23D0B3F5202F00F2FB
:102AD000BF80B3F5802F0DD0B3F5802F00F2B88002
:102AE000002B03D0B3F5003F17D0B1E0FFF7A2F8F9
:102AF0000390B5E0FFF79EF803905B4BD3F80C31E1
:102B00001B0AC3F308030133039AB2FBF3F30393E5
:102B1000A6E0FFF78FF80390A2E0FFF78BF8039091
:102B2000514BD3F808311B0AC3F308030133039A4E
:102B3000B2FBF3F3039393E0FFF77CF803904A4B67
:102B4000D3F814311B0A03F01F030133039AB2FBBD
:102B5000F3F3039384E04548FFF71EFE03907FE004
:102B60004348FFF719FE03903F4BD3F8303103F091
:102B70000303039A22FA03F3039371E03B48FFF740
:102B80000BFE0390384BD3F8203103F00F031846A7
:102B9000FFF702FC0246039BB3FBF2F303935FE0F3
:102BA0003248FFF7F9FD03902F4BD3F820311B0972
:102BB00003F00303039A22FA03F3039350E02D4832
:102BC000FFF7EAFD03904BE02A48FFF7E5FD03908D
:102BD000254BD3F828311B0903F003031846FFF7F0
:102BE000DBFB0246039BB3FBF2F3039338E021487F
:102BF000FFF7D2FD03901C4BD3F828311B0A03F0DA
:102C0000030304331846FFF7C7FB0246039BB3FBDD
:102C1000F2F3039324E01648FFF7BEFD03901FE094
:102C2000FFF786FC03901BE0FFF762FC039017E0C0
:102C30000020FFF7A5FC039012E0FEF7FBFF04461F
:102C40000198FFF75BFE0346B4FBF3F3039307E041
:102C50000023039341F607310748FFF799FB00BFB4
:102C6000039B184604B010BD00400E4002001E0039
:102C7000050024000300200040F5000000B585B0E9
:102C80000190019B1B0903F00F030293029B013B80
:102C9000092B00F2B88001A252F823F0C52C0000E5
:102CA000D52C0000E52C0000052D0000072E0000AB
:102CB000072E0000152D0000252D00007F2D00009F
:102CC000DF2D0000564BD3F800311B0A03F01F0321
:102CD0000393A0E0524BD3F814311B0A03F01F03F7
:102CE000039398E04E4BD3F800311B0E03F0010321
:102CF0000393039B01331846FFF74EFB0346013B4A
:102D0000039388E0464BD3F80C311B0AC3F3080346
:102D1000039380E0424BD3F808311B0AC3F3080346
:102D2000039378E0019B3F4A934204D0019B3E4AC3
:102D300093420DD01AE03A4BD3F8203103F00F0341
:102D400003930398FFF728FB0346013B039315E029
:102D5000334BD3F820311B0903F00303039303988B
:102D6000FFF71AFB0346013B039307E0002303939D
:102D700041F67B312D48FFF70BFB00BF4BE0019B79
:102D80002B4A934204D0019B2A4A93420ED01DE065
:102D9000234BD3F828311B0903F003030393039853
:102DA000FFF7FAFA0346013B039317E01C4BD3F8F5
:102DB00028311B0A03F003030393039B04331846D3
:102DC000FFF7EAFA0346013B039307E0002303936E
:102DD00041F69F311548FFF7DBFA00BF1BE0019B6E
:102DE000154A934206D10E4BD3F8303103F003035A
:102DF000039307E00023039341F6AE310B48FFF73E
:102E0000C7FA00BF07E00023039341F6D331074818
:102E1000FFF7BEFA00BF039B184605B05DF804FB40
:102E200000400E408006160080162E0040F500007F
:102E300090171A0090273000A009140000B585B043
:102E4000019001238DF80F30019B03F00F030293D3
:102E5000029B013B072B00F2E78001A252F823F00E
:102E6000812E0000E32E0000212F000029300000F9
:102E7000732F0000B12F000029300000DB2F00006D
:102E8000714BD3F8943003F00703023B052B23D892
:102E900001A252F823F000BFC12E0000B92E00009D
:102EA000B12E0000C92E0000D92E0000D12E000046
:102EB00002238DF80F3013E003238DF80F300FE05D
:102EC00004238DF80F300BE00B238DF80F3007E053
:102ED0000C238DF80F3003E005238DF80F3000BF71
:102EE000ABE0594BD3F8803003F00703042B0ED02E
:102EF000042B10D8012B02D0022B04D00BE00323AB
:102F00008DF80F300BE002238DF80F3007E00A2315
:102F10008DF80F3003E001238DF80F3000BF8CE0F7
:102F2000494BD3F8843003F00703013B032B1BD834
:102F300001A252F823F000BF492F0000512F0000DA
:102F4000612F0000592F000003238DF80F300FE090
:102F500002238DF80F300BE00A238DF80F3007E0C5
:102F600006238DF80F3003E001238DF80F3000BFEA
:102F700063E0354BD3F8883003F00703042B0ED001
:102F8000042B10D8012B02D0022B04D00BE003231A
:102F90008DF80F300BE002238DF80F3007E00A2385
:102FA0008DF80F3003E001238DF80F3000BF44E0AF
:102FB000254B1B6F03F00103002B05D0012B07D11C
:102FC00009238DF80F3007E007238DF80F3003E059
:102FD00001238DF80F3000BF2FE01B4BD3F85C317D
:102FE00003F03003302B16D0302B18D8202B0ED006
:102FF000202B14D8002B02D0102B04D00FE001237B
:103000008DF80F300FE007238DF80F300BE004230D
:103010008DF80F3007E008238DF80F3003E001230F
:103020008DF80F3000BF08E000238DF80F3041F617
:1030300027710648FFF7ACF900BF9DF80F3018461E
:1030400005B05DF804FB00BF00400E4040F50000F5
:1030500000B58BB001900B468DF803300323099324
:1030600003238DF823300023069300230593019B4F
:10307000112B1BD19DF80330042B03D1FEF718FE52
:1030800005900CE09DF80330052B08D100F08CF979
:103090000346BD4A934202D900F086F90590059B8C
:1030A000002B03D00021059800F0A2FD019B03F046
:1030B0000F030493049B013B072B00F25B8101A2E9
:1030C00052F823F0E5300000EF3100002532000017
:1030D0007533000005320000C9320000753300006E
:1030E000F53200009DF80330023B0A2B48D801A2BC
:1030F00052F823F0213100002D3100003931000059
:103100004B3100008131000081310000813100002D
:1031100081310000753100005D310000693100002F
:103120000423099300238DF823302FE00323099310
:1031300001238DF8233029E00223099302238DF81F
:1031400023309248FFF7A2F920E0012309930323DB
:103150008DF823308D48FFF799F917E0052309937F
:1031600003238DF8233011E00723099306238DF8FC
:1031700023300BE041F6E8718548FFF709F9FFE0DD
:1031800041F6ED718248FFF703F9F9E09DF823302D
:10319000062B06D09DF8233001220121184600F0AD
:1031A000D1F9FFF785FAFFF7A5FB059B002B01D0AE
:1031B000FFF748F9774A099B5367FEF717FD03901D
:1031C000FEF738FD03461846FFF760F9FFF750F9A0
:1031D000034619460398FFF78DFA059B002B03D190
:1031E0000121002000F004FDFFF786FBC8E06A4BD8
:1031F00006939DF80330062B04D142F22C0164485B
:10320000FFF7C6F8069B002B01D0069B00E0634B3E
:1032100006939DF80330062B04D142F23C015C4832
:10322000FFF7B6F8069B002B01D0069B00E05C4B35
:1032300006939DF80330013B092B3BD801A252F8BD
:1032400023F000BF6D3200007332000083320000B3
:10325000B5320000B532000093320000B5320000F4
:10326000B5320000B5320000AF32000000230793F2
:1032700026E001220121002000F064F902230793D7
:103280001EE001220121012000F05CF901230793D7
:1032900016E0FEF7CFFC03461846FFF7F7F80122C9
:1032A00002214048FFF78EF80323079308E0042328
:1032B000079305E042F267013548FFF769F85FE0E0
:1032C000069B079A1A605BE09DF80330072B02D03B
:1032D000092B04D007E02F4B00221A6709E02D4B81
:1032E00001221A6705E042F2F1012948FFF750F880
:1032F00046E045E09DF80330013B072B28D801A2AA
:1033000052F823F025330000513300005133000000
:103310003B33000051330000513300002B330000D9
:103320004B3300000023079318E001220121042001
:1033300000F008F90123079310E001220121022087
:1033400000F000F90223079308E00323079305E048
:1033500042F24F110E48FFF71BF811E00D4BD3F866
:103360005C3123F03002079B1B010A491343C1F86B
:103370005C3105E042F226210548FFF709F800BF5D
:103380000BB05DF804FB00BF002D31010148E801DE
:1033900040F5000000400E4080400E4088400E4046
:1033A00084400E40B0400E40014B1B6818467047E9
:1033B0005410002010B584B001901120FFF73EFD9D
:1033C0000346042B04D142F20F513748FEF7E0FFC9
:1033D00001220021022000F0B5F8019B5B78002B50
:1033E00007D1019B9B78002B03D1019BDB78002B3D
:1033F00004D042F24B512C48FEF7CAFF002303933E
:10340000019B1B7C012B04D142F252512648FEF74E
:10341000BFFF019B1B7C022B01D101230393234B94
:103420005B6A23F001022149039B13434B62019B1A
:103430001B781A4608211E48FEF7C4FF019B9B8893
:10344000DB02019A527A1146184A0B43D362174B9A
:103450001B6B03F07F62019BDB88DB021343019A45
:10346000927A1A43019B1B7ADB0142EA0304019B17
:103470001B7A1846FFF760F903460C4A234313638F
:10348000019B5B7B1A03019B9B7B1B011343019AEE
:10349000D27B1A43019B1B7B1B04044913434B63E0
:1034A00000BF04B010BD00BF40F5000000400E405A
:1034B00024400E4000B585B001901120FFF7BEFCFE
:1034C0000346022B04D142F2CD511448FEF760FFAF
:1034D000134B9A6B134B1340019A12781A43019BBA
:1034E0005B78DB021A43019B9B781B061A43019B06
:1034F000DB781B0213430393094B9B6B039A9A429D
:1035000007D001220021002000F01CF8044A039B90
:10351000936300BF05B05DF804FB00BF40F50000F9
:1035200000400E4080E4FFF882B00346ADF806305C
:10353000034ABDF80630138000BF02B0704700BFD9
:103540006010002000B589B003468DF807300B46A7
:103550008DF8063013468DF805309DF80730042BA2
:103560003BD801A252F823F0C5350000B335000066
:103570008F3500007D350000A13500000123059343
:103580000223049301230793002306932BE00423D3
:10359000059308230493032307930223069322E051
:1035A00010230593202304930523079304230693F4
:1035B00019E04023059380230493072307930623F0
:1035C000069310E04FF4807305934FF40073049357
:1035D000092307930823069305E042F274614948E2
:1035E000FEF7D6FE8BE09DF80630002B6AD0002354
:1035F0008DF80F309DF80730022B1BD1FFF7B2F882
:103600000346002B16D1404BDB6B03F48063002B89
:1036100004D142F283613B48FEF7BAFE01238DF8E4
:103620000F303A4B5B6A03F00103012B02D10120FA
:10363000FFF7A2F8354A059B136600BF0699344888
:10364000FEF7E0FE0346002BF8D09DF80530002B76
:1036500055D000BF07992E48FEF7D4FE0346002B35
:10366000F8D09DF80730022B49D19DF80F30002B80
:1036700045D0264B5B6A03F00103012B05D10122E3
:103680002021022000F090F903E00021022000F048
:103690002DF9022000F03EF80290012200210220C4
:1036A000FFF750FF0299022000F074F8174A059BBB
:1036B000136600BF07991648FEF7A4FE0346002BC9
:1036C000F8D01CE0114A049B136600BF0F4BD3F8DF
:1036D00090300121069A01FA02F21340002BF5D135
:1036E0009DF80530002B0AD000BF084BD3F890306E
:1036F0000121079A01FA02F21340002BF5D109B01B
:103700005DF804FB40F5000000300E4000400E4024
:1037100090400E4000B585B003468DF807309DF807
:103720000730013B032B24D801A252F823F000BF3D
:1037300041370000653700004D3700005937000061
:10374000124B1B6AC3F3080303931AE00F4B1B6968
:1037500003F07F03039314E00C4B9B6903F07F039A
:1037600003930EE0094BD3F89C30C3F30A03039391
:1037700007E0002303934FF41C510548FEF708FEB1
:1037800000BF039B184605B05DF804FB00400E40E7
:1037900040F5000000B585B0034600918DF8073074
:1037A0009DF80730013B032B00F28D8001A252F8F7
:1037B00023F000BFC537000079380000053800004D
:1037C0003F380000009BB3F5007F04D342F225711F
:1037D0004248FEF7DDFD009BC3F30803009300BFE2
:1037E0001A213F48FEF70EFE0346002BF8D13D4B51
:1037F0001B6A23F4FF7323F001033A49009A134331
:103800000B6266E0009B7F2B04D942F23271334891
:10381000FEF7BEFD009B03F07F03009300BF18215D
:103820002F48FEF7EFFD0346002BF8D12D4B1B6907
:1038300023F07F022B49009B13430B6149E0009B5F
:103840007F2B04D942F24D712448FEF7A1FD009B65
:1038500003F07F03009300BF19212148FEF7D2FD3A
:103860000346002BF8D11F4B9B6923F07F021D49B3
:10387000009B13438B612CE01A4BD3F8903003F07C
:103880000403002B04D042F25D711448FEF780FD62
:10389000144B5B6A23F03003124A43F01003536267
:1038A000009BDB0903F00F031846FEF745FF03906A
:1038B0000C4B1A6B0C4B1340009A1A430949039B9B
:1038C00013430B6305E042F277710448FEF760FD95
:1038D00000BF00BF05B05DF804FB00BF40F500006D
:1038E00040410E4000400E4000F8FF0F00B585B08B
:1038F00003460A468DF8073013468DF806309DF8CA
:103900000730022B04D042F28F712448FEF740FDAD
:10391000FEF728FF0346002B03D14FF44003039327
:103920001DE09DF80630302B0DD0302B0FDC002B26
:1039300005D0202B0BD14FF4000303930FE04FF47D
:10394000400303930BE04FF44003039307E0144B51
:10395000039342F2AA711148FEF71AFD00BF00BF9F
:10396000104BD3F89020039B1340039A9A42F7D14F
:10397000039B03F48003002B0AD00A4BD3F8A0303A
:1039800003F48063002B14BF01230023DBB200E0AB
:103990000123184605B05DF804FB00BF40F50000A8
:1039A000FF33E10700400E4000B583B003468DF8B9
:1039B00007300B468DF8063013468DF805309DF81C
:1039C0000730022B1AD19DF80630002B08D0114B7E
:1039D0004FF48062C3F8A8200E4A9DF80630536663
:1039E0009DF80530002B0FD09DF806209DF807307C
:1039F00011461846FFF77AFF034607E042F2E071EE
:103A00000548FEF7C5FC00E000BF0123184603B0DF
:103A10005DF804FB00400E4040F5000082B0EFF37B
:103A200010830093009B019372B600BF019B184660
:103A300002B0704782B00190019B002B01D162B6A9
:103A400000BF00BF02B0704784B0EFF31183019351
:103A5000019B039360230293029B83F3118800BFB1
:103A6000039B184604B0704784B00190019B0393F8
:103A7000039B83F3118800BF00BF04B070470000B0
:103A8000054B5B68C3F30803002B14BF012300231D
:103A9000DBB21846704700BF00ED00E082B0EFF3E4
:103AA00010830193019B03F00103012B05D0EFF379
:103AB00011830093009B5F2B01D9012300E00023B9
:103AC00003F00103DBB2184602B0704700B587B0BF
:103AD000039002910192029B1F2B03D991210A4866
:103AE000FEF756FC039B03F1424303F58013DA0013
:103AF000029B13449B000593059B019A1A6000BF2B
:103B000007B05DF804FB00BFE0F5000084B0019051
:103B10000091019B03F1424303F58013DA00009BFF
:103B200013449B000393039B1B68184604B0704723
:103B3000054B1B6803F04003002B01D1012300E07B
:103B400000231846704700BF3C300E4008B5FFF711
:103B5000EFFF034683F00103DBB2002B08D100BF67
:103B600012210448FFF7D2FF0346002BF8D100E0F2
:103B700000BF08BD04300E4008B5FFF7E7FF044B57
:103B80005B681B0C03F00303DBB2184608BD00BFE3
:103B900000300E4082B00190024A019BD36200BF08
:103BA00002B0704700300E40014B5B6A1846704708
:103BB00000300E40024B00225A6300BF704700BF26
:103BC00000300E40024B4AF6E8525A6300BF70477D
:103BD00000300E4082B003468DF807309DF8073064
:103BE000C3F10203102202FA03F3184602B0704731
:103BF00000B585B001900B468DF80330FFF798FFB4
:103C0000034683F00103DBB2002B2AD1019B002B7A
:103C10000FD1164BD3F800311B0A03F01F030133F9
:103C20000293FEF707F80246029B02FB03F303939D
:103C300001E0019B03930E4B1B78002B0AD0039BE2
:103C40000C4A934206D89DF803301946022000F032
:103C500013F807E09DF803301946002000F00CF837
:103C600000E000BF05B05DF804FB00BF00400E405F
:103C7000783C0020002D310110B586B003460A467D
:103C80008DF8073013468DF80630FFF751FF0346D5
:103C900083F00103DBB2002B3FD1FFF76DFF03463A
:103CA0001A469DF80730934239D01E4BD3F80031A5
:103CB0001B0A03F01F0301330593FDF7BBFF0490BC
:103CC000049B059A02FB03F303939DF80730022B34
:103CD0000CD1039B144A934204D940F2316113483A
:103CE000FEF756FB02210498FEF704FD104C9DF8E8
:103CF00007301846FFF76EFF034623619DF8063034
:103D0000002B01D0FFF722FF9DF80730002B07D1D1
:103D100000210498FEF7EEFC02E000BF00E000BFC7
:103D200006B010BD00400E40002D310158F60000D5
:103D300000300E4084B001901D4B9B690393039BA0
:103D400023F03F030393019B1B78002B01D0042237
:103D500000E00022019B5B78002B01D0022300E0F1
:103D600000231343019A9278002A01D0082200E030
:103D700000221343019AD278012A01D1012200E0E6
:103D800000221343019A12791343039A13430393B6
:103D9000074A039B9361064B1B6823F44032019B47
:103DA0005B791B04024913430B6000BF04B07047EA
:103DB00000300E40012318467047000000B583B064
:103DC0000C4BDB6E0B4A43F08073D36600210A482C
:103DD000FFF79CFE0190019B002B03D0042000F014
:103DE00075FD02E0002000F071FD00BF03B05DF83A
:103DF00004FB00BF00300E404C300E4000B58BB0CD
:103E000001230993099B1B050893424BDB6C1B0A9A
:103E100003F00F030793404B1B881A463E4B1B8849
:103E200028335B08134403F12801079B5A1C1346EF
:103E30009B001344B1FBF3F3013B0693069B0593F0
:103E400007230493049A059B934228BF13460693C5
:103E5000069B1B060693069B23F0E063002B04D011
:103E600040F689012D48FEF793FA089B23F4E003FE
:103E7000002B04D040F68A012848FEF789FA254B2A
:103E8000DB6C23F0EE620699089B0B432149134338
:103E9000CB64234BB3F90030002B36DB204BB3F956
:103EA0000030ADF80E30BDF80E20BDF80E302833CE
:103EB0005B08134403F12802079B01335900079B59
:103EC00001335B080B44B2FBF3F30293029B0193B3
:103ED00007230093009A019B934228BF1346029345
:103EE000029B1B010293029B23F07003002B04D062
:103EF00040F6A2010948FEF74BFA064B1B6D23F072
:103F000070020449029B13430B6500BF0BB05DF8C0
:103F100004FB00BF00300E40723C002058F6000049
:103F2000763C002082B001900B46ADF80230019B38
:103F30009AB2044B1A80044ABDF80230138000BFC5
:103F400002B07047723C0020763C002000B583B080
:103F500003468DF807309DF80730002B02D0012B67
:103F600004D007E0084B094A9A6509E0064B084A65
:103F70009A6505E040F6CE010648FEF709FA00BF53
:103F800000BF03B05DF804FB00300E4077402057BF
:103F9000372110B758F6000000B585B003468DF8FC
:103FA00007300B468DF8063013468DF80530344B3C
:103FB000D3F8803103939DF80630032B1CD801A25F
:103FC00052F823F0D53F0000DD3F0000E73F00003E
:103FD000F13F0000039BDBB2039314E0039B1B0A39
:103FE000DBB203930FE0039B1B0CDBB203930AE0ED
:103FF000039B1B0E039306E040F612112148FEF7C7
:10400000C7F9002338E09DF80530002B16D1039B3B
:104010001B030393039B23F47043002B06D040F64D
:104020001D111848FEF7B4F9002325E0164BDB6E8E
:1040300023F470421449039B1343CB669DF805306B
:10404000012B18D1039B1B030393039B23F47043A1
:10405000002B06D040F629110A48FEF799F90023F3
:104060000AE0094BD3F8EC3023F470420649039B75
:104070001343C1F8EC300123184605B05DF804FB8A
:10408000B081E00F58F6000000300E4000B589B056
:104090000390029111461A460B468DF807301346DD
:1040A0008DF8063000230793002306939DF8063011
:1040B0001B029DF80720002A01D0012200E0002207
:1040C00013430593059B40F2013293425CD0059B5C
:1040D00040F20132934200F29380059BB3F5407F9A
:1040E00000F08280059BB3F5407F00F28980059B3C
:1040F00040F2012293423BD0059B40F201229342C1
:104100007ED8059BB3F5007F62D0059BB3F5007F99
:1041100076D8059B40F2011293421DD0059BB3F562
:10412000817F6DD2059BB3F5807F45D0059BB3F5AC
:10413000807F65D8059B002B32D0059B012B5FD17A
:10414000374BD3F874310793079B1B0ADBB20693F6
:10415000079BDBB2079359E0314BD3F874310793D7
:10416000079B1B0E0693079B1B0CDBB207934DE0CE
:104170002B4BD3F878310793079B1B0ADBB20693CE
:10418000079BDBB2079341E0254BD3F878310793C7
:10419000079B1B0E0693079B1B0CDBB2079335E0B6
:1041A0001F4BD3F86C310793079B1B0ADBB20693B6
:1041B000079BDBB2079329E0194BD3F86C310793C7
:1041C000079B1B0E0693079B1B0CDBB207931DE09E
:1041D000134BD3F870310793079B1B0ADBB206938E
:1041E000079BDBB2079311E00D4BD3F870310793B7
:1041F000079B1B0E0693079B1B0CDBB2079305E086
:1042000040F68E110748FEF7C3F800BF039B079ADC
:104210001A60029B069A1A6000BF09B05DF804FBA1
:10422000B081E00F58F6000000B585B003468DF868
:104230000730424B5B6B012B0CBF012300238DF831
:104240000F30FFF7BFFC00BF3C4B9B6F03F0010337
:10425000002BF9D1394B1B6C03F003030293029B33
:10426000002B04D001220D213548FFF72FFC029BC3
:10427000DBB29DF807209A4209D19DF80730002B48
:1042800058D100220D212E48FFF720FC52E0029B5E
:10429000032B02D0029B002B22D19DF80730022B6A
:1042A00003D09DF80730012B1AD14FF40020FFF7FF
:1042B00071FC00BF214B9B6F03F00103002BF9D170
:1042C0001E4B1B6C23F003031C4A43F001031364D1
:1042D00000BFFFF769FC034603F40023002BF8D06E
:1042E00000BF164B9B6F03F00103002BF9D1134B5A
:1042F0001B6C23F003029DF80730104913430B6435
:1043000000BF0E4B9B6F03F00103002BF9D19DF80A
:104310000730002B14BF01230023DBB21A460D2106
:104320000748FFF7D3FB9DF80F30002B03D0FFF7B2
:1043300041FC00E000BF05B05DF804FB00300E401A
:1043400054300E4000B585B001906C4B02229A6348
:104350006A4B9B6B03F00F03022B06D040F64B21F8
:104360006748FEF715F80023C3E0FFF723FD019B24
:104370001B89C82B04D940F655216148FEF708F87F
:10438000019B9A88019B1B899A4204D940F65621C9
:104390005B48FDF7FDFF019BB3F90C30C82B04DD32
:1043A00040F657215648FDF7F3FF019B5B78012B40
:1043B00009D1019B9B88C82B12D940F65B2150483C
:1043C000FDF7E6FF0CE0019B5B78022B08D1019B17
:1043D0009B880A2B04D94FF426614948FDF7D8FF82
:1043E000019BDB8842F21072934204D940F66821A7
:1043F0004348FDF7CDFF019BDB884A2B02D8002301
:10440000039315E0019BDB88B3F5FA7F03D24FF0ED
:10441000805303930CE0019BDB8840F6C312934268
:1044200003D84FF00053039302E04FF0405303933F
:10443000324BDB6C23F0405323F00103019AB2F9B5
:104440000C20002A01DB012100E00021039A0A432D
:104450002A491343CB64294BD3F8EC30274A43F461
:104460004073C2F8EC30019B9A88264B1A80FFF704
:10447000A5FC019B1B891A46019BB3F90C30194618
:104480001046FFF74FFD019B9B88184600F0ACF9E2
:10449000019B9B7B1846FFF759FD019B5B8801221E
:1044A0000121184600F032F8034683F00103DBB225
:1044B000002B06D040F69F211148FDF769FF00232D
:1044C00017E00E4BDB6B0D4A43F48063D363019B13
:1044D0005B781846FFF7A8FE019B9B7A202B01D141
:1044E000012300E000231A4605210748FFF7EEFAF2
:1044F0000123184605B05DF804FB00BF00300E40F4
:1045000058F60000743C00203C300E4010B594B0CA
:1045100001900B468DF8033013468DF802300023CE
:1045200013930023119309AB00221A605A609A601A
:1045300006AB00221A605A609A6003AB00221A6030
:104540005A609A60A44B1B88ADF8083000238DF8A0
:104550000A30019BB3F5E16F06D3019B40F6B832F8
:10456000934201D8012300E000238DF843309DF8E9
:10457000433003F001038DF843309DF8433083F05E
:104580000103DBB2002B06D040F6EE219348FDF785
:10459000FFFE00231DE1019BB3F5E16F8CBF0123FA
:1045A00000238DF842309DF84230002B0AD04FF4A2
:1045B000E163139340F6B8331193119A139BD31A06
:1045C000129309E04FF4966313934FF4E163119350
:1045D000119A139BD31A12939DF84230002B0BD0E3
:1045E0007F4BD3F868310893089B1B0E0593089BFB
:1045F0001B0CDBB208930AE0794BD3F868310893BF
:10460000089B1B0ADBB20593089BDBB20893754B32
:10461000DB6C1B0FDBB203F00303DBB28DF8083059
:104620009DF808309DF8422003A906A8FFF72EFD4B
:104630006C4BD3F8EC301B0ADBB203F00303DBB2A4
:104640008DF809309DF809409DF8422003AB191DF3
:1046500006AB181D2346FFF719FD019A139BD31AC9
:104660000599089A8A1A03FB02F2129BB2FBF3F334
:104670000B930B9A089B13440B93019A139BD31A29
:104680000399069A8A1A03FB02F2129BB2FBF3F318
:104690000993099A069B13440993019A139BD31A11
:1046A0000499079A8A1A03FB02F2129BB2FBF3F3F6
:1046B0000A930A9A079B13440A930B9A059B9A4202
:1046C00013D80B9A089B9A420FD30A9A049B9A42DA
:1046D0000BD80A9A079B9A4207D3099A039B9A42DE
:1046E00003D8099A069B9A4206D240F63C313B48D1
:1046F000FDF74EFE00236CE09DF80230002B12D037
:10470000384BDB6D23F4FE4323F002030B9A1202B5
:1047100013439DF84220002A01D0022200E000222B
:1047200030491343CB659DF80330002B50D09DF8E2
:1047300008109DF8423000221846FFF72DFC034672
:1047400083F00103DBB2002B06D040F64B31234847
:10475000FDF71EFE00233CE09DF809109DF8423055
:1047600001221846FFF718FC034683F00103DBB271
:10477000002B06D040F653311848FDF709FE002300
:1047800027E0099B0F930A9B0E930E9A0F9B93426F
:1047900038BF13460993099B0D93E7230C930C9A9A
:1047A0000D9B934228BF134609930E4B5B6E23F477
:1047B000FF7323F00103099A520013439DF842202E
:1047C000002A01D0012200E00022064913434B6673
:1047D0000123184614B010BDD0F6000058F60000B2
:1047E000B081E00F00300E4000B585B0019000238D
:1047F0000393344B1B6F03F007030293314BDB6CC5
:1048000003F00103002B14D0029B012B11D9019B53
:10481000132B02D8042303933DE0019B132B05D9EE
:10482000019B272B02D80823039334E01023039322
:1048300031E0244BDB6C03F00103002B14D1029B0D
:10484000012B11D8019B092B02D80423039322E0EA
:10485000019B092B05D9019B132B02D80823039335
:1048600019E01023039316E0164BDB6C03F00103F1
:10487000002B0BD0029B012B08D8019B272B02D8C1
:104880000823039307E01023039304E040F69131DB
:104890000D48FDF77DFD039B013B0393039B1A022B
:1048A000039B1B0313430393064BDB6C23F47F42F0
:1048B0000449039B1343CB64FFF7A0FA00BF05B084
:1048C0005DF804FB00300E4058F6000000B585B0DE
:1048D00003468DF8073000211248FFF717F90390BF
:1048E000039B002B03D19DF80730012B07D9039BB5
:1048F000002B04D140F6AF310B48FDF749FD0B4BBF
:104900001B6F23F007029DF80730084913430B671C
:10491000074B1B881846FFF767FF00BF05B05DF81F
:1049200004FB00BF4C300E4058F6000000300E4033
:10493000743C002000B587B0039002910192029B65
:104940001F2B03D991210A48FDF722FD039B03F198
:10495000424303F58013DA00029B13449B00059346
:10496000059B019A1A6000BF07B05DF804FB00BF09
:10497000D4F6000084B001900091019B03F1C06364
:104980000393039B009A1A6000BF04B0704784B081
:1049900001900091019B03F180630393039B009AB4
:1049A0001A6000BF04B0704700B587B00390029151
:1049B0000192FFF733F80590039B1A68029BDB43D3
:1049C0001A400199029B0B401A43039B1A600598F9
:1049D000FFF730F800BF07B05DF804FB82B001902C
:1049E000034A019BC2F8243400BF02B0704700BFE5
:1049F00000A0004000B583B0034600918DF8073059
:104A00009DF80730002B42D09DF80730012B3BD09A
:104A10009DF80730022B34D09DF80730032B2DD0A2
:104A20009DF80730042B27D09DF80730052B20D0A8
:104A30009DF80730062B1AD09DF80730072B14D0AD
:104A40009DF80730082B0ED09DF80730092B07D0B2
:104A50009DF807300A2B01D107231AE0002318E044
:104A60004FF4404315E00F2313E0002311E000232F
:104A70000FE04FF6FF730CE000230AE04FF47F4392
:104A800007E040F6FF7304E04FF6C07301E040F228
:104A9000FF33009AD34003F00103002B04D14FF4FD
:104AA00079710D48FDF774FC9DF8072013465B00F3
:104AB00013441B010C3303F1804303F52043012110
:104AC000009A01FA02F211461846FFF760FF00BF94
:104AD00003B05DF804FB00BF4CF7000000B583B0E5
:104AE000034600918DF807309DF80730002B42D027
:104AF0009DF80730012B3BD09DF80730022B34D0B6
:104B00009DF80730032B2DD09DF80730042B27D0BC
:104B10009DF80730052B20D09DF80730062B1AD0C2
:104B20009DF80730072B14D09DF80730082B0ED0C6
:104B30009DF80730092B07D09DF807300A2B01D1CB
:104B400007231AE0002318E04FF4404315E00F2339
:104B500013E0002311E000230FE04FF6FF730CE099
:104B600000230AE04FF47F4307E040F6FF7304E0C0
:104B70004FF6C07301E040F2FF33009AD34003F0D8
:104B80000103002B04D140F213410D48FDF700FC56
:104B90009DF8072013465B0013441B010C3303F1FF
:104BA000804303F520430121009A01FA02F21146E5
:104BB0001846FFF7DFFE00BF03B05DF804FB00BF3F
:104BC0004CF7000000B583B0034600918DF8073024
:104BD0009DF80730002B27D09DF80730012B23D0FC
:104BE0009DF80730022B1FD09DF80730032B1BD0F8
:104BF0009DF80730042B1CD09DF80730052B13D0EF
:104C00009DF80730062B14D09DF80730072B10D0E5
:104C10009DF80730082B07D09DF80730092B03D0EB
:104C20009DF807300A2B04D1009B23F00113002BC1
:104C300003D07D210B48FDF7ABFB9DF80720134601
:104C40005B0013441B0103F1804303F52043009AEA
:104C50004FF001111846FFF7A7FE00BF03B05DF843
:104C600004FB00BFC4F7000000B587B002910192B9
:104C70001A4603468DF80F3013468DF80E30002388
:104C800005939DF80F30002B42D09DF80F30012B7B
:104C90003BD09DF80F30022B34D09DF80F30032B02
:104CA0002DD09DF80F30042B27D09DF80F30052B09
:104CB00020D09DF80F30062B1AD09DF80F30072B0F
:104CC00014D09DF80F30082B0ED09DF80F30092B13
:104CD00007D09DF80F300A2B01D107231AE00023DB
:104CE00018E04FF4404315E00F2313E0002311E0D8
:104CF00000230FE04FF6FF730CE000230AE04FF4AF
:104D00007F4307E040F6FF7304E04FF6C07301E015
:104D100040F2FF33029AD34003F00103002B03D18A
:104D2000BF213B48FDF734FB019A029B534023F01F
:104D30000303002B03D0C1213548FDF729FB019B5C
:104D4000072B0FD8019B9B000F2202FA03F19DF85D
:104D50000F20019B9B0002FA03F31A462D48FFF730
:104D600023FE11E0019B083B0593059B9B000F224E
:104D700002FA03F19DF80F20059B9B0002FA03F352
:104D80001A462548FFF710FE019B072B10D8019B00
:104D90009B00032202FA03F1029B03F00302019B32
:104DA0009B0002FA03F31A461C48FFF7FDFD0FE0D3
:104DB000059B9B00032202FA03F1029B03F003020E
:104DC000059B9B0002FA03F31A461548FFF7ECFD1A
:104DD0009DF80E301A4601991248FFF7ABFD9DF879
:104DE00020301A4601991048FFF7A4FD0122019BCB
:104DF00002FA03F31846FFF7F1FD9DF824301A4636
:104E000001990A48FFF796FD00BF07B05DF804FB63
:104E1000C4F7000000A4004004A4004008A400401F
:104E20000CA4004010A4004014A4004028A400409A
:104E300000B585B00291019303468DF80F301346FB
:104E40008DF80E309DF80F30002B42D09DF80F30BA
:104E5000012B3BD09DF80F30022B34D09DF80F3042
:104E6000032B2DD09DF80F30042B27D09DF80F3049
:104E7000052B20D09DF80F30062B1AD09DF80F304F
:104E8000072B14D09DF80F30082B0ED09DF80F3053
:104E9000092B07D09DF80F300A2B01D107231AE008
:104EA000002318E04FF4404315E00F2313E00023E4
:104EB00011E000230FE04FF6FF730CE000230AE03F
:104EC0004FF47F4307E040F6FF7304E04FF6C073F2
:104ED00001E040F2FF33029AD34003F00103002BBC
:104EE00004D140F21D113D48FDF752FA9DF80E30F5
:104EF000002B0FD0019B002B06D09DF80F3002999C
:104F00001846FFF7EBFD05E09DF80F3002991846B3
:104F1000FFF770FD029B072B23D831499DF80F2026
:104F200013465B0013441B010B4404331A68029BB5
:104F30009B000F2101FA03F3DB4313409DF80E1091
:104F4000029A920001FA02F2114625489DF80F20BC
:104F5000194313465B0013441B01034404331960D7
:104F600024E01F499DF80F2013465B0013441B01EA
:104F70000B4408331A68029B083B9B000F2101FA7F
:104F800003F3DB4313409DF80E10029A083A920097
:104F900001FA02F2114612489DF80F2019431346F8
:104FA0005B0013441B010344083319609DF80E3065
:104FB000002B0FD1019B002B06D09DF80F300299DA
:104FC0001846FFF78BFD05E09DF80F300299184653
:104FD000FFF710FD00BF05B05DF804FBC4F700004B
:104FE00000A0004000B587B0039002910192029B9F
:104FF0001F2B03D991210A48FDF7CAF9039B03F13E
:10500000424303F58013DA00029B13449B0005938F
:10501000059B019A1A6000BF07B05DF804FB00BF52
:105020003CF8000000B583B001900091019B022B79
:1050300003D94C211748FDF7ABF9009B5B791F2B77
:1050400003D94F211348FDF7A3F9009B1B781A469B
:10505000009B5B789B001A43009B9B789B011A4343
:10506000009BDB781B011A43009B1B79DB021A4370
:10507000009B5B791B031A43009B9B795B040649E9
:105080001A43019B04331B010B441A6000BF03B099
:105090005DF804FBB4F800000020044000B583B0C4
:1050A00003468DF807309DF807301A460021034863
:1050B000FFF798FF00BF03B05DF804FB0020044039
:1050C00082B00190019B1B78002B01D0012200E0EF
:1050D0000022019B5B78002B01D0042300E0002319
:1050E0001343019A9278002A01D0102200E0002296
:1050F0001343019AD278002A01D0202200E0002236
:105100001A43019B1B791B021A43019B5B791B030A
:105110001343019A9279002A02D04FF4004200E032
:1051200000221A43019BDB791B041343019A127A74
:10513000002A02D04FF4003200E00022024913435B
:105140000B6000BF02B070470020044082B00190A5
:105150000B468DF803309DF8033063F07F03DBB21C
:105160001A46019B9A6500BF02B0704700B587B030
:10517000039002910192019B002B04D14FF4227104
:105180001248FDF705F9029B002B03D11048FDF7EB
:105190002FFC0290029B5A1E019B5B00B2FBF3F3B3
:1051A0000593059B1B020593059A0A4B1340002BA0
:1051B00004D040F2A5210548FDF7EAF8039B059AC3
:1051C0005A6100BF07B05DF804FB00BF2CF9000076
:1051D00040410500070080FF00B583B001900091B9
:1051E000019B3B4A934210D0019B3A4A93420CD018
:1051F000019B394A934208D0019B384A934204D01C
:105200004FF456713648FDF7C3F8019800F06AF87C
:10521000019B1A68009B1B8A43F001039BB219464D
:10522000009B9B7B002B02D04FF4806300E00023A7
:105230000B431A43019B1A60019B1B68009A127D65
:10524000002A02D04FF0005200E000221A43019BD6
:105250001A60009B9B7C002B05D0009BDB7C1946D1
:105260000198FFF773FF009B1B7B43F48052019B67
:105270005A60009B5968009B9B681A460198FFF78B
:1052800075FF009B5B7B002B02D0019B1022DA6034
:10529000009B5B7D002B05D0019B1B6843F4803293
:1052A000019B1A60009B9B7D1B0703F0E042009B63
:1052B000DB7D1B0503F4E0031A43019B1A66009B88
:1052C0001B781A46019BDA6000BF03B05DF804FB4F
:1052D000000001400004014000080140000C0140B2
:1052E0002CF9000000B583B00190019B2D4A934238
:1052F00010D0019B2C4A93420CD0019B2B4A934225
:1053000008D0019B2A4A934204D040F22E412948FA
:10531000FDF73EF8019B40F6AA62DA60019B00228D
:105320001A60019B41F205025A60019B00229A60BB
:10533000019B00225A61019B0022DA64019B1E4AF4
:105340009A64019B00221A66019B00225A67019B06
:1053500000229A67019B0022DA67019B114A93425F
:105360000BD0019B104A934207D0019B0F4A9342F6
:1053700003D0019B0E4A934202D1019B00221A6581
:10538000019B00229A65019B074A934203D0019B2F
:10539000074A934202D1019B0022DA6500BF03B0A5
:1053A0005DF804FB000001400004014000080140DA
:1053B000000C01402CF90000F9FF010082B00190BF
:1053C0000B468DF8033000BF019B1B6903F04003BF
:1053D000002BF9D09DF80320019B5A6300BF02B057
:1053E0007047000000B58BB00790069105920493BA
:1053F000069B0993049B002B01D100F0FCF8099B4C
:10540000002B01D1094B0993049B029300230193C4
:10541000012300930423059A0999079800F008F8DE
:105420000890089B18460BB05DF804FB6410002040
:1054300000B589B00590049103920293039B002B61
:105440000DD10C9B08221A700C9B2A4A5A600C9BA7
:105450004FF4D9629A600C9B274ADA60FEE7029B00
:10546000002B05D0029B5A1E029B1340002B02D03A
:10547000029B002B01D1012300E00023002B0DD162
:105480000C9B08221A700C9B1A4A5A600C9B40F223
:10549000CB629A600C9B184ADA60FEE7FEF7D4FAFA
:1054A00007900C9B01930B9B00930A9B029A039914
:1054B000049800F023F806900C9B1B78002B11D069
:1054C0000798FEF7D1FA0C9B16221A700C9B094A1A
:1054D0005A600C9B40F2D7629A600C9B064ADA60D5
:1054E000002303E00798FEF7BFFA069B184609B0B1
:1054F0005DF804FBA4F9000030FA00008AB00390C4
:10550000029101920093019B002B01D0019B00E0CE
:105510000423009A934238BF13460993039B9B6868
:105520001A46099B5B421A40039B9B681946099BDC
:10553000013B0B40002B01D0099B00E000231344EA
:105540000893089A029B1A44009B5B421A400899F0
:10555000029B1944009B013B0B40002B01D0009B98
:1055600000E0002313440793039B5B681A46039BE8
:105570009B68D31A01330693039B9B681A46079BCB
:105580009B1A0593069A059B9A4216D20A9B002BFA
:1055900004D0059A069BD21A0A9B1A600B9B16220E
:1055A0001A700B9B0F4A5A600B9B40F222729A6052
:1055B0000B9B0D4ADA60002310E0079A039B9A6068
:1055C0000B9B00221A700B9B064A5A600B9B4FF4F0
:1055D000E5629A600B9B044ADA60089B18460AB0A1
:1055E000704700BFA4F9000048FA000008B500F0B9
:1055F00017F800BF08BDFEE700B583B005F058FA04
:105600000190019B184603B05DF804FB82B0019045
:10561000024A019B136000BF02B070477C6000200B
:1056200008B5034B00221A6005F020FA00BF08BD40
:105630007C60002000B585B0154B1B78012B0AD18A
:10564000FEF71EFA0346002B02D06FF005031BE0A5
:105650004FF0FF3318E06B46184600F03BF89DF81A
:105660000030002B02D04FF0FF330DE06B461A469E
:105670000021012000F08AFC9DF80030002B02D0B0
:105680004FF0FF3300E00023184605B05DF804FB3F
:105690000862002000B585B0FEF7F2F90346002B42
:1056A00002D06FF005030CE0084B1B78012B02D1F0
:1056B0004FF0FF3305E06B46184600F0E1FC4FF079
:1056C000FF33184605B05DF804FB00BF08620020F8
:1056D00000BF7047F0B587B00190019B002B01D14E
:1056E000FFF789FF894B5B68002B2CD0874B1B6829
:1056F000002B10D1854B196B844B5B689A00019B82
:105700008348FFF76FFE0346824A1360019B1B78B4
:10571000002B04D010E27D4B1B687E4A13607D4B4A
:105720001B687D4A1360794B5B687C4A1360774B3A
:105730005B689B007A4A13607A4B1A68784B1B6847
:105740001344784A1360714B1B89002B24D06F4B94
:10575000196B6E4B1B891A01019B7348FFF742FEC0
:105760000346724A1360019B1B78002B40F0D981DD
:105770006E4B1B686E4A1360644B1A896D4B1A801E
:10578000624B1B891B016C4A1360664B1A686A4B9B
:105790001B681344634A13605C4B5B69002B40D069
:1057A0005A4B1B69002B10D1584B196B574B5B6937
:1057B0009A00019B6148FFF715FE0346604A13609B
:1057C000019B1B78002B04D0B6E1504B1B695C4A4F
:1057D00013604E4B1A7E5B4B1A704C4BDB695A4A76
:1057E0001360574B1B68594A1360484B5B69474A23
:1057F000D26802FB03F3564AA2FB03235B09554A16
:105800001360424B5B69544A1360404B5B699B00D9
:10581000524A1360434B1A68504B1B681344414A69
:1058200013603A4B5B6A002B41D0384B1B6A002B4C
:1058300010D1364B196B354B5B6A9A00019B484877
:10584000FFF7D0FD0346474A1360019B1B78002BEE
:1058500004D071E12D4B1B6A424A13602B4B93F825
:105860002820414B1A703F4B1B68404A1360274B5E
:105870005B6A264AD26802FB03F3354AA2FB032384
:105880005B093B4A1360214B5B6A3A4A13601F4B2A
:105890005B6A9B00384A13601C4BDB6A374A136013
:1058A000204B1A68344B1B6813441E4A1360174B75
:1058B0005B6B334A136005F0EDF906F0FBF90390DA
:1058C000039B002B0DD0019B01221A70019B2D4AD6
:1058D0005A60019B4FF4D7729A60019B2A4ADA60A2
:1058E0002AE106F063FB0246254B1B689A424DD223
:1058F000019B09221A70019B224A5A60019B4FF4B6
:10590000D9729A60019B204ADA60FEE77810002085
:1059100064FA000080600020906000209460002005
:1059200098600020DC60002078FA0000846000208D
:105930009C600020A0600020A46000208CFA000081
:1059400088600020A8600020AC600020B0600020CB
:105950001F85EB51B4600020B8600020BC600020BF
:10596000A8FA00008C600020C0600020C860002001
:10597000CC600020D0600020D4600020C4600020F3
:10598000D8600020C4FA000064FB000006F00EFBA3
:1059900002466A4B1B689A4203D1694B00221A6087
:1059A00015E006F003FB034600221E46174632466A
:1059B0003B464FF000004FF0010108F033FC024677
:1059C0000B465E4B1B6802FB03F35D4A13605B4BA7
:1059D0001B68B3F57A7F03D85A4B00221A6014E093
:1059E000564B1B6800221C46154622462B464FF09C
:1059F00000004FF0010108F015FC02460B464FF481
:105A00007A7302FB03F34F4A13604F4B00221A7064
:105A10004E4B00221A704E4B00221A604D4B002252
:105A20001A604D4B00221A704C4B00221A704C4BDE
:105A300000221A70019804F04BF90346494AA2FB70
:105A40000323DB08484A1360019B1B78002B6AD1B3
:105A5000464B1B68002B1DD0454B1B680593059BCF
:105A6000002B17D0414B1B68049308E0049B013BBB
:105A70000493059B00221A60059B04330593049B45
:105A8000002BF3D13A4B1B68384A1268114618466E
:105A900004F02CF8374B00221A7002F05BFC00F087
:105AA000B3FD354B00221A60344B00221A80344B70
:105AB0001B88002B06D0019801F03EFF019B1B784C
:105AC000002B32D12F4B00221A602F4B00221A805C
:105AD0002E4B00221A602E4B00221A802D4B0022E2
